{
  "contractName": "Cashier",
  "abi": [
    {
      "inputs": [
        {
          "internalType": "address",
          "name": "_voucherKernel",
          "type": "address"
        }
      ],
      "stateMutability": "nonpayable",
      "type": "constructor"
    },
    {
      "anonymous": false,
      "inputs": [
        {
          "indexed": true,
          "internalType": "uint256",
          "name": "_tokenIdVoucher",
          "type": "uint256"
        },
        {
          "indexed": false,
          "internalType": "address",
          "name": "_to",
          "type": "address"
        },
        {
          "indexed": false,
          "internalType": "uint256",
          "name": "_payment",
          "type": "uint256"
        },
        {
          "indexed": false,
          "internalType": "enum Cashier.PaymentType",
          "name": "_type",
          "type": "uint8"
        }
      ],
      "name": "LogAmountDistribution",
      "type": "event"
    },
    {
      "anonymous": false,
      "inputs": [
        {
          "indexed": false,
          "internalType": "address",
          "name": "_newBosonRouter",
          "type": "address"
        },
        {
          "indexed": false,
          "internalType": "address",
          "name": "_triggeredBy",
          "type": "address"
        }
      ],
      "name": "LogBosonRouterSet",
      "type": "event"
    },
    {
      "anonymous": false,
      "inputs": [
        {
          "indexed": false,
          "internalType": "bool",
          "name": "_disasterState",
          "type": "bool"
        },
        {
          "indexed": false,
          "internalType": "address",
          "name": "_triggeredBy",
          "type": "address"
        }
      ],
      "name": "LogDisasterStateSet",
      "type": "event"
    },
    {
      "anonymous": false,
      "inputs": [
        {
          "indexed": false,
          "internalType": "uint256",
          "name": "_amount",
          "type": "uint256"
        },
        {
          "indexed": false,
          "internalType": "address",
          "name": "_triggeredBy",
          "type": "address"
        }
      ],
      "name": "LogWithdrawEthOnDisaster",
      "type": "event"
    },
    {
      "anonymous": false,
      "inputs": [
        {
          "indexed": false,
          "internalType": "uint256",
          "name": "_amount",
          "type": "uint256"
        },
        {
          "indexed": false,
          "internalType": "address",
          "name": "_tokenAddress",
          "type": "address"
        },
        {
          "indexed": false,
          "internalType": "address",
          "name": "_triggeredBy",
          "type": "address"
        }
      ],
      "name": "LogWithdrawTokensOnDisaster",
      "type": "event"
    },
    {
      "anonymous": false,
      "inputs": [
        {
          "indexed": false,
          "internalType": "address",
          "name": "_caller",
          "type": "address"
        },
        {
          "indexed": false,
          "internalType": "address",
          "name": "_payee",
          "type": "address"
        },
        {
          "indexed": false,
          "internalType": "uint256",
          "name": "_payment",
          "type": "uint256"
        }
      ],
      "name": "LogWithdrawal",
      "type": "event"
    },
    {
      "anonymous": false,
      "inputs": [
        {
          "indexed": true,
          "internalType": "address",
          "name": "previousOwner",
          "type": "address"
        },
        {
          "indexed": true,
          "internalType": "address",
          "name": "newOwner",
          "type": "address"
        }
      ],
      "name": "OwnershipTransferred",
      "type": "event"
    },
    {
      "anonymous": false,
      "inputs": [
        {
          "indexed": false,
          "internalType": "address",
          "name": "account",
          "type": "address"
        }
      ],
      "name": "Paused",
      "type": "event"
    },
    {
      "anonymous": false,
      "inputs": [
        {
          "indexed": false,
          "internalType": "address",
          "name": "account",
          "type": "address"
        }
      ],
      "name": "Unpaused",
      "type": "event"
    },
    {
      "inputs": [],
      "name": "bosonRouterAddress",
      "outputs": [
        {
          "internalType": "address",
          "name": "",
          "type": "address"
        }
      ],
      "stateMutability": "view",
      "type": "function",
      "constant": true
    },
    {
      "inputs": [],
      "name": "disasterState",
      "outputs": [
        {
          "internalType": "bool",
          "name": "",
          "type": "bool"
        }
      ],
      "stateMutability": "view",
      "type": "function",
      "constant": true
    },
    {
      "inputs": [
        {
          "internalType": "address",
          "name": "",
          "type": "address"
        }
      ],
      "name": "escrow",
      "outputs": [
        {
          "internalType": "uint256",
          "name": "",
          "type": "uint256"
        }
      ],
      "stateMutability": "view",
      "type": "function",
      "constant": true
    },
    {
      "inputs": [
        {
          "internalType": "address",
          "name": "",
          "type": "address"
        },
        {
          "internalType": "address",
          "name": "",
          "type": "address"
        }
      ],
      "name": "escrowTokens",
      "outputs": [
        {
          "internalType": "uint256",
          "name": "",
          "type": "uint256"
        }
      ],
      "stateMutability": "view",
      "type": "function",
      "constant": true
    },
    {
      "inputs": [],
      "name": "owner",
      "outputs": [
        {
          "internalType": "address",
          "name": "",
          "type": "address"
        }
      ],
      "stateMutability": "view",
      "type": "function",
      "constant": true
    },
    {
      "inputs": [],
      "name": "paused",
      "outputs": [
        {
          "internalType": "bool",
          "name": "",
          "type": "bool"
        }
      ],
      "stateMutability": "view",
      "type": "function",
      "constant": true
    },
    {
      "inputs": [],
      "name": "renounceOwnership",
      "outputs": [],
      "stateMutability": "nonpayable",
      "type": "function"
    },
    {
      "inputs": [
        {
          "internalType": "address",
          "name": "newOwner",
          "type": "address"
        }
      ],
      "name": "transferOwnership",
      "outputs": [],
      "stateMutability": "nonpayable",
      "type": "function"
    },
    {
      "inputs": [],
      "name": "voucherKernel",
      "outputs": [
        {
          "internalType": "address",
          "name": "",
          "type": "address"
        }
      ],
      "stateMutability": "view",
      "type": "function",
      "constant": true
    },
    {
      "stateMutability": "payable",
      "type": "receive",
      "payable": true
    },
    {
      "inputs": [],
      "name": "pause",
      "outputs": [],
      "stateMutability": "nonpayable",
      "type": "function"
    },
    {
      "inputs": [],
      "name": "unpause",
      "outputs": [],
      "stateMutability": "nonpayable",
      "type": "function"
    },
    {
      "inputs": [],
      "name": "canUnpause",
      "outputs": [
        {
          "internalType": "bool",
          "name": "",
          "type": "bool"
        }
      ],
      "stateMutability": "view",
      "type": "function",
      "constant": true
    },
    {
      "inputs": [],
      "name": "setDisasterState",
      "outputs": [],
      "stateMutability": "nonpayable",
      "type": "function"
    },
    {
      "inputs": [],
      "name": "withdrawEthOnDisaster",
      "outputs": [],
      "stateMutability": "nonpayable",
      "type": "function"
    },
    {
      "inputs": [
        {
          "internalType": "address",
          "name": "token",
          "type": "address"
        }
      ],
      "name": "withdrawTokensOnDisaster",
      "outputs": [],
      "stateMutability": "nonpayable",
      "type": "function"
    },
    {
      "inputs": [
        {
          "internalType": "uint256",
          "name": "_tokenIdVoucher",
          "type": "uint256"
        }
      ],
      "name": "withdraw",
      "outputs": [],
      "stateMutability": "nonpayable",
      "type": "function"
    },
    {
      "inputs": [
        {
          "internalType": "uint256",
          "name": "_tokenIdSupply",
          "type": "uint256"
        },
        {
          "internalType": "uint256",
          "name": "_burnedQty",
          "type": "uint256"
        },
        {
          "internalType": "address payable",
          "name": "_msgSender",
          "type": "address"
        }
      ],
      "name": "withdrawDepositsSe",
      "outputs": [],
      "stateMutability": "nonpayable",
      "type": "function"
    },
    {
      "inputs": [
        {
          "internalType": "address",
          "name": "_bosonRouterAddress",
          "type": "address"
        }
      ],
      "name": "setBosonRouterAddress",
      "outputs": [],
      "stateMutability": "nonpayable",
      "type": "function"
    },
    {
      "inputs": [
        {
          "internalType": "address",
          "name": "_account",
          "type": "address"
        },
        {
          "internalType": "uint256",
          "name": "_newAmount",
          "type": "uint256"
        }
      ],
      "name": "updateEscrowAmount",
      "outputs": [],
      "stateMutability": "nonpayable",
      "type": "function"
    },
    {
      "inputs": [
        {
          "internalType": "address",
          "name": "_token",
          "type": "address"
        },
        {
          "internalType": "address",
          "name": "_account",
          "type": "address"
        },
        {
          "internalType": "uint256",
          "name": "_newAmount",
          "type": "uint256"
        }
      ],
      "name": "updateEscrowTokensAmount",
      "outputs": [],
      "stateMutability": "nonpayable",
      "type": "function"
    },
    {
      "inputs": [
        {
          "internalType": "address",
          "name": "_account",
          "type": "address"
        }
      ],
      "name": "getEscrowAmount",
      "outputs": [
        {
          "internalType": "uint256",
          "name": "",
          "type": "uint256"
        }
      ],
      "stateMutability": "view",
      "type": "function",
      "constant": true
    },
    {
      "inputs": [
        {
          "internalType": "address",
          "name": "_token",
          "type": "address"
        },
        {
          "internalType": "address",
          "name": "_account",
          "type": "address"
        }
      ],
      "name": "getEscrowTokensAmount",
      "outputs": [
        {
          "internalType": "uint256",
          "name": "",
          "type": "uint256"
        }
      ],
      "stateMutability": "view",
      "type": "function",
      "constant": true
    }
  ],
  "bytecode": "0x60806040523480156200001157600080fd5b506040516200394338038062003943833981810160405260208110156200003757600080fd5b5051600160009081556200004a620000d8565b600180546001600160a01b0319166001600160a01b038316908117909155604051919250906000907f8be0079c531659141344cd1fd0a4f28419497f9722a3daafe3b4186f6b6457e0908290a3506001805460ff60a01b19908116909155600280546001600160a01b0319166001600160a01b039390931692909217909155600380549091169055620000dc565b3390565b61385780620000ec6000396000f3fe6080604052600436106101095760003560e01c806303f7b2c11461016457806318b868451461018d5780632a950716146101c65780632e1a7d4d1461021357806336a166f61461023d5780633f4ba83a146102525780635321847e1461026757806357d3c7c3146102a65780635adf9284146102d95780635c975abb14610314578063715018a6146103295780637c7270881461033e5780638456cb59146103535780638cfb578e146103685780638da5cb5b1461039957806392aa02ea146103ae578063ae04884e146103f1578063bd17de4014610406578063cbe0d73b14610439578063d13583651461044e578063e13f44bf14610481578063f2fde38b146104b45761015f565b3661015f576003546001600160a01b0316331461015d576040805162461bcd60e51b815260206004820152600d60248201526c494e56414c49445f504159454560981b604482015290519081900360640190fd5b005b600080fd5b34801561017057600080fd5b506101796104e7565b604080519115158252519081900360200190f35b34801561019957600080fd5b5061015d600480360360408110156101b057600080fd5b506001600160a01b0381351690602001356104f7565b3480156101d257600080fd5b50610201600480360360408110156101e957600080fd5b506001600160a01b03813581169160200135166105b2565b60408051918252519081900360200190f35b34801561021f57600080fd5b5061015d6004803603602081101561023657600080fd5b50356105df565b34801561024957600080fd5b5061015d610b91565b34801561025e57600080fd5b5061015d610c9e565b34801561027357600080fd5b5061015d6004803603606081101561028a57600080fd5b50803590602081013590604001356001600160a01b0316610d47565b3480156102b257600080fd5b50610201600480360360208110156102c957600080fd5b50356001600160a01b03166110f6565b3480156102e557600080fd5b50610201600480360360408110156102fc57600080fd5b506001600160a01b0381358116916020013516611108565b34801561032057600080fd5b50610179611125565b34801561033557600080fd5b5061015d611135565b34801561034a57600080fd5b5061015d6111cf565b34801561035f57600080fd5b5061015d61135f565b34801561037457600080fd5b5061037d611406565b604080516001600160a01b039092168252519081900360200190f35b3480156103a557600080fd5b5061037d611415565b3480156103ba57600080fd5b5061015d600480360360608110156103d157600080fd5b506001600160a01b03813581169160208101359091169060400135611424565b3480156103fd57600080fd5b506101796114ef565b34801561041257600080fd5b5061015d6004803603602081101561042957600080fd5b50356001600160a01b0316611500565b34801561044557600080fd5b5061037d61160d565b34801561045a57600080fd5b506102016004803603602081101561047157600080fd5b50356001600160a01b031661161c565b34801561048d57600080fd5b5061015d600480360360208110156104a457600080fd5b50356001600160a01b0316611637565b3480156104c057600080fd5b5061015d600480360360208110156104d757600080fd5b50356001600160a01b0316611857565b600354600160a01b900460ff1681565b6003546001600160a01b0316610545576040805162461bcd60e51b815260206004820152600e60248201526d2aa729a822a1a4a324a2a22fa12960911b604482015290519081900360640190fd5b6003546001600160a01b03163314610596576040805162461bcd60e51b815260206004820152600f60248201526e2aa720aaaa2427a924ad22a22fa12960891b604482015290519081900360640190fd5b6001600160a01b03909116600090815260046020526040902055565b6001600160a01b038083166000908152600560209081526040808320938516835292905220545b92915050565b60026000541415610625576040805162461bcd60e51b815260206004820152601f602482015260008051602061368e833981519152604482015290519081900360640190fd5b6002600055610632611125565b15610677576040805162461bcd60e51b815260206004820152601060248201526f14185d5cd8589b194e881c185d5cd95960821b604482015290519081900360640190fd5b61067f6135cf565b816106c2576040805162461bcd60e51b815260206004820152600e60248201526d155394d41150d25192515117d25160921b604482015290519081900360640190fd5b60208082018390526002546040805163035e54d560e31b81526004810186905290516001600160a01b0390921692631af2a6a892602480840193829003018186803b15801561071057600080fd5b505afa158015610724573d6000803e3d6000fd5b505050506040513d602081101561073a57600080fd5b505180825260025460408051631cf7955d60e01b81526004810193909352516001600160a01b0390911691631cf7955d916024808301926020929190829003018186803b15801561078a57600080fd5b505afa15801561079e573d6000803e3d6000fd5b505050506040513d60208110156107b457600080fd5b505160ff166101a08201819052158015906107d857506004816101a0015160ff1611155b610822576040805162461bcd60e51b8152602060048201526016602482015275125395905312510814105653515395081351551213d160521b604482015290519081900360640190fd5b600254602082015160408051630c969ea160e21b81526004810192909252516001600160a01b039092169163325a7a8491602480820192606092909190829003018186803b15801561087357600080fd5b505afa158015610887573d6000803e3d6000fd5b505050506040513d606081101561089d57600080fd5b5080516020808301516040938401516101c0860151901515818601529015159181019190915260ff90911690526002548251825163d887b4e760e01b8152600481019190915291516001600160a01b039091169163d887b4e7916024808301926060929190829003018186803b15801561091657600080fd5b505afa15801561092a573d6000803e3d6000fd5b505050506040513d606081101561094057600080fd5b50805160208083015160409384015160c086015260a0850152608084019190915260025483518351631f38585f60e01b8152600481019190915292516001600160a01b0390911692631f38585f926024808301939192829003018186803b1580156109aa57600080fd5b505afa1580156109be573d6000803e3d6000fd5b505050506040513d60208110156109d457600080fd5b50516001600160a01b039081166040808401919091526002546020848101518351637baca8e760e11b815260048101919091529251919093169263f75951ce9260248082019391829003018186803b158015610a2f57600080fd5b505afa158015610a43573d6000803e3d6000fd5b505050506040513d6020811015610a5957600080fd5b50516001600160a01b031660608201526101c081015160200151610a8057610a8081611948565b806101c0015160400151158015610aa457506101c081015151610aa49060016119db565b15610ab257610ab2816119ec565b61010081015115610adb57610adb610ac8611415565b6101008301516101a08401518451611aed565b61012081015115610b0457610b048160400151826101200151836101a001518460000151611c76565b61014081015115610b2d57610b2d8160400151826101400151836101a001518460000151611aed565b61016081015115610b5657610b568160600151826101600151836101a001518460000151611c76565b61018081015115610b7f57610b7f8160600151826101800151836101a001518460000151611aed565b610b876135cf565b5050600160005550565b610b99611dc0565b6001600160a01b0316610baa611415565b6001600160a01b031614610bf3576040805162461bcd60e51b81526020600482018190526024820152600080516020613798833981519152604482015290519081900360640190fd5b610bfb611125565b610c43576040805162461bcd60e51b815260206004820152601460248201527314185d5cd8589b194e881b9bdd081c185d5cd95960621b604482015290519081900360640190fd5b6003805460ff60a01b1916600160a01b90811791829055604080519190920460ff161515815233602082015281517fdf38caf468609827a33cd8703b08fca23e51107a2ad8d4f7587bc0be15a2ee9e929181900390910190a1565b6003546001600160a01b0316610cec576040805162461bcd60e51b815260206004820152600e60248201526d2aa729a822a1a4a324a2a22fa12960911b604482015290519081900360640190fd5b6003546001600160a01b03163314610d3d576040805162461bcd60e51b815260206004820152600f60248201526e2aa720aaaa2427a924ad22a22fa12960891b604482015290519081900360640190fd5b610d45611dc4565b565b60026000541415610d8d576040805162461bcd60e51b815260206004820152601f602482015260008051602061368e833981519152604482015290519081900360640190fd5b60026000556003546001600160a01b0316610de0576040805162461bcd60e51b815260206004820152600e60248201526d2aa729a822a1a4a324a2a22fa12960911b604482015290519081900360640190fd5b6003546001600160a01b03163314610e31576040805162461bcd60e51b815260206004820152600f60248201526e2aa720aaaa2427a924ad22a22fa12960891b604482015290519081900360640190fd5b60025460408051638810632360e01b81526004810186905290516000926001600160a01b0316916388106323916024808301926020929190829003018186803b158015610e7d57600080fd5b505afa158015610e91573d6000803e3d6000fd5b505050506040513d6020811015610ea757600080fd5b505190506000610eb78285611e67565b60025460408051631cf7955d60e01b81526004810189905290519293506000926001600160a01b0390921691631cf7955d91602480820192602092909190829003018186803b158015610f0957600080fd5b505afa158015610f1d573d6000803e3d6000fd5b505050506040513d6020811015610f3357600080fd5b5051905060ff811615801590610f4d575060048160ff1611155b610f97576040805162461bcd60e51b8152602060048201526016602482015275125395905312510814105653515395081351551213d160521b604482015290519081900360640190fd5b60ff811660011480610fac575060ff81166003145b15610fee576001600160a01b038416600090815260046020526040902054610fd49083611ec7565b6001600160a01b0385166000908152600460205260409020555b60ff811660021480611003575060ff81166004145b156110dd5760025460408051639a751bbd60e01b81526004810189905290516000926001600160a01b031691639a751bbd916024808301926020929190829003018186803b15801561105457600080fd5b505afa158015611068573d6000803e3d6000fd5b505050506040513d602081101561107e57600080fd5b50516001600160a01b038082166000908152600560209081526040808320938a16835292905220549091506110b39084611ec7565b6001600160a01b039182166000908152600560209081526040808320948916835293905291909120555b6110e984838389611aed565b5050600160005550505050565b60046020526000908152604090205481565b600560209081526000928352604080842090915290825290205481565b600154600160a01b900460ff1690565b61113d611dc0565b6001600160a01b031661114e611415565b6001600160a01b031614611197576040805162461bcd60e51b81526020600482018190526024820152600080516020613798833981519152604482015290519081900360640190fd5b6001546040516000916001600160a01b0316906000805160206137b8833981519152908390a3600180546001600160a01b0319169055565b6111d7611125565b61121f576040805162461bcd60e51b815260206004820152601460248201527314185d5cd8589b194e881b9bdd081c185d5cd95960621b604482015290519081900360640190fd5b60026000541415611265576040805162461bcd60e51b815260206004820152601f602482015260008051602061368e833981519152604482015290519081900360640190fd5b6002600055600354600160a01b900460ff166112b25760405162461bcd60e51b81526004018080602001828103825260238152602001806136d46023913960400191505060405180910390fd5b3360009081526004602052604090205480611303576040805162461bcd60e51b815260206004820152600c60248201526b455343524f575f454d50545960a01b604482015290519081900360640190fd5b3360008181526004602052604081205561131d9082611f24565b6040805182815233602082015281517fb04d37d3296a34ef094bb4da3e1025abae58c3f53fd6b638c1d0174b3a9d509b929181900390910190a1506001600055565b6003546001600160a01b03166113ad576040805162461bcd60e51b815260206004820152600e60248201526d2aa729a822a1a4a324a2a22fa12960911b604482015290519081900360640190fd5b6003546001600160a01b031633146113fe576040805162461bcd60e51b815260206004820152600f60248201526e2aa720aaaa2427a924ad22a22fa12960891b604482015290519081900360640190fd5b610d4561200e565b6003546001600160a01b031681565b6001546001600160a01b031690565b6003546001600160a01b0316611472576040805162461bcd60e51b815260206004820152600e60248201526d2aa729a822a1a4a324a2a22fa12960911b604482015290519081900360640190fd5b6003546001600160a01b031633146114c3576040805162461bcd60e51b815260206004820152600f60248201526e2aa720aaaa2427a924ad22a22fa12960891b604482015290519081900360640190fd5b6001600160a01b0392831660009081526005602090815260408083209490951682529290925291902055565b600354600160a01b900460ff161590565b611508611dc0565b6001600160a01b0316611519611415565b6001600160a01b031614611562576040805162461bcd60e51b81526020600482018190526024820152600080516020613798833981519152604482015290519081900360640190fd5b6001600160a01b0381166115b3576040805162461bcd60e51b8152602060048201526013602482015272554e5350454349464945445f4144445245535360681b604482015290519081900360640190fd5b600380546001600160a01b0319166001600160a01b0383169081179091556040805191825233602083015280517fac81fe7dd460bb5162a4a7d8fb92a13bd2baf450914fc6b1c4cc3180eba55af09281900390910190a150565b6002546001600160a01b031681565b6001600160a01b031660009081526004602052604090205490565b61163f611125565b611687576040805162461bcd60e51b815260206004820152601460248201527314185d5cd8589b194e881b9bdd081c185d5cd95960621b604482015290519081900360640190fd5b600260005414156116cd576040805162461bcd60e51b815260206004820152601f602482015260008051602061368e833981519152604482015290519081900360640190fd5b6002600055806001600160a01b038116611726576040805162461bcd60e51b8152602060048201526015602482015274494e56414c49445f544f4b454e5f4144445245535360581b604482015290519081900360640190fd5b600354600160a01b900460ff1661176e5760405162461bcd60e51b81526004018080602001828103825260238152602001806136d46023913960400191505060405180910390fd5b6001600160a01b0382166000908152600560209081526040808320338452909152902054806117d3576040805162461bcd60e51b815260206004820152600c60248201526b455343524f575f454d50545960a01b604482015290519081900360640190fd5b6001600160a01b038316600090815260056020908152604080832033808552925282209190915561180690849083612097565b604080518281526001600160a01b0385166020820152338183015290517f7e5dd3919ea79fc8c93a49edf5656ab20f89df3e419fde48c90a90765f7605a69181900360600190a15050600160005550565b61185f611dc0565b6001600160a01b0316611870611415565b6001600160a01b0316146118b9576040805162461bcd60e51b81526020600482018190526024820152600080516020613798833981519152604482015290519081900360640190fd5b6001600160a01b0381166118fe5760405162461bcd60e51b81526004018080602001828103825260268152602001806136ae6026913960400191505060405180910390fd5b6001546040516001600160a01b038084169216906000805160206137b883398151915290600090a3600180546001600160a01b0319166001600160a01b0392909216919091179055565b6101c08101515161195a9060066119db565b1561196d57611968816120e9565b6119d8565b6101c08101515161197f9060056119db565b8061199757506101c0810151516119979060046119db565b806119ca57506101c0810151516119af9060026119db565b80156119ca57506101c0810151516119c89060066119db565b155b156119d8576119d88161233e565b50565b60ff91821691161c60019081161490565b6101c0810151516119fe9060036119db565b15611a1157611a0c8161257e565b611a3a565b6101c081015151611a239060026119db565b15611a3157611a0c81612a46565b611a3a81612cc8565b6101c081015151611a4c9060066119db565b80611a6457506101c081015151611a649060026119db565b15611a7757611a7281612e9c565b611a80565b611a8081613071565b60025460208201516040805163ebba1b2960e01b81526004810192909252516001600160a01b039092169163ebba1b299160248082019260009290919082900301818387803b158015611ad257600080fd5b505af1158015611ae6573d6000803e3d6000fd5b5050505050565b6001600160a01b038416611b3e576040805162461bcd60e51b8152602060048201526013602482015272554e5350454349464945445f4144445245535360681b604482015290519081900360640190fd5b60008311611b6d576040805162461bcd60e51b8152602060048201526000602482015290519081900360640190fd5b60ff821660011480611b82575060ff82166003145b15611bd157611b9a6001600160a01b03851684611f24565b604080513381526001600160a01b038616602082015280820185905290516000805160206136f78339815191529181900360600190a15b60ff821660021480611be6575060ff82166004145b15611c705760025460408051639a751bbd60e01b81526004810184905290516000926001600160a01b031691639a751bbd916024808301926020929190829003018186803b158015611c3757600080fd5b505afa158015611c4b573d6000803e3d6000fd5b505050506040513d6020811015611c6157600080fd5b50519050611ae6818686612097565b50505050565b6001600160a01b038416611cc7576040805162461bcd60e51b8152602060048201526013602482015272554e5350454349464945445f4144445245535360681b604482015290519081900360640190fd5b60008311611cf6576040805162461bcd60e51b8152602060048201526000602482015290519081900360640190fd5b60ff821660011480611d0b575060ff82166002145b15611d5a57611d236001600160a01b03851684611f24565b604080513381526001600160a01b038616602082015280820185905290516000805160206136f78339815191529181900360600190a15b60ff821660031480611d6f575060ff82166004145b15611c70576002546040805163e875a61360e01b81526004810184905290516000926001600160a01b03169163e875a613916024808301926020929190829003018186803b158015611c3757600080fd5b3390565b611dcc611125565b611e14576040805162461bcd60e51b815260206004820152601460248201527314185d5cd8589b194e881b9bdd081c185d5cd95960621b604482015290519081900360640190fd5b6001805460ff60a01b191690557f5db9ee0a495bf2e6ff9c91a7834c1ba4fdd244a5e8aa4e537bd38aeae4b073aa611e4a611dc0565b604080516001600160a01b039092168252519081900360200190a1565b600082611e76575060006105d9565b82820282848281611e8357fe5b0414611ec05760405162461bcd60e51b81526004018080602001828103825260218152602001806137776021913960400191505060405180910390fd5b9392505050565b600082821115611f1e576040805162461bcd60e51b815260206004820152601e60248201527f536166654d6174683a207375627472616374696f6e206f766572666c6f770000604482015290519081900360640190fd5b50900390565b80471015611f79576040805162461bcd60e51b815260206004820152601d60248201527f416464726573733a20696e73756666696369656e742062616c616e6365000000604482015290519081900360640190fd5b6040516000906001600160a01b0384169083908381818185875af1925050503d8060008114611fc4576040519150601f19603f3d011682016040523d82523d6000602084013e611fc9565b606091505b50509050806120095760405162461bcd60e51b815260040180806020018281038252603a815260200180613717603a913960400191505060405180910390fd5b505050565b612016611125565b1561205b576040805162461bcd60e51b815260206004820152601060248201526f14185d5cd8589b194e881c185d5cd95960821b604482015290519081900360640190fd5b6001805460ff60a01b1916600160a01b1790557f62e78cea01bee320cd4e420270b5ea74000d11b0c9f74754ebdbfc544b05a258611e4a611dc0565b604080516001600160a01b038416602482015260448082018490528251808303909101815260649091019091526020810180516001600160e01b031663a9059cbb60e01b179052612009908490613245565b6101a081015160ff166001148061210857506101a081015160ff166002145b1561215657608081015160608201516001600160a01b031660009081526004602052604090205461213891611ec7565b60608201516001600160a01b03166000908152600460205260409020555b6101a081015160ff166003148061217557506101a081015160ff166004145b156122605760025481516040805163e875a61360e01b81526004810192909252516000926001600160a01b03169163e875a613916024808301926020929190829003018186803b1580156121c857600080fd5b505afa1580156121dc573d6000803e3d6000fd5b505050506040513d60208110156121f257600080fd5b505160808301516001600160a01b0380831660009081526005602090815260408083206060890151909416835292905220549192506122319190611ec7565b6001600160a01b0391821660009081526005602090815260408083206060870151909516835293905291909120555b6080810151610120820151612274916132f6565b610120820152600254602082015160408051633aaa4a8b60e11b81526004810192909252516001600160a01b039092169163755495169160248082019260009290919082900301818387803b1580156122cc57600080fd5b505af11580156122e0573d6000803e3d6000fd5b5050505080602001516000805160206137d883398151915282604001518360800151600060405180846001600160a01b0316815260200183815260200182600281111561232957fe5b8152602001935050505060405180910390a250565b6101a081015160ff166001148061235d57506101a081015160ff166002145b156123ab57608081015160608201516001600160a01b031660009081526004602052604090205461238d91611ec7565b60608201516001600160a01b03166000908152600460205260409020555b6101a081015160ff16600314806123ca57506101a081015160ff166004145b156124b55760025481516040805163e875a61360e01b81526004810192909252516000926001600160a01b03169163e875a613916024808301926020929190829003018186803b15801561241d57600080fd5b505afa158015612431573d6000803e3d6000fd5b505050506040513d602081101561244757600080fd5b505160808301516001600160a01b0380831660009081526005602090815260408083206060890151909416835292905220549192506124869190611ec7565b6001600160a01b0391821660009081526005602090815260408083206060870151909516835293905291909120555b60808101516101608201516124c9916132f6565b610160820152600254602082015160408051633aaa4a8b60e11b81526004810192909252516001600160a01b039092169163755495169160248082019260009290919082900301818387803b15801561252157600080fd5b505af1158015612535573d6000803e3d6000fd5b5050505080602001516000805160206137d883398151915282606001518360800151600060405180846001600160a01b0316815260200183815260200182600281111561232957fe5b6000612594826101c001516000015160026119db565b1561288b576101a082015160ff16600114806125b857506101a082015160ff166003145b156126025760a08201516040808401516001600160a01b03166000908152600460205220546125e691611ec7565b6040808401516001600160a01b03166000908152600460205220555b6101a082015160ff166002148061262157506101a082015160ff166004145b1561270a57600254825160408051639a751bbd60e01b81526004810192909252516000926001600160a01b031691639a751bbd916024808301926020929190829003018186803b15801561267457600080fd5b505afa158015612688573d6000803e3d6000fd5b505050506040513d602081101561269e57600080fd5b505160a08401516001600160a01b038083166000908152600560209081526040808320818a0151909416835292905220549192506126dc9190611ec7565b6001600160a01b03918216600090815260056020908152604080832087820151909516835293905291909120555b60a082015161271a90600261334e565b61018083015190915061272d90826132f6565b61018083015261274d61274182600261334e565b610140840151906132f6565b61014083015261278561277961276483600261334e565b60a08501516127739085611ec7565b90611ec7565b610100840151906132f6565b610100830152602080830151606080850151604080516001600160a01b039092168252938101859052600181850152925191926000805160206137d8833981519152929081900390910190a2602082015160408301516000805160206137d8833981519152906127f684600261334e565b604080516001600160a01b039390931683526020830191909152600182820152519081900360600190a281602001516000805160206137d883398151915261283c611415565b61285961284a85600261334e565b60a08701516127739087611ec7565b604080516001600160a01b039390931683526020830191909152600182820152519081900360600190a2506000612a42565b6101a082015160ff16600114806128aa57506101a082015160ff166003145b156128f85760a08201516040808401516001600160a01b03166000908152600460205220546128d891611ec7565b6040808401516001600160a01b03166000908152600460205220556129dc565b600254825160408051639a751bbd60e01b81526004810192909252516000926001600160a01b031691639a751bbd916024808301926020929190829003018186803b15801561294657600080fd5b505afa15801561295a573d6000803e3d6000fd5b505050506040513d602081101561297057600080fd5b505160a08401516001600160a01b038083166000908152600560209081526040808320818a0151909416835292905220549192506129ae9190611ec7565b6001600160a01b03918216600090815260056020908152604080832087820151909516835293905291909120555b60a08201516101008301516129f0916132f6565b61010083015260208201516000805160206137d8833981519152612a12611415565b60a0850151604080516001600160a01b039390931683526020830191909152600182820152519081900360600190a25b5050565b6101a081015160ff1660011480612a6557506101a081015160ff166003145b15612aaf5760a08101516040808301516001600160a01b0316600090815260046020522054612a9391611ec7565b6040808301516001600160a01b03166000908152600460205220555b6101a081015160ff1660021480612ace57506101a081015160ff166004145b15612bb757600254815160408051639a751bbd60e01b81526004810192909252516000926001600160a01b031691639a751bbd916024808301926020929190829003018186803b158015612b2157600080fd5b505afa158015612b35573d6000803e3d6000fd5b505050506040513d6020811015612b4b57600080fd5b505160a08301516001600160a01b0380831660009081526005602090815260408083208189015190941683529290522054919250612b899190611ec7565b6001600160a01b03918216600090815260056020908152604080832086820151909516835293905291909120555b60a0810151612bd790612bcb90600261334e565b610140830151906132f6565b61014082015260a0810151612c0c90612c0090612bf590600261334e565b60a084015190611ec7565b610180830151906132f6565b6101808201526020810151604082015160a08301516000805160206137d88339815191529190612c3d90600261334e565b604080516001600160a01b039390931683526020830191909152600182820152519081900360600190a280602001516000805160206137d88339815191528260600151612ca6612c9b60028660a0015161334e90919063ffffffff16565b60a086015190611ec7565b604080516001600160a01b038416815260208101839052600191810182612329565b6101a081015160ff1660011480612ce757506101a081015160ff166003145b15612d315760a08101516040808301516001600160a01b0316600090815260046020522054612d1591611ec7565b6040808301516001600160a01b03166000908152600460205220555b6101a081015160ff1660021480612d5057506101a081015160ff166004145b15612e3957600254815160408051639a751bbd60e01b81526004810192909252516000926001600160a01b031691639a751bbd916024808301926020929190829003018186803b158015612da357600080fd5b505afa158015612db7573d6000803e3d6000fd5b505050506040513d6020811015612dcd57600080fd5b505160a08301516001600160a01b0380831660009081526005602090815260408083208189015190941683529290522054919250612e0b9190611ec7565b6001600160a01b03918216600090815260056020908152604080832086820151909516835293905291909120555b60a0810151610140820151612e4d916132f6565b8161014001818152505080602001516000805160206137d883398151915282604001518360a00151600160405180846001600160a01b0316815260200183815260200182600281111561232957fe5b6101a081015160ff1660011480612ebb57506101a081015160ff166003145b15612f095760c081015160608201516001600160a01b0316600090815260046020526040902054612eeb91611ec7565b60608201516001600160a01b03166000908152600460205260409020555b6101a081015160ff1660021480612f2857506101a081015160ff166004145b1561301357600254815160408051639a751bbd60e01b81526004810192909252516000926001600160a01b031691639a751bbd916024808301926020929190829003018186803b158015612f7b57600080fd5b505afa158015612f8f573d6000803e3d6000fd5b505050506040513d6020811015612fa557600080fd5b505160c08301516001600160a01b038083166000908152600560209081526040808320606089015190941683529290522054919250612fe49190611ec7565b6001600160a01b0391821660009081526005602090815260408083206060870151909516835293905291909120555b60c0810151610180820151613027916132f6565b610180820152602080820151606083015160c0840151604080516001600160a01b038416815294850182905292936000805160206137d88339815191529360029190810182612329565b6101a081015160ff166001148061309057506101a081015160ff166003145b156130de5760c081015160608201516001600160a01b03166000908152600460205260409020546130c091611ec7565b60608201516001600160a01b03166000908152600460205260409020555b6101a081015160ff16600214806130fd57506101a081015160ff166004145b156131e857600254815160408051639a751bbd60e01b81526004810192909252516000926001600160a01b031691639a751bbd916024808301926020929190829003018186803b15801561315057600080fd5b505afa158015613164573d6000803e3d6000fd5b505050506040513d602081101561317a57600080fd5b505160c08301516001600160a01b0380831660009081526005602090815260408083206060890151909416835292905220549192506131b99190611ec7565b6001600160a01b0391821660009081526005602090815260408083206060870151909516835293905291909120555b60c08101516101008201516131fc916132f6565b61010082015260208101516000805160206137d883398151915261321e611415565b60c0840151604080516001600160a01b038416815260208101839052600291810182612329565b606061329a826040518060400160405280602081526020017f5361666545524332303a206c6f772d6c6576656c2063616c6c206661696c6564815250856001600160a01b03166133b29092919063ffffffff16565b805190915015612009578080602001905160208110156132b957600080fd5b50516120095760405162461bcd60e51b815260040180806020018281038252602a8152602001806137f8602a913960400191505060405180910390fd5b600082820183811015611ec0576040805162461bcd60e51b815260206004820152601b60248201527a536166654d6174683a206164646974696f6e206f766572666c6f7760281b604482015290519081900360640190fd5b60008082116133a1576040805162461bcd60e51b815260206004820152601a602482015279536166654d6174683a206469766973696f6e206279207a65726f60301b604482015290519081900360640190fd5b8183816133aa57fe5b049392505050565b60606133c184846000856133c9565b949350505050565b60608247101561340a5760405162461bcd60e51b81526004018080602001828103825260268152602001806137516026913960400191505060405180910390fd5b61341385613525565b613464576040805162461bcd60e51b815260206004820152601d60248201527f416464726573733a2063616c6c20746f206e6f6e2d636f6e7472616374000000604482015290519081900360640190fd5b60006060866001600160a01b031685876040518082805190602001908083835b602083106134a35780518252601f199092019160209182019101613484565b6001836020036101000a03801982511681845116808217855250505050505090500191505060006040518083038185875af1925050503d8060008114613505576040519150601f19603f3d011682016040523d82523d6000602084013e61350a565b606091505b509150915061351a82828661352b565b979650505050505050565b3b151590565b6060831561353a575081611ec0565b82511561354a5782518084602001fd5b8160405162461bcd60e51b81526004018080602001828103825283818151815260200191508051906020019080838360005b8381101561359457818101518382015260200161357c565b50505050905090810190601f1680156135c15780820380516001836020036101000a031916815260200191505b509250505060405180910390fd5b604051806101e00160405280600081526020016000815260200160006001600160a01b0316815260200160006001600160a01b03168152602001600081526020016000815260200160008152602001600081526020016000815260200160008152602001600081526020016000815260200160008152602001600060ff16815260200161365a61365f565b905290565b6040805160a0810182526000808252602082018190529181018290526060810182905260808101919091529056fe5265656e7472616e637947756172643a207265656e7472616e742063616c6c004f776e61626c653a206e6577206f776e657220697320746865207a65726f20616464726573734f776e657220646964206e6f7420616c6c6f77206d616e75616c2077697468647261770ec497a8ae5b1ba29c60470ef651def995fac3deebbdcc56c47a4e5f51a4c2bd416464726573733a20756e61626c6520746f2073656e642076616c75652c20726563697069656e74206d61792068617665207265766572746564416464726573733a20696e73756666696369656e742062616c616e636520666f722063616c6c536166654d6174683a206d756c7469706c69636174696f6e206f766572666c6f774f776e61626c653a2063616c6c6572206973206e6f7420746865206f776e65728be0079c531659141344cd1fd0a4f28419497f9722a3daafe3b4186f6b6457e0e6e743e535fe193128a1e1839b7c1f313bb203d9cbb58e4c955d5e9a8a8f0fc25361666545524332303a204552433230206f7065726174696f6e20646964206e6f742073756363656564a2646970667358221220b697bdd6e8388ccb8f74a8552f7a71d62f24d3b67f62a8fc387d6c7a2323e85664736f6c63430007010033",
  "immutableReferences": {},
  "source": "// SPDX-License-Identifier: LGPL-3.0-or-later\r\npragma solidity 0.7.1;\r\n\r\nimport \"@openzeppelin/contracts/utils/ReentrancyGuard.sol\";\r\nimport \"@openzeppelin/contracts/token/ERC20/SafeERC20.sol\";\r\nimport \"@openzeppelin/contracts/math/SafeMath.sol\";\r\nimport \"@openzeppelin/contracts/access/Ownable.sol\";\r\nimport \"@openzeppelin/contracts/utils/Pausable.sol\";\r\nimport \"@openzeppelin/contracts/utils/Address.sol\";\r\nimport \"@openzeppelin/contracts/token/ERC20/IERC20.sol\";\r\nimport \"./interfaces/IVoucherKernel.sol\";\r\nimport \"./interfaces/ICashier.sol\";\r\nimport \"./UsingHelpers.sol\";\r\n\r\n/**\r\n * @title Contract for managing funds\r\n * Roughly following OpenZeppelin's Escrow at https://github.com/OpenZeppelin/openzeppelin-solidity/contracts/payment/\r\n */\r\ncontract Cashier is ICashier, UsingHelpers, ReentrancyGuard, Ownable, Pausable {\r\n    using SafeERC20 for IERC20;\r\n    using Address for address payable;\r\n    using SafeMath for uint256;\r\n\r\n    address public voucherKernel;\r\n    address public bosonRouterAddress;\r\n    bool public disasterState;\r\n\r\n    enum PaymentType {PAYMENT, DEPOSIT_SELLER, DEPOSIT_BUYER}\r\n\r\n    mapping(address => uint256) public escrow; // both types of deposits AND payments >> can be released token-by-token if checks pass\r\n    // slashedDepositPool can be obtained through getEscrowAmount(poolAddress)\r\n    mapping(address => mapping(address => uint256)) public escrowTokens; //token address => mgsSender => amount\r\n\r\n    uint256 internal constant CANCELFAULT_SPLIT = 2; //for POC purposes, this is hardcoded; e.g. each party gets depositSe / 2\r\n\r\n    event LogBosonRouterSet(address _newBosonRouter, address _triggeredBy);\r\n\r\n    event LogWithdrawal(address _caller, address _payee, uint256 _payment);\r\n\r\n    event LogAmountDistribution(\r\n        uint256 indexed _tokenIdVoucher,\r\n        address _to,\r\n        uint256 _payment,\r\n        PaymentType _type\r\n    );\r\n\r\n    event LogDisasterStateSet(bool _disasterState, address _triggeredBy);\r\n    event LogWithdrawEthOnDisaster(uint256 _amount, address _triggeredBy);\r\n    event LogWithdrawTokensOnDisaster(\r\n        uint256 _amount,\r\n        address _tokenAddress,\r\n        address _triggeredBy\r\n    );\r\n\r\n    modifier onlyFromRouter() {\r\n        require(bosonRouterAddress != address(0), \"UNSPECIFIED_BR\"); // hex\"20\" FISSION.code(FISSION.Category.Find, FISSION.Status.NotFound_Unequal_OutOfRange)\r\n        require(msg.sender == bosonRouterAddress, \"UNAUTHORIZED_BR\"); // hex\"10\" FISSION.code(FISSION.Category.Permission, FISSION.Status.Disallowed_Stop)\r\n        _;\r\n    }\r\n\r\n    modifier notZeroAddress(address tokenAddress) {\r\n        require(tokenAddress != address(0), \"INVALID_TOKEN_ADDRESS\");\r\n        _;\r\n    }\r\n\r\n    constructor(address _voucherKernel) {\r\n        voucherKernel = _voucherKernel;\r\n        disasterState = false;\r\n    }\r\n\r\n    /**\r\n     * @notice Pause the process of interaction with voucherID's (ERC-721), in case of emergency.\r\n     * Only BR contract is in control of this function.\r\n     */\r\n    function pause() external override onlyFromRouter {\r\n        _pause();\r\n    }\r\n\r\n    /**\r\n     * @notice Unpause the process of interaction with voucherID's (ERC-721).\r\n     * Only BR contract is in control of this function.\r\n     */\r\n    function unpause() external override onlyFromRouter {\r\n        _unpause();\r\n    }\r\n\r\n    /**\r\n     * @notice If once disaster state has been set to true, the contract could never be unpaused.\r\n     */\r\n    function canUnpause() external view override returns (bool) {\r\n        return !disasterState;\r\n    }\r\n\r\n    /**\r\n     * @notice Once this functions is triggered, contracts cannot be unpaused anymore\r\n     * Only BR contract is in control of this function.\r\n     */\r\n    function setDisasterState() external onlyOwner whenPaused {\r\n        disasterState = true;\r\n        LogDisasterStateSet(disasterState, msg.sender);\r\n    }\r\n\r\n    /**\r\n     * @notice In case of a disaster this function allow the caller to withdraw all pooled funds kept in the escrow for the address provided. Funds are sent in ETH\r\n     */\r\n    function withdrawEthOnDisaster() external whenPaused nonReentrant {\r\n        require(disasterState, \"Owner did not allow manual withdraw\");\r\n\r\n        uint256 amount = escrow[msg.sender];\r\n\r\n        require(amount > 0, \"ESCROW_EMPTY\");\r\n        escrow[msg.sender] = 0;\r\n        msg.sender.sendValue(amount);\r\n\r\n        LogWithdrawEthOnDisaster(amount, msg.sender);\r\n    }\r\n\r\n    /**\r\n     * @notice In case of a disaster this function allow the caller to withdraw all pooled funds kept in the escrowTokens for the address provided.\r\n     * @param token address of a token, that the caller sent the funds, while interacting with voucher or voucher-set\r\n     */\r\n    function withdrawTokensOnDisaster(address token)\r\n        external\r\n        whenPaused\r\n        nonReentrant\r\n        notZeroAddress(token)\r\n    {\r\n        require(disasterState, \"Owner did not allow manual withdraw\");\r\n\r\n        uint256 amount = escrowTokens[token][msg.sender];\r\n        require(amount > 0, \"ESCROW_EMPTY\");\r\n        escrowTokens[token][msg.sender] = 0;\r\n\r\n        SafeERC20.safeTransfer(IERC20(token), msg.sender, amount);\r\n        LogWithdrawTokensOnDisaster(amount, token, msg.sender);\r\n    }\r\n\r\n    /**\r\n     * @notice Trigger withdrawals of what funds are releasable\r\n     * The caller of this function triggers transfers to all involved entities (pool, issuer, token holder), also paying for gas.\r\n     * @dev This function would be optimized a lot, here verbose for readability.\r\n     * @param _tokenIdVoucher  ID of a voucher token (ERC-721) to try withdraw funds from\r\n     */\r\n    function withdraw(uint256 _tokenIdVoucher)\r\n        external\r\n        override\r\n        nonReentrant\r\n        whenNotPaused\r\n    {\r\n        VoucherDetails memory voucherDetails;\r\n\r\n        require(_tokenIdVoucher != 0, \"UNSPECIFIED_ID\"); //hex\"20\" FISSION.code(FISSION.Category.Find, FISSION.Status.NotFound_Unequal_OutOfRange)\r\n\r\n        voucherDetails.tokenIdVoucher = _tokenIdVoucher;\r\n        voucherDetails.tokenIdSupply = IVoucherKernel(voucherKernel)\r\n            .getIdSupplyFromVoucher(voucherDetails.tokenIdVoucher);\r\n        voucherDetails.paymentMethod = IVoucherKernel(voucherKernel)\r\n            .getVoucherPaymentMethod(voucherDetails.tokenIdSupply);\r\n\r\n        require(\r\n            voucherDetails.paymentMethod > 0 &&\r\n                voucherDetails.paymentMethod <= 4,\r\n            \"INVALID PAYMENT METHOD\"\r\n        );\r\n\r\n        (\r\n            voucherDetails.currStatus.status,\r\n            voucherDetails.currStatus.isPaymentReleased,\r\n            voucherDetails.currStatus.isDepositsReleased\r\n        ) = IVoucherKernel(voucherKernel).getVoucherStatus(\r\n            voucherDetails.tokenIdVoucher\r\n        );\r\n\r\n        (\r\n            voucherDetails.price,\r\n            voucherDetails.depositSe,\r\n            voucherDetails.depositBu\r\n        ) = IVoucherKernel(voucherKernel).getOrderCosts(\r\n            voucherDetails.tokenIdSupply\r\n        );\r\n\r\n        voucherDetails.issuer = payable(\r\n            IVoucherKernel(voucherKernel).getSupplyHolder(\r\n                voucherDetails.tokenIdSupply\r\n            )\r\n        );\r\n        voucherDetails.holder = payable(\r\n            IVoucherKernel(voucherKernel).getVoucherHolder(\r\n                voucherDetails.tokenIdVoucher\r\n            )\r\n        );\r\n\r\n        //process the RELEASE OF PAYMENTS - only depends on the redeemed/not-redeemed, a voucher need not be in the final status\r\n        if (!voucherDetails.currStatus.isPaymentReleased) {\r\n            releasePayments(voucherDetails);\r\n        }\r\n\r\n        //process the RELEASE OF DEPOSITS - only when vouchers are in the FINAL status\r\n        if (\r\n            !voucherDetails.currStatus.isDepositsReleased &&\r\n            isStatus(voucherDetails.currStatus.status, IDX_FINAL)\r\n        ) {\r\n            releaseDeposits(voucherDetails);\r\n        }\r\n\r\n        if (voucherDetails.deposit2pool > 0) {\r\n            _withdrawDeposits(\r\n                owner(),\r\n                voucherDetails.deposit2pool,\r\n                voucherDetails.paymentMethod,\r\n                voucherDetails.tokenIdSupply\r\n            );\r\n        }\r\n\r\n        if (voucherDetails.price2issuer > 0) {\r\n            _withdrawPayments(\r\n                voucherDetails.issuer,\r\n                voucherDetails.price2issuer,\r\n                voucherDetails.paymentMethod,\r\n                voucherDetails.tokenIdSupply\r\n            );\r\n        }\r\n\r\n        if (voucherDetails.deposit2issuer > 0) {\r\n            _withdrawDeposits(\r\n                voucherDetails.issuer,\r\n                voucherDetails.deposit2issuer,\r\n                voucherDetails.paymentMethod,\r\n                voucherDetails.tokenIdSupply\r\n            );\r\n        }\r\n\r\n        if (voucherDetails.price2holder > 0) {\r\n            _withdrawPayments(\r\n                voucherDetails.holder,\r\n                voucherDetails.price2holder,\r\n                voucherDetails.paymentMethod,\r\n                voucherDetails.tokenIdSupply\r\n            );\r\n        }\r\n\r\n        if (voucherDetails.deposit2holder > 0) {\r\n            _withdrawDeposits(\r\n                voucherDetails.holder,\r\n                voucherDetails.deposit2holder,\r\n                voucherDetails.paymentMethod,\r\n                voucherDetails.tokenIdSupply\r\n            );\r\n        }\r\n\r\n        delete voucherDetails;\r\n    }\r\n\r\n    /**\r\n     * @notice Release of payments, for a voucher which payments had not been released already.\r\n     * Based on the voucher status(e.g. redeemed, refunded, etc), the voucher price will be sent to either buyer or seller.\r\n     * @param voucherDetails keeps all required information of the voucher which the payment should be released for.\r\n     */\r\n    function releasePayments(VoucherDetails memory voucherDetails) internal {\r\n        if (isStatus(voucherDetails.currStatus.status, IDX_REDEEM)) {\r\n            releasePaymentToSeller(voucherDetails);\r\n        } else if (\r\n            isStatus(voucherDetails.currStatus.status, IDX_REFUND) ||\r\n            isStatus(voucherDetails.currStatus.status, IDX_EXPIRE) ||\r\n            (isStatus(voucherDetails.currStatus.status, IDX_CANCEL_FAULT) &&\r\n                !isStatus(voucherDetails.currStatus.status, IDX_REDEEM))\r\n        ) {\r\n            releasePaymentToBuyer(voucherDetails);\r\n        }\r\n    }\r\n\r\n    /**\r\n     * @notice Following function `releasePayments`, if certain conditions for the voucher status are met, the voucher price will be sent to the seller\r\n     * @param voucherDetails keeps all required information of the voucher which the payment should be released for.\r\n     */\r\n    function releasePaymentToSeller(VoucherDetails memory voucherDetails)\r\n        internal\r\n    {\r\n        if (\r\n            voucherDetails.paymentMethod == ETHETH ||\r\n            voucherDetails.paymentMethod == ETHTKN\r\n        ) {\r\n            escrow[voucherDetails.holder] = escrow[voucherDetails.holder].sub(voucherDetails.price);\r\n        }\r\n        if (\r\n            voucherDetails.paymentMethod == TKNETH ||\r\n            voucherDetails.paymentMethod == TKNTKN\r\n        ) {\r\n            address addressTokenPrice =\r\n                IVoucherKernel(voucherKernel).getVoucherPriceToken(\r\n                    voucherDetails.tokenIdSupply\r\n                );\r\n\r\n            escrowTokens[addressTokenPrice][\r\n                voucherDetails.holder\r\n            ] = escrowTokens[addressTokenPrice][\r\n                voucherDetails.holder\r\n            ].sub(voucherDetails.price);\r\n        }\r\n\r\n        voucherDetails.price2issuer = voucherDetails.price2issuer.add(voucherDetails.price);\r\n\r\n        IVoucherKernel(voucherKernel).setPaymentReleased(\r\n            voucherDetails.tokenIdVoucher\r\n        );\r\n\r\n        LogAmountDistribution(\r\n            voucherDetails.tokenIdVoucher,\r\n            voucherDetails.issuer,\r\n            voucherDetails.price,\r\n            PaymentType.PAYMENT\r\n        );\r\n    }\r\n\r\n    /**\r\n     * @notice Following function `releasePayments`, if certain conditions for the voucher status are met, the voucher price will be sent to the buyer\r\n     * @param voucherDetails keeps all required information of the voucher, which the payment should be released for.\r\n     */\r\n    function releasePaymentToBuyer(VoucherDetails memory voucherDetails)\r\n        internal\r\n    {\r\n        if (\r\n            voucherDetails.paymentMethod == ETHETH ||\r\n            voucherDetails.paymentMethod == ETHTKN\r\n        ) {\r\n            escrow[voucherDetails.holder] = escrow[voucherDetails.holder].sub(voucherDetails.price);\r\n        }\r\n\r\n        if (\r\n            voucherDetails.paymentMethod == TKNETH ||\r\n            voucherDetails.paymentMethod == TKNTKN\r\n        ) {\r\n            address addressTokenPrice =\r\n                IVoucherKernel(voucherKernel).getVoucherPriceToken(\r\n                    voucherDetails.tokenIdSupply\r\n                );\r\n\r\n            escrowTokens[addressTokenPrice][\r\n                voucherDetails.holder\r\n            ] = escrowTokens[addressTokenPrice][\r\n                voucherDetails.holder\r\n            ].sub(voucherDetails.price);\r\n        }\r\n\r\n        voucherDetails.price2holder = voucherDetails.price2holder.add(voucherDetails.price);\r\n\r\n        IVoucherKernel(voucherKernel).setPaymentReleased(\r\n            voucherDetails.tokenIdVoucher\r\n        );\r\n\r\n        LogAmountDistribution(\r\n            voucherDetails.tokenIdVoucher,\r\n            voucherDetails.holder,\r\n            voucherDetails.price,\r\n            PaymentType.PAYMENT\r\n        );\r\n    }\r\n\r\n    /**\r\n     * @notice Release of deposits, for a voucher which deposits had not been released already, and had been marked as `finalized`\r\n     * Based on the voucher status(e.g. complained, redeemed, refunded, etc), the voucher deposits will be sent to either buyer, seller, or pool owner.\r\n     * Depending on the payment type (e.g ETH, or Token) escrow funds will be held in the `escrow` || escrowTokens mappings\r\n     * @param voucherDetails keeps all required information of the voucher which the deposits should be released for.\r\n    */\r\n    function releaseDeposits(VoucherDetails memory voucherDetails) internal {\r\n        //first, depositSe\r\n        if (isStatus(voucherDetails.currStatus.status, IDX_COMPLAIN)) {\r\n            //slash depositSe\r\n            distributeIssuerDepositOnHolderComplain(voucherDetails);\r\n        } else {\r\n            if (isStatus(voucherDetails.currStatus.status, IDX_CANCEL_FAULT)) {\r\n                //slash depositSe\r\n                distributeIssuerDepositOnIssuerCancel(voucherDetails);\r\n            } else {\r\n                //release depositSe\r\n                distributeFullIssuerDeposit(voucherDetails);\r\n            }\r\n        }\r\n\r\n        //second, depositBu\r\n        if (\r\n            isStatus(voucherDetails.currStatus.status, IDX_REDEEM) ||\r\n            isStatus(voucherDetails.currStatus.status, IDX_CANCEL_FAULT)\r\n        ) {\r\n            //release depositBu\r\n            distributeFullHolderDeposit(voucherDetails);\r\n        } else {\r\n            //slash depositBu\r\n            distributeHolderDepositOnNotRedeemedNotCancelled(voucherDetails);\r\n        }\r\n\r\n        IVoucherKernel(voucherKernel).setDepositsReleased(\r\n            voucherDetails.tokenIdVoucher\r\n        );\r\n    }\r\n\r\n    /**\r\n     * @notice Following function `releaseDeposits` this function will be triggered if a voucher had been complained by the buyer.\r\n     * Also checks if the voucher had been cancelled\r\n     * @param voucherDetails keeps all required information of the voucher which the payment should be released for.\r\n    */\r\n    function distributeIssuerDepositOnHolderComplain(\r\n        VoucherDetails memory voucherDetails\r\n    ) internal {\r\n        uint256 tFraction;\r\n\r\n        if (isStatus(voucherDetails.currStatus.status, IDX_CANCEL_FAULT)) {\r\n            //appease the conflict three-ways\r\n            if (\r\n                voucherDetails.paymentMethod == ETHETH ||\r\n                voucherDetails.paymentMethod == TKNETH\r\n            ) {\r\n                escrow[voucherDetails.issuer] = escrow[voucherDetails.issuer].sub(voucherDetails.depositSe);\r\n            }\r\n\r\n            if (\r\n                voucherDetails.paymentMethod == ETHTKN ||\r\n                voucherDetails.paymentMethod == TKNTKN\r\n            ) {\r\n                address addressTokenDeposits =\r\n                    IVoucherKernel(voucherKernel).getVoucherDepositToken(\r\n                        voucherDetails.tokenIdSupply\r\n                    );\r\n\r\n                escrowTokens[addressTokenDeposits][\r\n                    voucherDetails.issuer\r\n                ] = escrowTokens[addressTokenDeposits][\r\n                    voucherDetails.issuer\r\n                ].sub(voucherDetails.depositSe);\r\n            }\r\n\r\n            tFraction = voucherDetails.depositSe.div(CANCELFAULT_SPLIT);\r\n            voucherDetails.deposit2holder = voucherDetails.deposit2holder.add(tFraction); //Bu gets, say, a half\r\n            voucherDetails.deposit2issuer = voucherDetails.deposit2issuer.add(tFraction.div(CANCELFAULT_SPLIT)); //Se gets, say, a quarter\r\n            voucherDetails.deposit2pool = voucherDetails.deposit2pool.add(\r\n                (voucherDetails.depositSe.sub(tFraction)).sub(tFraction.div(CANCELFAULT_SPLIT))\r\n            ); //slashing the rest\r\n\r\n            LogAmountDistribution(\r\n                voucherDetails.tokenIdVoucher,\r\n                voucherDetails.holder,\r\n                tFraction,\r\n                PaymentType.DEPOSIT_SELLER\r\n            );\r\n            LogAmountDistribution(\r\n                voucherDetails.tokenIdVoucher,\r\n                voucherDetails.issuer,\r\n                tFraction.div(CANCELFAULT_SPLIT),\r\n                PaymentType.DEPOSIT_SELLER\r\n            );\r\n            LogAmountDistribution(\r\n                voucherDetails.tokenIdVoucher,\r\n                owner(),\r\n                (voucherDetails.depositSe.sub(tFraction)).sub(tFraction.div(CANCELFAULT_SPLIT)),\r\n                PaymentType.DEPOSIT_SELLER\r\n            );\r\n\r\n            tFraction = 0;\r\n        } else {\r\n            //slash depositSe\r\n            if (\r\n                voucherDetails.paymentMethod == ETHETH ||\r\n                voucherDetails.paymentMethod == TKNETH\r\n            ) {\r\n                escrow[voucherDetails.issuer] = escrow[voucherDetails.issuer].sub(voucherDetails.depositSe);\r\n            } else {\r\n                address addressTokenDeposits =\r\n                    IVoucherKernel(voucherKernel).getVoucherDepositToken(\r\n                        voucherDetails.tokenIdSupply\r\n                    );\r\n\r\n                escrowTokens[addressTokenDeposits][\r\n                    voucherDetails.issuer\r\n                ] = escrowTokens[addressTokenDeposits][\r\n                    voucherDetails.issuer\r\n                ].sub(voucherDetails.depositSe);\r\n            }\r\n\r\n            voucherDetails.deposit2pool = voucherDetails.deposit2pool.add(voucherDetails.depositSe);\r\n\r\n            LogAmountDistribution(\r\n                voucherDetails.tokenIdVoucher,\r\n                owner(),\r\n                voucherDetails.depositSe,\r\n                PaymentType.DEPOSIT_SELLER\r\n            );\r\n        }\r\n    }\r\n\r\n    /**\r\n     * @notice Following function `releaseDeposits` this function will be triggered if a voucher had been cancelled by the seller.\r\n     * Will be triggered if the voucher had not been complained.\r\n     * @param voucherDetails keeps all required information of the voucher which the deposits should be released for.\r\n    */\r\n    function distributeIssuerDepositOnIssuerCancel(\r\n        VoucherDetails memory voucherDetails\r\n    ) internal {\r\n        if (\r\n            voucherDetails.paymentMethod == ETHETH ||\r\n            voucherDetails.paymentMethod == TKNETH\r\n        ) {\r\n            escrow[voucherDetails.issuer] = escrow[voucherDetails.issuer].sub(voucherDetails.depositSe);\r\n        }\r\n\r\n        if (\r\n            voucherDetails.paymentMethod == ETHTKN ||\r\n            voucherDetails.paymentMethod == TKNTKN\r\n        ) {\r\n            address addressTokenDeposits =\r\n                IVoucherKernel(voucherKernel).getVoucherDepositToken(\r\n                    voucherDetails.tokenIdSupply\r\n                );\r\n\r\n            escrowTokens[addressTokenDeposits][\r\n                voucherDetails.issuer\r\n            ] = escrowTokens[addressTokenDeposits][\r\n                voucherDetails.issuer\r\n            ].sub(voucherDetails.depositSe);\r\n        }\r\n\r\n        voucherDetails.deposit2issuer = voucherDetails.deposit2issuer.add(voucherDetails.depositSe.div(\r\n            CANCELFAULT_SPLIT\r\n        ));\r\n\r\n        voucherDetails.deposit2holder = voucherDetails.deposit2holder.add(voucherDetails.depositSe.sub(voucherDetails.depositSe.div(CANCELFAULT_SPLIT)));\r\n\r\n        LogAmountDistribution(\r\n            voucherDetails.tokenIdVoucher,\r\n            voucherDetails.issuer,\r\n            voucherDetails.depositSe.div(CANCELFAULT_SPLIT),\r\n            PaymentType.DEPOSIT_SELLER\r\n        );\r\n\r\n        LogAmountDistribution(\r\n            voucherDetails.tokenIdVoucher,\r\n            voucherDetails.holder,\r\n            voucherDetails.depositSe.sub(voucherDetails.depositSe.div(CANCELFAULT_SPLIT)),\r\n            PaymentType.DEPOSIT_SELLER\r\n        );\r\n    }\r\n\r\n    /**\r\n     * @notice Following function `releaseDeposits` this function will be triggered if no complain, nor cancel had been made.\r\n     * All seller deposit is returned to seller.\r\n     * @param voucherDetails keeps all required information of the voucher which the deposits should be released for.\r\n    */\r\n    function distributeFullIssuerDeposit(VoucherDetails memory voucherDetails)\r\n        internal\r\n    {\r\n        if (\r\n            voucherDetails.paymentMethod == ETHETH ||\r\n            voucherDetails.paymentMethod == TKNETH\r\n        ) {\r\n            escrow[voucherDetails.issuer] = escrow[voucherDetails.issuer].sub(voucherDetails.depositSe);\r\n        }\r\n\r\n        if (\r\n            voucherDetails.paymentMethod == ETHTKN ||\r\n            voucherDetails.paymentMethod == TKNTKN\r\n        ) {\r\n            address addressTokenDeposits =\r\n                IVoucherKernel(voucherKernel).getVoucherDepositToken(\r\n                    voucherDetails.tokenIdSupply\r\n                );\r\n\r\n            escrowTokens[addressTokenDeposits][\r\n                voucherDetails.issuer\r\n            ] = escrowTokens[addressTokenDeposits][\r\n                voucherDetails.issuer\r\n            ].sub(voucherDetails.depositSe);\r\n        }\r\n\r\n        voucherDetails.deposit2issuer = voucherDetails.deposit2issuer.add(voucherDetails.depositSe);\r\n\r\n        LogAmountDistribution(\r\n            voucherDetails.tokenIdVoucher,\r\n            voucherDetails.issuer,\r\n            voucherDetails.depositSe,\r\n            PaymentType.DEPOSIT_SELLER\r\n        );\r\n    }\r\n\r\n    /**\r\n     * @notice Following function `releaseDeposits` this function will be triggered if voucher had been redeemed, or the seller had cancelled.\r\n     * All buyer deposit is returned to buyer.\r\n     * @param voucherDetails keeps all required information of the voucher which the deposits should be released for.\r\n    */\r\n    function distributeFullHolderDeposit(VoucherDetails memory voucherDetails)\r\n        internal\r\n    {\r\n        if (\r\n            voucherDetails.paymentMethod == ETHETH ||\r\n            voucherDetails.paymentMethod == TKNETH\r\n        ) {\r\n            escrow[voucherDetails.holder] = escrow[voucherDetails.holder].sub(voucherDetails.depositBu);\r\n        }\r\n\r\n        if (\r\n            voucherDetails.paymentMethod == ETHTKN ||\r\n            voucherDetails.paymentMethod == TKNTKN\r\n        ) {\r\n            address addressTokenDeposits =\r\n                IVoucherKernel(voucherKernel).getVoucherDepositToken(\r\n                    voucherDetails.tokenIdSupply\r\n                );\r\n\r\n            escrowTokens[addressTokenDeposits][\r\n                voucherDetails.holder\r\n            ] = escrowTokens[addressTokenDeposits][\r\n                voucherDetails.holder\r\n            ].sub(voucherDetails.depositBu);\r\n        }\r\n\r\n        voucherDetails.deposit2holder = voucherDetails.deposit2holder.add(voucherDetails.depositBu);\r\n\r\n        LogAmountDistribution(\r\n            voucherDetails.tokenIdVoucher,\r\n            voucherDetails.holder,\r\n            voucherDetails.depositBu,\r\n            PaymentType.DEPOSIT_BUYER\r\n        );\r\n    }\r\n\r\n    /**\r\n     * @notice Following function `releaseDeposits` this function will be triggered if voucher had not been redeemed or cancelled after finalization.\r\n     * @param voucherDetails keeps all required information of the voucher which the deposits should be released for.\r\n     * All buyer deposit goes to Boson.\r\n    */\r\n    function distributeHolderDepositOnNotRedeemedNotCancelled(\r\n        VoucherDetails memory voucherDetails\r\n    ) internal {\r\n        if (\r\n            voucherDetails.paymentMethod == ETHETH ||\r\n            voucherDetails.paymentMethod == TKNETH\r\n        ) {\r\n            escrow[voucherDetails.holder] = escrow[voucherDetails.holder].sub(voucherDetails.depositBu);\r\n        }\r\n\r\n        if (\r\n            voucherDetails.paymentMethod == ETHTKN ||\r\n            voucherDetails.paymentMethod == TKNTKN\r\n        ) {\r\n            address addressTokenDeposits =\r\n                IVoucherKernel(voucherKernel).getVoucherDepositToken(\r\n                    voucherDetails.tokenIdSupply\r\n                );\r\n\r\n            escrowTokens[addressTokenDeposits][\r\n                voucherDetails.holder\r\n            ] = escrowTokens[addressTokenDeposits][\r\n                voucherDetails.holder\r\n            ].sub(voucherDetails.depositBu);\r\n        }\r\n\r\n        voucherDetails.deposit2pool = voucherDetails.deposit2pool.add(voucherDetails.depositBu);\r\n\r\n        LogAmountDistribution(\r\n            voucherDetails.tokenIdVoucher,\r\n            owner(),\r\n            voucherDetails.depositBu,\r\n            PaymentType.DEPOSIT_BUYER\r\n        );\r\n    }\r\n\r\n    /**\r\n     * @notice External function for withdrawing deposits. Caller must be the seller of the goods, otherwise reverts. \r\n     * @notice Seller triggers withdrawals of remaining deposits for a given supply, in case the voucher set is no longer in exchange.\r\n     * @param _tokenIdSupply an ID of a supply token (ERC-1155) which will be burned and deposits will be returned for\r\n     * @param _burnedQty burned quantity that the deposits should be withdrawn for\r\n     * @param _msgSender owner of the voucher set\r\n     */\r\n    function withdrawDepositsSe(\r\n        uint256 _tokenIdSupply,\r\n        uint256 _burnedQty,\r\n        address payable _msgSender\r\n    ) external override nonReentrant onlyFromRouter {\r\n        uint256 deposit =\r\n            IVoucherKernel(voucherKernel).getSellerDeposit(_tokenIdSupply);\r\n\r\n        uint256 depositAmount = deposit.mul(_burnedQty);\r\n\r\n        uint8 paymentMethod =\r\n            IVoucherKernel(voucherKernel).getVoucherPaymentMethod(\r\n                _tokenIdSupply\r\n            );\r\n\r\n        require(\r\n            paymentMethod > 0 && paymentMethod <= 4,\r\n            \"INVALID PAYMENT METHOD\"\r\n        );\r\n\r\n        if (paymentMethod == ETHETH || paymentMethod == TKNETH) {\r\n            escrow[_msgSender] = escrow[_msgSender].sub(depositAmount);\r\n        }\r\n\r\n        if (paymentMethod == ETHTKN || paymentMethod == TKNTKN) {\r\n            address addressTokenDeposits =\r\n                IVoucherKernel(voucherKernel).getVoucherDepositToken(\r\n                    _tokenIdSupply\r\n                );\r\n\r\n            escrowTokens[addressTokenDeposits][_msgSender] = escrowTokens[\r\n                addressTokenDeposits\r\n            ][_msgSender]\r\n                .sub(depositAmount);\r\n        }\r\n\r\n        _withdrawDeposits(\r\n            _msgSender,\r\n            depositAmount,\r\n            paymentMethod,\r\n            _tokenIdSupply\r\n        );\r\n    }\r\n\r\n    /**\r\n     * @notice Internal function for withdrawing payments.\r\n     * As unbelievable as it is, neither .send() nor .transfer() are now secure to use due to EIP-1884\r\n     *  So now transferring funds via the last remaining option: .call()\r\n     *  See https://diligence.consensys.net/posts/2019/09/stop-using-soliditys-transfer-now/\r\n     * @param _recipient    address of the account receiving funds from the escrow\r\n     * @param _amount       amount to be released from escrow\r\n     * @param _paymentMethod payment method that should be used to determine, how to do the payouts\r\n     * @param _tokenIdSupply       _tokenIdSupply of the voucher set this is related to\r\n     */\r\n    function _withdrawPayments(\r\n        address _recipient,\r\n        uint256 _amount,\r\n        uint8 _paymentMethod,\r\n        uint256 _tokenIdSupply\r\n    ) internal {\r\n        require(_recipient != address(0), \"UNSPECIFIED_ADDRESS\"); //hex\"20\" FISSION.code(FISSION.Category.Find, FISSION.Status.NotFound_Unequal_OutOfRange)\r\n        require(_amount > 0, \"\");\r\n\r\n        if (_paymentMethod == ETHETH || _paymentMethod == ETHTKN) {\r\n            payable(_recipient).sendValue(_amount);\r\n            emit LogWithdrawal(msg.sender, _recipient, _amount);\r\n        }\r\n\r\n        if (_paymentMethod == TKNETH || _paymentMethod == TKNTKN) {\r\n            address addressTokenPrice =\r\n                IVoucherKernel(voucherKernel).getVoucherPriceToken(\r\n                    _tokenIdSupply\r\n                );\r\n\r\n            SafeERC20.safeTransfer(IERC20(addressTokenPrice), _recipient, _amount);\r\n        }\r\n    }\r\n\r\n    /**\r\n     * @notice Internal function for withdrawing deposits.\r\n     * @param _recipient    address of the account receiving funds from the escrow\r\n     * @param _amount       amount to be released from escrow\r\n     * @param _paymentMethod       payment method that should be used to determine, how to do the payouts\r\n     * @param _tokenIdSupply       _tokenIdSupply of the voucher set this is related to\r\n     */\r\n    function _withdrawDeposits(\r\n        address _recipient,\r\n        uint256 _amount,\r\n        uint8 _paymentMethod,\r\n        uint256 _tokenIdSupply\r\n    ) internal {\r\n        require(_recipient != address(0), \"UNSPECIFIED_ADDRESS\"); //hex\"20\" FISSION.code(FISSION.Category.Find, FISSION.Status.NotFound_Unequal_OutOfRange)\r\n        require(_amount > 0, \"\");\r\n\r\n        if (_paymentMethod == ETHETH || _paymentMethod == TKNETH) {\r\n            payable(_recipient).sendValue(_amount);\r\n            emit LogWithdrawal(msg.sender, _recipient, _amount);\r\n        }\r\n\r\n        if (_paymentMethod == ETHTKN || _paymentMethod == TKNTKN) {\r\n            address addressTokenDeposits =\r\n                IVoucherKernel(voucherKernel).getVoucherDepositToken(\r\n                    _tokenIdSupply\r\n                );\r\n\r\n            SafeERC20.safeTransfer(IERC20(addressTokenDeposits), _recipient, _amount);\r\n        }\r\n    }\r\n\r\n    /**\r\n     * @notice Set the address of the BR contract\r\n     * @param _bosonRouterAddress   The address of the Cashier contract\r\n     */\r\n    function setBosonRouterAddress(address _bosonRouterAddress)\r\n        external\r\n        override\r\n        onlyOwner\r\n    {\r\n        require(_bosonRouterAddress != address(0), \"UNSPECIFIED_ADDRESS\"); //hex\"20\" FISSION.code(FISSION.Category.Find, FISSION.Status.NotFound_Unequal_OutOfRange)\r\n\r\n        bosonRouterAddress = _bosonRouterAddress;\r\n\r\n        emit LogBosonRouterSet(_bosonRouterAddress, msg.sender);\r\n    }\r\n\r\n    /**\r\n     * @notice Update the amount in escrow of an address with the new value, based on VoucherSet/Voucher interaction\r\n     * @param _account  The address of an account to query\r\n     * @param _newAmount  New amount to be set\r\n     */\r\n    function updateEscrowAmount(address _account, uint256 _newAmount)\r\n        external\r\n        override\r\n        onlyFromRouter\r\n    {\r\n        escrow[_account] = _newAmount;\r\n    }\r\n\r\n    /**\r\n     * @notice Update the amount in escrowTokens of an address with the new value, based on VoucherSet/Voucher interaction\r\n     * @param _token  The address of a token to query\r\n     * @param _account  The address of an account to query\r\n     * @param _newAmount  New amount to be set\r\n     */\r\n    function updateEscrowTokensAmount(\r\n        address _token,\r\n        address _account,\r\n        uint256 _newAmount\r\n    ) external override onlyFromRouter {\r\n        escrowTokens[_token][_account] = _newAmount;\r\n    }\r\n\r\n    /**\r\n     * @notice Only accept ETH via fallback from the BR Contract\r\n     */\r\n    receive() external payable {\r\n        require(msg.sender == bosonRouterAddress, \"INVALID_PAYEE\");\r\n    }\r\n\r\n    // // // // // // // //\r\n    // GETTERS\r\n    // // // // // // // //\r\n\r\n    /**\r\n     * @notice Get the amount in escrow of an address\r\n     * @param _account  The address of an account to query\r\n     * @return          The balance in escrow\r\n     */\r\n    function getEscrowAmount(address _account)\r\n        external\r\n        view\r\n        override\r\n        returns (uint256)\r\n    {\r\n        return escrow[_account];\r\n    }\r\n\r\n    /**\r\n     * @notice Get the amount in escrow of an address\r\n     * @param _token  The address of a token to query\r\n     * @param _account  The address of an account to query\r\n     * @return          The balance in escrow\r\n     */\r\n    function getEscrowTokensAmount(address _token, address _account)\r\n        external\r\n        view\r\n        override\r\n        returns (uint256)\r\n    {\r\n        return escrowTokens[_token][_account];\r\n    }\r\n}\r\n",
  "sourcePath": "E:/Ludo/Documents/Developpement/BOSON/contracts/contracts/Cashier.sol",
  "compiler": {
    "name": "solc",
    "version": "0.7.1+commit.f4a555be.Emscripten.clang"
  },
  "schemaVersion": "3.2.5",
  "updatedAt": "2021-03-20T16:53:09.237Z",
  "networkType": "ethereum",
  "devdoc": {
    "kind": "dev",
    "methods": {
      "getEscrowAmount(address)": {
        "params": {
          "_account": "The address of an account to query"
        },
        "returns": {
          "_0": "The balance in escrow"
        }
      },
      "getEscrowTokensAmount(address,address)": {
        "params": {
          "_account": "The address of an account to query",
          "_token": "The address of a token to query"
        },
        "returns": {
          "_0": "The balance in escrow"
        }
      },
      "owner()": {
        "details": "Returns the address of the current owner."
      },
      "paused()": {
        "details": "Returns true if the contract is paused, and false otherwise."
      },
      "renounceOwnership()": {
        "details": "Leaves the contract without owner. It will not be possible to call `onlyOwner` functions anymore. Can only be called by the current owner. NOTE: Renouncing ownership will leave the contract without an owner, thereby removing any functionality that is only available to the owner."
      },
      "setBosonRouterAddress(address)": {
        "params": {
          "_bosonRouterAddress": "The address of the Cashier contract"
        }
      },
      "transferOwnership(address)": {
        "details": "Transfers ownership of the contract to a new account (`newOwner`). Can only be called by the current owner."
      },
      "updateEscrowAmount(address,uint256)": {
        "params": {
          "_account": "The address of an account to query",
          "_newAmount": "New amount to be set"
        }
      },
      "updateEscrowTokensAmount(address,address,uint256)": {
        "params": {
          "_account": "The address of an account to query",
          "_newAmount": "New amount to be set",
          "_token": "The address of a token to query"
        }
      },
      "withdraw(uint256)": {
        "details": "This function would be optimized a lot, here verbose for readability.",
        "params": {
          "_tokenIdVoucher": "ID of a voucher token (ERC-721) to try withdraw funds from"
        }
      },
      "withdrawDepositsSe(uint256,uint256,address)": {
        "params": {
          "_burnedQty": "burned quantity that the deposits should be withdrawn for",
          "_msgSender": "owner of the voucher set",
          "_tokenIdSupply": "an ID of a supply token (ERC-1155) which will be burned and deposits will be returned for"
        }
      },
      "withdrawTokensOnDisaster(address)": {
        "params": {
          "token": "address of a token, that the caller sent the funds, while interacting with voucher or voucher-set"
        }
      }
    },
    "title": "Contract for managing funds Roughly following OpenZeppelin's Escrow at https://github.com/OpenZeppelin/openzeppelin-solidity/contracts/payment/",
    "version": 1
  },
  "userdoc": {
    "kind": "user",
    "methods": {
      "canUnpause()": {
        "notice": "If once disaster state has been set to true, the contract could never be unpaused."
      },
      "getEscrowAmount(address)": {
        "notice": "Get the amount in escrow of an address"
      },
      "getEscrowTokensAmount(address,address)": {
        "notice": "Get the amount in escrow of an address"
      },
      "pause()": {
        "notice": "Pause the process of interaction with voucherID's (ERC-721), in case of emergency. Only BR contract is in control of this function."
      },
      "setBosonRouterAddress(address)": {
        "notice": "Set the address of the BR contract"
      },
      "setDisasterState()": {
        "notice": "Once this functions is triggered, contracts cannot be unpaused anymore Only BR contract is in control of this function."
      },
      "unpause()": {
        "notice": "Unpause the process of interaction with voucherID's (ERC-721). Only BR contract is in control of this function."
      },
      "updateEscrowAmount(address,uint256)": {
        "notice": "Update the amount in escrow of an address with the new value, based on VoucherSet/Voucher interaction"
      },
      "updateEscrowTokensAmount(address,address,uint256)": {
        "notice": "Update the amount in escrowTokens of an address with the new value, based on VoucherSet/Voucher interaction"
      },
      "withdraw(uint256)": {
        "notice": "Trigger withdrawals of what funds are releasable The caller of this function triggers transfers to all involved entities (pool, issuer, token holder), also paying for gas."
      },
      "withdrawDepositsSe(uint256,uint256,address)": {
        "notice": "External function for withdrawing deposits. Caller must be the seller of the goods, otherwise reverts. Seller triggers withdrawals of remaining deposits for a given supply, in case the voucher set is no longer in exchange."
      },
      "withdrawEthOnDisaster()": {
        "notice": "In case of a disaster this function allow the caller to withdraw all pooled funds kept in the escrow for the address provided. Funds are sent in ETH"
      },
      "withdrawTokensOnDisaster(address)": {
        "notice": "In case of a disaster this function allow the caller to withdraw all pooled funds kept in the escrowTokens for the address provided."
      }
    },
    "version": 1
  }
}