{
  "contractName": "VoucherKernel",
  "abi": [
    {
      "inputs": [
        {
          "internalType": "address",
          "name": "_tokensContract",
          "type": "address"
        }
      ],
      "stateMutability": "nonpayable",
      "type": "constructor"
    },
    {
      "anonymous": false,
      "inputs": [
        {
          "indexed": false,
          "internalType": "address",
          "name": "_newBosonRouter",
          "type": "address"
        },
        {
          "indexed": false,
          "internalType": "address",
          "name": "_triggeredBy",
          "type": "address"
        }
      ],
      "name": "LogBosonRouterSet",
      "type": "event"
    },
    {
      "anonymous": false,
      "inputs": [
        {
          "indexed": false,
          "internalType": "uint256",
          "name": "_newCancelFaultPeriod",
          "type": "uint256"
        },
        {
          "indexed": false,
          "internalType": "address",
          "name": "_triggeredBy",
          "type": "address"
        }
      ],
      "name": "LogCancelFaultPeriodChanged",
      "type": "event"
    },
    {
      "anonymous": false,
      "inputs": [
        {
          "indexed": false,
          "internalType": "address",
          "name": "_newCashier",
          "type": "address"
        },
        {
          "indexed": false,
          "internalType": "address",
          "name": "_triggeredBy",
          "type": "address"
        }
      ],
      "name": "LogCashierSet",
      "type": "event"
    },
    {
      "anonymous": false,
      "inputs": [
        {
          "indexed": false,
          "internalType": "uint256",
          "name": "_newComplainPeriod",
          "type": "uint256"
        },
        {
          "indexed": false,
          "internalType": "address",
          "name": "_triggeredBy",
          "type": "address"
        }
      ],
      "name": "LogComplainPeriodChanged",
      "type": "event"
    },
    {
      "anonymous": false,
      "inputs": [
        {
          "indexed": false,
          "internalType": "uint256",
          "name": "_tokenIdVoucher",
          "type": "uint256"
        },
        {
          "indexed": false,
          "internalType": "address",
          "name": "_triggeredBy",
          "type": "address"
        }
      ],
      "name": "LogExpirationTriggered",
      "type": "event"
    },
    {
      "anonymous": false,
      "inputs": [
        {
          "indexed": false,
          "internalType": "uint256",
          "name": "_tokenIdVoucher",
          "type": "uint256"
        },
        {
          "indexed": false,
          "internalType": "address",
          "name": "_triggeredBy",
          "type": "address"
        }
      ],
      "name": "LogFinalizeVoucher",
      "type": "event"
    },
    {
      "anonymous": false,
      "inputs": [
        {
          "indexed": false,
          "internalType": "uint256",
          "name": "_tokenIdVoucher",
          "type": "uint256"
        },
        {
          "indexed": false,
          "internalType": "uint8",
          "name": "_type",
          "type": "uint8"
        }
      ],
      "name": "LogFundsReleased",
      "type": "event"
    },
    {
      "anonymous": false,
      "inputs": [
        {
          "indexed": true,
          "internalType": "bytes32",
          "name": "_promiseId",
          "type": "bytes32"
        },
        {
          "indexed": true,
          "internalType": "uint256",
          "name": "_nonce",
          "type": "uint256"
        },
        {
          "indexed": true,
          "internalType": "address",
          "name": "_seller",
          "type": "address"
        },
        {
          "indexed": false,
          "internalType": "uint256",
          "name": "_validFrom",
          "type": "uint256"
        },
        {
          "indexed": false,
          "internalType": "uint256",
          "name": "_validTo",
          "type": "uint256"
        },
        {
          "indexed": false,
          "internalType": "uint256",
          "name": "_idx",
          "type": "uint256"
        }
      ],
      "name": "LogPromiseCreated",
      "type": "event"
    },
    {
      "anonymous": false,
      "inputs": [
        {
          "indexed": false,
          "internalType": "uint256",
          "name": "_tokenIdVoucher",
          "type": "uint256"
        }
      ],
      "name": "LogVoucherComplain",
      "type": "event"
    },
    {
      "anonymous": false,
      "inputs": [
        {
          "indexed": true,
          "internalType": "uint256",
          "name": "_tokenIdSupply",
          "type": "uint256"
        },
        {
          "indexed": false,
          "internalType": "uint256",
          "name": "_tokenIdVoucher",
          "type": "uint256"
        },
        {
          "indexed": false,
          "internalType": "address",
          "name": "_issuer",
          "type": "address"
        },
        {
          "indexed": false,
          "internalType": "address",
          "name": "_holder",
          "type": "address"
        },
        {
          "indexed": false,
          "internalType": "bytes32",
          "name": "_promiseId",
          "type": "bytes32"
        },
        {
          "indexed": false,
          "internalType": "uint256",
          "name": "_correlationId",
          "type": "uint256"
        }
      ],
      "name": "LogVoucherDelivered",
      "type": "event"
    },
    {
      "anonymous": false,
      "inputs": [
        {
          "indexed": false,
          "internalType": "uint256",
          "name": "_tokenIdVoucher",
          "type": "uint256"
        }
      ],
      "name": "LogVoucherFaultCancel",
      "type": "event"
    },
    {
      "anonymous": false,
      "inputs": [
        {
          "indexed": false,
          "internalType": "uint256",
          "name": "_tokenIdVoucher",
          "type": "uint256"
        },
        {
          "indexed": false,
          "internalType": "address",
          "name": "_holder",
          "type": "address"
        },
        {
          "indexed": false,
          "internalType": "bytes32",
          "name": "_promiseId",
          "type": "bytes32"
        }
      ],
      "name": "LogVoucherRedeemed",
      "type": "event"
    },
    {
      "anonymous": false,
      "inputs": [
        {
          "indexed": false,
          "internalType": "uint256",
          "name": "_tokenIdVoucher",
          "type": "uint256"
        }
      ],
      "name": "LogVoucherRefunded",
      "type": "event"
    },
    {
      "anonymous": false,
      "inputs": [
        {
          "indexed": false,
          "internalType": "uint256",
          "name": "_tokenIdSupply",
          "type": "uint256"
        },
        {
          "indexed": false,
          "internalType": "address",
          "name": "_issuer",
          "type": "address"
        }
      ],
      "name": "LogVoucherSetFaultCancel",
      "type": "event"
    },
    {
      "anonymous": false,
      "inputs": [
        {
          "indexed": true,
          "internalType": "address",
          "name": "previousOwner",
          "type": "address"
        },
        {
          "indexed": true,
          "internalType": "address",
          "name": "newOwner",
          "type": "address"
        }
      ],
      "name": "OwnershipTransferred",
      "type": "event"
    },
    {
      "anonymous": false,
      "inputs": [
        {
          "indexed": false,
          "internalType": "address",
          "name": "account",
          "type": "address"
        }
      ],
      "name": "Paused",
      "type": "event"
    },
    {
      "anonymous": false,
      "inputs": [
        {
          "indexed": false,
          "internalType": "address",
          "name": "account",
          "type": "address"
        }
      ],
      "name": "Unpaused",
      "type": "event"
    },
    {
      "inputs": [],
      "name": "MASK_NF_INDEX",
      "outputs": [
        {
          "internalType": "uint256",
          "name": "",
          "type": "uint256"
        }
      ],
      "stateMutability": "view",
      "type": "function",
      "constant": true
    },
    {
      "inputs": [],
      "name": "MASK_TYPE",
      "outputs": [
        {
          "internalType": "uint256",
          "name": "",
          "type": "uint256"
        }
      ],
      "stateMutability": "view",
      "type": "function",
      "constant": true
    },
    {
      "inputs": [],
      "name": "TYPE_NF_BIT",
      "outputs": [
        {
          "internalType": "uint256",
          "name": "",
          "type": "uint256"
        }
      ],
      "stateMutability": "view",
      "type": "function",
      "constant": true
    },
    {
      "inputs": [],
      "name": "bosonRouterAddress",
      "outputs": [
        {
          "internalType": "address",
          "name": "",
          "type": "address"
        }
      ],
      "stateMutability": "view",
      "type": "function",
      "constant": true
    },
    {
      "inputs": [],
      "name": "cancelFaultPeriod",
      "outputs": [
        {
          "internalType": "uint256",
          "name": "",
          "type": "uint256"
        }
      ],
      "stateMutability": "view",
      "type": "function",
      "constant": true
    },
    {
      "inputs": [],
      "name": "cashierAddress",
      "outputs": [
        {
          "internalType": "address",
          "name": "",
          "type": "address"
        }
      ],
      "stateMutability": "view",
      "type": "function",
      "constant": true
    },
    {
      "inputs": [],
      "name": "complainPeriod",
      "outputs": [
        {
          "internalType": "uint256",
          "name": "",
          "type": "uint256"
        }
      ],
      "stateMutability": "view",
      "type": "function",
      "constant": true
    },
    {
      "inputs": [
        {
          "internalType": "uint256",
          "name": "",
          "type": "uint256"
        }
      ],
      "name": "ordersPromise",
      "outputs": [
        {
          "internalType": "bytes32",
          "name": "",
          "type": "bytes32"
        }
      ],
      "stateMutability": "view",
      "type": "function",
      "constant": true
    },
    {
      "inputs": [],
      "name": "owner",
      "outputs": [
        {
          "internalType": "address",
          "name": "",
          "type": "address"
        }
      ],
      "stateMutability": "view",
      "type": "function",
      "constant": true
    },
    {
      "inputs": [],
      "name": "paused",
      "outputs": [
        {
          "internalType": "bool",
          "name": "",
          "type": "bool"
        }
      ],
      "stateMutability": "view",
      "type": "function",
      "constant": true
    },
    {
      "inputs": [
        {
          "internalType": "uint256",
          "name": "",
          "type": "uint256"
        }
      ],
      "name": "paymentDetails",
      "outputs": [
        {
          "internalType": "uint8",
          "name": "paymentMethod",
          "type": "uint8"
        },
        {
          "internalType": "address",
          "name": "addressTokenPrice",
          "type": "address"
        },
        {
          "internalType": "address",
          "name": "addressTokenDeposits",
          "type": "address"
        }
      ],
      "stateMutability": "view",
      "type": "function",
      "constant": true
    },
    {
      "inputs": [
        {
          "internalType": "uint256",
          "name": "",
          "type": "uint256"
        }
      ],
      "name": "promiseKeys",
      "outputs": [
        {
          "internalType": "bytes32",
          "name": "",
          "type": "bytes32"
        }
      ],
      "stateMutability": "view",
      "type": "function",
      "constant": true
    },
    {
      "inputs": [
        {
          "internalType": "bytes32",
          "name": "",
          "type": "bytes32"
        }
      ],
      "name": "promises",
      "outputs": [
        {
          "internalType": "bytes32",
          "name": "promiseId",
          "type": "bytes32"
        },
        {
          "internalType": "uint256",
          "name": "nonce",
          "type": "uint256"
        },
        {
          "internalType": "address",
          "name": "seller",
          "type": "address"
        },
        {
          "internalType": "uint256",
          "name": "validFrom",
          "type": "uint256"
        },
        {
          "internalType": "uint256",
          "name": "validTo",
          "type": "uint256"
        },
        {
          "internalType": "uint256",
          "name": "price",
          "type": "uint256"
        },
        {
          "internalType": "uint256",
          "name": "depositSe",
          "type": "uint256"
        },
        {
          "internalType": "uint256",
          "name": "depositBu",
          "type": "uint256"
        },
        {
          "internalType": "uint256",
          "name": "idx",
          "type": "uint256"
        }
      ],
      "stateMutability": "view",
      "type": "function",
      "constant": true
    },
    {
      "inputs": [],
      "name": "renounceOwnership",
      "outputs": [],
      "stateMutability": "nonpayable",
      "type": "function"
    },
    {
      "inputs": [
        {
          "internalType": "address",
          "name": "",
          "type": "address"
        }
      ],
      "name": "tokenNonces",
      "outputs": [
        {
          "internalType": "uint256",
          "name": "",
          "type": "uint256"
        }
      ],
      "stateMutability": "view",
      "type": "function",
      "constant": true
    },
    {
      "inputs": [],
      "name": "tokensContract",
      "outputs": [
        {
          "internalType": "address",
          "name": "",
          "type": "address"
        }
      ],
      "stateMutability": "view",
      "type": "function",
      "constant": true
    },
    {
      "inputs": [
        {
          "internalType": "address",
          "name": "newOwner",
          "type": "address"
        }
      ],
      "name": "transferOwnership",
      "outputs": [],
      "stateMutability": "nonpayable",
      "type": "function"
    },
    {
      "inputs": [
        {
          "internalType": "uint256",
          "name": "",
          "type": "uint256"
        }
      ],
      "name": "typeCounters",
      "outputs": [
        {
          "internalType": "uint256",
          "name": "",
          "type": "uint256"
        }
      ],
      "stateMutability": "view",
      "type": "function",
      "constant": true
    },
    {
      "inputs": [],
      "name": "typeId",
      "outputs": [
        {
          "internalType": "uint256",
          "name": "",
          "type": "uint256"
        }
      ],
      "stateMutability": "view",
      "type": "function",
      "constant": true
    },
    {
      "inputs": [
        {
          "internalType": "uint256",
          "name": "",
          "type": "uint256"
        }
      ],
      "name": "vouchersStatus",
      "outputs": [
        {
          "internalType": "uint8",
          "name": "status",
          "type": "uint8"
        },
        {
          "internalType": "bool",
          "name": "isPaymentReleased",
          "type": "bool"
        },
        {
          "internalType": "bool",
          "name": "isDepositsReleased",
          "type": "bool"
        },
        {
          "internalType": "uint256",
          "name": "complainPeriodStart",
          "type": "uint256"
        },
        {
          "internalType": "uint256",
          "name": "cancelFaultPeriodStart",
          "type": "uint256"
        }
      ],
      "stateMutability": "view",
      "type": "function",
      "constant": true
    },
    {
      "inputs": [],
      "name": "pause",
      "outputs": [],
      "stateMutability": "nonpayable",
      "type": "function"
    },
    {
      "inputs": [],
      "name": "unpause",
      "outputs": [],
      "stateMutability": "nonpayable",
      "type": "function"
    },
    {
      "inputs": [
        {
          "internalType": "address",
          "name": "_seller",
          "type": "address"
        },
        {
          "internalType": "uint256",
          "name": "_validFrom",
          "type": "uint256"
        },
        {
          "internalType": "uint256",
          "name": "_validTo",
          "type": "uint256"
        },
        {
          "internalType": "uint256",
          "name": "_price",
          "type": "uint256"
        },
        {
          "internalType": "uint256",
          "name": "_depositSe",
          "type": "uint256"
        },
        {
          "internalType": "uint256",
          "name": "_depositBu",
          "type": "uint256"
        },
        {
          "internalType": "uint256",
          "name": "_quantity",
          "type": "uint256"
        }
      ],
      "name": "createTokenSupplyID",
      "outputs": [
        {
          "internalType": "uint256",
          "name": "",
          "type": "uint256"
        }
      ],
      "stateMutability": "nonpayable",
      "type": "function"
    },
    {
      "inputs": [
        {
          "internalType": "uint256",
          "name": "_tokenIdSupply",
          "type": "uint256"
        },
        {
          "internalType": "uint8",
          "name": "_paymentMethod",
          "type": "uint8"
        },
        {
          "internalType": "address",
          "name": "_tokenPrice",
          "type": "address"
        },
        {
          "internalType": "address",
          "name": "_tokenDeposits",
          "type": "address"
        }
      ],
      "name": "createPaymentMethod",
      "outputs": [],
      "stateMutability": "nonpayable",
      "type": "function"
    },
    {
      "inputs": [
        {
          "internalType": "uint256",
          "name": "_tokenIdSupply",
          "type": "uint256"
        },
        {
          "internalType": "address",
          "name": "_issuer",
          "type": "address"
        },
        {
          "internalType": "address",
          "name": "_holder",
          "type": "address"
        },
        {
          "internalType": "uint256",
          "name": "_correlationId",
          "type": "uint256"
        }
      ],
      "name": "fillOrder",
      "outputs": [],
      "stateMutability": "nonpayable",
      "type": "function"
    },
    {
      "inputs": [
        {
          "internalType": "address",
          "name": "_issuer",
          "type": "address"
        },
        {
          "internalType": "uint256",
          "name": "_tokenIdSupply",
          "type": "uint256"
        },
        {
          "internalType": "uint256",
          "name": "_qty",
          "type": "uint256"
        }
      ],
      "name": "burnSupplyOnPause",
      "outputs": [],
      "stateMutability": "nonpayable",
      "type": "function"
    },
    {
      "inputs": [
        {
          "internalType": "uint256",
          "name": "_tokenIdVoucher",
          "type": "uint256"
        },
        {
          "internalType": "address",
          "name": "_msgSender",
          "type": "address"
        }
      ],
      "name": "redeem",
      "outputs": [],
      "stateMutability": "nonpayable",
      "type": "function"
    },
    {
      "inputs": [
        {
          "internalType": "uint256",
          "name": "_tokenIdVoucher",
          "type": "uint256"
        },
        {
          "internalType": "address",
          "name": "_msgSender",
          "type": "address"
        }
      ],
      "name": "refund",
      "outputs": [],
      "stateMutability": "nonpayable",
      "type": "function"
    },
    {
      "inputs": [
        {
          "internalType": "uint256",
          "name": "_tokenIdVoucher",
          "type": "uint256"
        },
        {
          "internalType": "address",
          "name": "_msgSender",
          "type": "address"
        }
      ],
      "name": "complain",
      "outputs": [],
      "stateMutability": "nonpayable",
      "type": "function"
    },
    {
      "inputs": [
        {
          "internalType": "uint256",
          "name": "_tokenIdVoucher",
          "type": "uint256"
        },
        {
          "internalType": "address",
          "name": "_msgSender",
          "type": "address"
        }
      ],
      "name": "cancelOrFault",
      "outputs": [],
      "stateMutability": "nonpayable",
      "type": "function"
    },
    {
      "inputs": [
        {
          "internalType": "uint256",
          "name": "_tokenIdSupply",
          "type": "uint256"
        },
        {
          "internalType": "address",
          "name": "_issuer",
          "type": "address"
        }
      ],
      "name": "cancelOrFaultVoucherSet",
      "outputs": [
        {
          "internalType": "uint256",
          "name": "",
          "type": "uint256"
        }
      ],
      "stateMutability": "nonpayable",
      "type": "function"
    },
    {
      "inputs": [
        {
          "internalType": "uint256",
          "name": "_tokenIdVoucher",
          "type": "uint256"
        }
      ],
      "name": "setPaymentReleased",
      "outputs": [],
      "stateMutability": "nonpayable",
      "type": "function"
    },
    {
      "inputs": [
        {
          "internalType": "uint256",
          "name": "_tokenIdVoucher",
          "type": "uint256"
        }
      ],
      "name": "setDepositsReleased",
      "outputs": [],
      "stateMutability": "nonpayable",
      "type": "function"
    },
    {
      "inputs": [
        {
          "internalType": "uint256",
          "name": "_tokenIdVoucher",
          "type": "uint256"
        }
      ],
      "name": "triggerExpiration",
      "outputs": [],
      "stateMutability": "nonpayable",
      "type": "function"
    },
    {
      "inputs": [
        {
          "internalType": "uint256",
          "name": "_tokenIdVoucher",
          "type": "uint256"
        }
      ],
      "name": "triggerFinalizeVoucher",
      "outputs": [],
      "stateMutability": "nonpayable",
      "type": "function"
    },
    {
      "inputs": [
        {
          "internalType": "uint256",
          "name": "_tokenIdSupply",
          "type": "uint256"
        },
        {
          "internalType": "address",
          "name": "_newSeller",
          "type": "address"
        }
      ],
      "name": "setSupplyHolderOnTransfer",
      "outputs": [],
      "stateMutability": "nonpayable",
      "type": "function"
    },
    {
      "inputs": [
        {
          "internalType": "address",
          "name": "_bosonRouterAddress",
          "type": "address"
        }
      ],
      "name": "setBosonRouterAddress",
      "outputs": [],
      "stateMutability": "nonpayable",
      "type": "function"
    },
    {
      "inputs": [
        {
          "internalType": "address",
          "name": "_cashierAddress",
          "type": "address"
        }
      ],
      "name": "setCashierAddress",
      "outputs": [],
      "stateMutability": "nonpayable",
      "type": "function"
    },
    {
      "inputs": [
        {
          "internalType": "uint256",
          "name": "_complainPeriod",
          "type": "uint256"
        }
      ],
      "name": "setComplainPeriod",
      "outputs": [],
      "stateMutability": "nonpayable",
      "type": "function"
    },
    {
      "inputs": [
        {
          "internalType": "uint256",
          "name": "_cancelFaultPeriod",
          "type": "uint256"
        }
      ],
      "name": "setCancelFaultPeriod",
      "outputs": [],
      "stateMutability": "nonpayable",
      "type": "function"
    },
    {
      "inputs": [
        {
          "internalType": "uint256",
          "name": "_idx",
          "type": "uint256"
        }
      ],
      "name": "getPromiseKey",
      "outputs": [
        {
          "internalType": "bytes32",
          "name": "",
          "type": "bytes32"
        }
      ],
      "stateMutability": "view",
      "type": "function",
      "constant": true
    },
    {
      "inputs": [
        {
          "internalType": "uint256",
          "name": "_tokenIdVoucher",
          "type": "uint256"
        }
      ],
      "name": "getIdSupplyFromVoucher",
      "outputs": [
        {
          "internalType": "uint256",
          "name": "",
          "type": "uint256"
        }
      ],
      "stateMutability": "pure",
      "type": "function",
      "constant": true
    },
    {
      "inputs": [
        {
          "internalType": "uint256",
          "name": "_tokenIdVoucher",
          "type": "uint256"
        }
      ],
      "name": "getPromiseIdFromVoucherId",
      "outputs": [
        {
          "internalType": "bytes32",
          "name": "",
          "type": "bytes32"
        }
      ],
      "stateMutability": "view",
      "type": "function",
      "constant": true
    },
    {
      "inputs": [
        {
          "internalType": "uint256",
          "name": "_tokenSupplyId",
          "type": "uint256"
        },
        {
          "internalType": "address",
          "name": "_owner",
          "type": "address"
        }
      ],
      "name": "getRemQtyForSupply",
      "outputs": [
        {
          "internalType": "uint256",
          "name": "",
          "type": "uint256"
        }
      ],
      "stateMutability": "view",
      "type": "function",
      "constant": true
    },
    {
      "inputs": [
        {
          "internalType": "uint256",
          "name": "_tokenIdSupply",
          "type": "uint256"
        }
      ],
      "name": "getOrderCosts",
      "outputs": [
        {
          "internalType": "uint256",
          "name": "",
          "type": "uint256"
        },
        {
          "internalType": "uint256",
          "name": "",
          "type": "uint256"
        },
        {
          "internalType": "uint256",
          "name": "",
          "type": "uint256"
        }
      ],
      "stateMutability": "view",
      "type": "function",
      "constant": true
    },
    {
      "inputs": [
        {
          "internalType": "uint256",
          "name": "_tokenIdSupply",
          "type": "uint256"
        }
      ],
      "name": "getBuyerOrderCosts",
      "outputs": [
        {
          "internalType": "uint256",
          "name": "",
          "type": "uint256"
        },
        {
          "internalType": "uint256",
          "name": "",
          "type": "uint256"
        }
      ],
      "stateMutability": "view",
      "type": "function",
      "constant": true
    },
    {
      "inputs": [
        {
          "internalType": "uint256",
          "name": "_tokenIdSupply",
          "type": "uint256"
        }
      ],
      "name": "getSellerDeposit",
      "outputs": [
        {
          "internalType": "uint256",
          "name": "",
          "type": "uint256"
        }
      ],
      "stateMutability": "view",
      "type": "function",
      "constant": true
    },
    {
      "inputs": [
        {
          "internalType": "uint256",
          "name": "_tokenIdVoucher",
          "type": "uint256"
        }
      ],
      "name": "getVoucherStatus",
      "outputs": [
        {
          "internalType": "uint8",
          "name": "",
          "type": "uint8"
        },
        {
          "internalType": "bool",
          "name": "",
          "type": "bool"
        },
        {
          "internalType": "bool",
          "name": "",
          "type": "bool"
        }
      ],
      "stateMutability": "view",
      "type": "function",
      "constant": true
    },
    {
      "inputs": [
        {
          "internalType": "uint256",
          "name": "_tokenIdVoucher",
          "type": "uint256"
        }
      ],
      "name": "getVoucherHolder",
      "outputs": [
        {
          "internalType": "address",
          "name": "",
          "type": "address"
        }
      ],
      "stateMutability": "view",
      "type": "function",
      "constant": true
    },
    {
      "inputs": [
        {
          "internalType": "uint256",
          "name": "_tokenIdSupply",
          "type": "uint256"
        }
      ],
      "name": "getSupplyHolder",
      "outputs": [
        {
          "internalType": "address",
          "name": "",
          "type": "address"
        }
      ],
      "stateMutability": "view",
      "type": "function",
      "constant": true
    },
    {
      "inputs": [
        {
          "internalType": "uint256",
          "name": "_tokenIdSupply",
          "type": "uint256"
        }
      ],
      "name": "getVoucherPriceToken",
      "outputs": [
        {
          "internalType": "address",
          "name": "",
          "type": "address"
        }
      ],
      "stateMutability": "view",
      "type": "function",
      "constant": true
    },
    {
      "inputs": [
        {
          "internalType": "uint256",
          "name": "_tokenIdSupply",
          "type": "uint256"
        }
      ],
      "name": "getVoucherDepositToken",
      "outputs": [
        {
          "internalType": "address",
          "name": "",
          "type": "address"
        }
      ],
      "stateMutability": "view",
      "type": "function",
      "constant": true
    },
    {
      "inputs": [
        {
          "internalType": "uint256",
          "name": "_tokenIdSupply",
          "type": "uint256"
        }
      ],
      "name": "getVoucherPaymentMethod",
      "outputs": [
        {
          "internalType": "uint8",
          "name": "",
          "type": "uint8"
        }
      ],
      "stateMutability": "view",
      "type": "function",
      "constant": true
    },
    {
      "inputs": [
        {
          "internalType": "uint256",
          "name": "_tokenIdVoucher",
          "type": "uint256"
        }
      ],
      "name": "isInValidityPeriod",
      "outputs": [
        {
          "internalType": "bool",
          "name": "",
          "type": "bool"
        }
      ],
      "stateMutability": "view",
      "type": "function",
      "constant": true
    },
    {
      "inputs": [
        {
          "internalType": "uint256",
          "name": "_tokenIdVoucher",
          "type": "uint256"
        }
      ],
      "name": "isVoucherTransferable",
      "outputs": [
        {
          "internalType": "bool",
          "name": "",
          "type": "bool"
        }
      ],
      "stateMutability": "view",
      "type": "function",
      "constant": true
    }
  ],
  "bytecode": "0x60806040523480156200001157600080fd5b50604051620042ba380380620042ba833981810160405260208110156200003757600080fd5b5051600062000045620000ce565b600080546001600160a01b0319166001600160a01b0383169081178255604051929350917f8be0079c531659141344cd1fd0a4f28419497f9722a3daafe3b4186f6b6457e0908290a3506000805460ff60a01b19169055600180546001600160a01b0319166001600160a01b039290921691909117905562093a80600e819055600f55620000d2565b3390565b6141d880620000e26000396000f3fe608060405234801561001057600080fd5b506004361061027d5760003560e01c806316ed9e0e146102825780631af2a6a8146102b15780631cf7955d146102ce5780631f38585f1461030157806321d6f3a71461033a578063325a7a84146103425780633f4ba83a14610383578063455e42f21461038d5780634f755c3e146103b9578063590f6f68146103c15780635b479d1a146103fd5780635c975abb1461042e57806365c303bc1461043657806366db9a0914610453578063715018a61461047f57806374898e82146104875780637518fa98146104b957806375549516146104c157806375a83102146104de57806376942aed146104fb578063797f2a26146105035780637ad226dc1461054d5780637bde82f2146105795780637ed06c44146105a5578063817b3084146105ad57806381dc8119146105d35780638456cb59146105f057806388106323146105f857806388c25607146106155780638990834b146106415780638cfb578e1461065e5780638da5cb5b146106665780638f940f631461066e57806399c849b8146106765780639a0271e1146106935780639a751bbd146106b0578063bc0d753d146106cd578063bd17de40146106ea578063c099a7c414610710578063cc2f84cb14610736578063cf5c9008146107a2578063d40ffcf8146107df578063d887b4e7146107fc578063d905af5514610837578063e31a00791461083f578063e5d5f9ac1461086b578063e875a613146108b4578063ebba1b29146108d1578063ec29c17d146108ee578063ede808971461093a578063f2fde38b14610957578063f3223bed1461097d578063f5d7aa1814610985578063f75951ce146109b1578063fad4ee94146109ce575b600080fd5b61029f6004803603602081101561029857600080fd5b5035610a04565b60408051918252519081900360200190f35b61029f600480360360208110156102c757600080fd5b5035610a22565b6102eb600480360360208110156102e457600080fd5b5035610a33565b6040805160ff9092168252519081900360200190f35b61031e6004803603602081101561031757600080fd5b5035610a48565b604080516001600160a01b039092168252519081900360200190f35b61029f610a73565b61035f6004803603602081101561035857600080fd5b5035610a7e565b6040805160ff90941684529115156020840152151582820152519081900360600190f35b61038b610aa7565b005b61029f600480360360408110156103a357600080fd5b50803590602001356001600160a01b0316610b50565b61031e610daf565b61038b600480360360808110156103d757600080fd5b508035906001600160a01b03602082013581169160408101359091169060600135610dbe565b61041a6004803603602081101561041357600080fd5b5035610ee4565b604080519115158252519081900360200190f35b61041a610f21565b61038b6004803603602081101561044c57600080fd5b5035610f31565b61038b6004803603604081101561046957600080fd5b50803590602001356001600160a01b03166111d4565b61038b611836565b61038b6004803603606081101561049d57600080fd5b506001600160a01b0381351690602081013590604001356118d0565b61031e611a37565b61038b600480360360208110156104d757600080fd5b5035611a46565b61029f600480360360208110156104f457600080fd5b5035611b6f565b61029f611b81565b61029f600480360360e081101561051957600080fd5b506001600160a01b038135169060208101359060408101359060608101359060808101359060a08101359060c00135611b87565b61038b6004803603604081101561056357600080fd5b50803590602001356001600160a01b0316611f60565b61038b6004803603604081101561058f57600080fd5b50803590602001356001600160a01b0316612203565b61029f612552565b61029f600480360360208110156105c357600080fd5b50356001600160a01b031661255e565b61029f600480360360208110156105e957600080fd5b5035612570565b61038b612591565b61029f6004803603602081101561060e57600080fd5b5035612638565b61038b6004803603604081101561062b57600080fd5b50803590602001356001600160a01b031661265a565b61038b6004803603602081101561065757600080fd5b5035612737565b61031e6127db565b61031e6127ea565b61029f6127f9565b61029f6004803603602081101561068c57600080fd5b50356127ff565b61041a600480360360208110156106a957600080fd5b5035612811565b61031e600480360360208110156106c657600080fd5b5035612950565b61029f600480360360208110156106e357600080fd5b503561296e565b61038b6004803603602081101561070057600080fd5b50356001600160a01b03166129e1565b61038b6004803603602081101561072657600080fd5b50356001600160a01b0316612aee565b6107536004803603602081101561074c57600080fd5b5035612bfb565b60408051998a5260208a01989098526001600160a01b03909616888801526060880194909452608087019290925260a086015260c085015260e084015261010083015251908190036101200190f35b61038b600480360360808110156107b857600080fd5b5080359060ff602082013516906001600160a01b0360408201358116916060013516612c50565b61038b600480360360208110156107f557600080fd5b5035612d76565b6108196004803603602081101561081257600080fd5b5035612efb565b60408051938452602084019290925282820152519081900360600190f35b61029f612f2a565b61029f6004803603604081101561085557600080fd5b50803590602001356001600160a01b0316612f32565b6108886004803603602081101561088157600080fd5b5035612fbb565b6040805160ff90941684526001600160a01b039283166020850152911682820152519081900360600190f35b61031e600480360360208110156108ca57600080fd5b5035612feb565b61038b600480360360208110156108e757600080fd5b503561300b565b61090b6004803603602081101561090457600080fd5b5035613139565b6040805160ff909616865293151560208601529115158484015260608401526080830152519081900360a00190f35b61038b6004803603602081101561095057600080fd5b503561316f565b61038b6004803603602081101561096d57600080fd5b50356001600160a01b0316613213565b61029f613303565b61038b6004803603604081101561099b57600080fd5b50803590602001356001600160a01b0316613309565b61031e600480360360208110156109c757600080fd5b503561377c565b6109eb600480360360208110156109e457600080fd5b50356137fa565b6040805192835260208301919091528051918290030190f35b60078181548110610a1157fe5b600091825260209091200154905081565b6001600160801b031981165b919050565b60009081526006602052604090205460ff1690565b600090815260086020908152604080832054835260049091529020600201546001600160a01b031690565b6001600160801b0381565b60009081526009602052604090205460ff80821692610100830482169262010000900490911690565b6002546001600160a01b0316610af5576040805162461bcd60e51b815260206004820152600e60248201526d2aa729a822a1a4a324a2a22fa12960911b604482015290519081900360640190fd5b6002546001600160a01b03163314610b46576040805162461bcd60e51b815260206004820152600f60248201526e2aa720aaaa2427a924ad22a22fa12960891b604482015290519081900360640190fd5b610b4e613824565b565b6002546000906001600160a01b0316610ba1576040805162461bcd60e51b815260206004820152600e60248201526d2aa729a822a1a4a324a2a22fa12960911b604482015290519081900360640190fd5b6002546001600160a01b03163314610bf2576040805162461bcd60e51b815260206004820152600f60248201526e2aa720aaaa2427a924ad22a22fa12960891b604482015290519081900360640190fd5b610bfa610f21565b15610c3f576040805162461bcd60e51b815260206004820152601060248201526f14185d5cd8589b194e881c185d5cd95960821b604482015290519081900360640190fd5b816001600160a01b0316610c5284610a48565b6001600160a01b031614610ca0576040805162461bcd60e51b815260206004820152601060248201526f2aa720aaaa2427a924ad22a22fa1a7a360811b604482015290519081900360640190fd5b6000610cac8484612f32565b905060008111610cf1576040805162461bcd60e51b815260206004820152600b60248201526a4f464645525f454d50545960a81b604482015290519081900360640190fd5b60015460408051637a94c56560e11b81526001600160a01b03868116600483015260248201889052604482018590529151919092169163f5298aca91606480830192600092919082900301818387803b158015610d4d57600080fd5b505af1158015610d61573d6000803e3d6000fd5b5050604080518781526001600160a01b038716602082015281517fd771b32487969df897bdfc40b573cff1c37f81bc0e62b60cacc027d0efd6d33f9450908190039091019150a19392505050565b6003546001600160a01b031681565b6002546001600160a01b0316610e0c576040805162461bcd60e51b815260206004820152600e60248201526d2aa729a822a1a4a324a2a22fa12960911b604482015290519081900360640190fd5b6002546001600160a01b03163314610e5d576040805162461bcd60e51b815260206004820152600f60248201526e2aa720aaaa2427a924ad22a22fa12960891b604482015290519081900360640190fd5b610e688484846138c7565b6000610e75848487613b5f565b9050847fce3b32c0b6a7ffab6dec7497bc73336faeb8e1b3b0b8dc7099699a3595f000a6828686610ea58661296e565b604080519485526001600160a01b0393841660208601529190921683820152606083019190915260808201869052519081900360a00190a25050505050565b600081815260096020526040812054610100900460ff1680610f1a575060008281526009602052604090205462010000900460ff165b1592915050565b600054600160a01b900460ff1690565b80610f74576040805162461bcd60e51b815260206004820152600e60248201526d155394d41150d25192515117d25160921b604482015290519081900360640190fd5b60008181526009602052604090205460ff16610f91816001613dc7565b15610fd7576040805162461bcd60e51b81526020600482015260116024820152701053149150511657d19253905312569151607a1b604482015290519081900360640190fd5b6000610fe16140a4565b60046000610fee8661296e565b815260208082019290925260409081016000208151610120810183528154815260018201549381019390935260028101546001600160a01b031691830191909152600380820154606084015260048201546080840152600582015460a0840152600682015460c0840152600782015460e084015260089091015461010083015290915061107c908490613dc7565b156110c05761108c836002613dc7565b1561109a57600191506110bb565b600f546000858152600960205260409020600201540142106110bb57600191505b61115e565b6110cb836002613dc7565b80156110ec5750600e54600085815260096020526040902060010154014210155b156110fa576001915061115e565b61110383613dd8565b80611112575061111283613dff565b1561113c57600e546000858152600960205260409020600101540142106110bb576001915061115e565b61114583613e17565b1561115e57600e54816080015101421061115e57600191505b81156111ce5761116f836001613e2b565b600085815260096020908152604091829020805460ff191660ff94909416939093179092558051868152339281019290925280517f28c953c622aa90e006382693080fb83e2add147a386446e0f24572c6b071adfa9281900390910190a15b50505050565b6111dc610f21565b15611221576040805162461bcd60e51b815260206004820152601060248201526f14185d5cd8589b194e881c185d5cd95960821b604482015290519081900360640190fd5b6002546001600160a01b031661126f576040805162461bcd60e51b815260206004820152600e60248201526d2aa729a822a1a4a324a2a22fa12960911b604482015290519081900360640190fd5b6002546001600160a01b031633146112c0576040805162461bcd60e51b815260206004820152600f60248201526e2aa720aaaa2427a924ad22a22fa12960891b604482015290519081900360640190fd5b600154604080516331a9108f60e11b8152600481018590529051849284926001600160a01b0380851693921691636352211e91602480820192602092909190829003018186803b15801561131357600080fd5b505afa158015611327573d6000803e3d6000fd5b505050506040513d602081101561133d57600080fd5b50516001600160a01b03161461138b576040805162461bcd60e51b815260206004820152600e60248201526d2aa720aaaa2427a924ad22a22fab60911b604482015290519081900360640190fd5b6000848152600960205260409020546113a89060ff166003613dc7565b156113ef576040805162461bcd60e51b81526020600482015260126024820152711053149150511657d0d3d35413105253915160721b604482015290519081900360640190fd5b60008481526009602052604090205461140c9060ff166001613dc7565b15611452576040805162461bcd60e51b81526020600482015260116024820152701053149150511657d19253905312569151607a1b604482015290519081900360640190fd5b61145a6140a4565b600460006114678761296e565b8152602080820192909252604090810160009081208251610120810184528154815260018201548186015260028201546001600160a01b0316818501526003820154606082015260048201546080820152600582015460a0820152600682015460c0820152600782015460e0820152600890910154610100820152888252600990935220549091506114fb9060ff16613dd8565b8061151c575060008581526009602052604090205461151c9060ff16613dff565b1561167a5760008581526009602052604090205461153e9060ff166002613dc7565b6115a357600f54600e54600087815260096020526040902060010154010142111561159e576040805162461bcd60e51b81526020600482015260166024820152600080516020614123833981519152604482015290519081900360640190fd5b6115fb565b600e54600086815260096020526040902060010154014211156115fb576040805162461bcd60e51b81526020600482015260166024820152600080516020614123833981519152604482015290519081900360640190fd5b60008581526009602052604090204260028201555461161e9060ff166003613e2b565b600086815260096020908152604091829020805460ff191660ff9490941693909317909255805187815290517f0411cc6d1d8430de89b9f9fdd063617e55946cddb8538d3407f516882db59455929181900390910190a161182f565b6000858152600960205260409020546116959060ff16613e17565b15611755576000858152600960205260409020546116b79060ff166002613dc7565b61170a57600f54600e548260800151010142111561159e576040805162461bcd60e51b81526020600482015260166024820152600080516020614123833981519152604482015290519081900360640190fd5b600e548160800151014211156115fb576040805162461bcd60e51b81526020600482015260166024820152600080516020614123833981519152604482015290519081900360640190fd5b6000858152600960205260409020546117729060ff166002613dc7565b156117ec57600e54600086815260096020526040902060010154014211156117cf576040805162461bcd60e51b81526020600482015260166024820152600080516020614123833981519152604482015290519081900360640190fd5b60008581526009602052604090205461161e9060ff166003613e2b565b6040805162461bcd60e51b8152602060048201526013602482015272494e4150504c494341424c455f53544154555360681b604482015290519081900360640190fd5b5050505050565b61183e613e38565b6001600160a01b031661184f6127ea565b6001600160a01b031614611898576040805162461bcd60e51b81526020600482018190526024820152600080516020614143833981519152604482015290519081900360640190fd5b600080546040516001600160a01b0390911690600080516020614163833981519152908390a3600080546001600160a01b0319169055565b6118d8610f21565b611920576040805162461bcd60e51b815260206004820152601460248201527314185d5cd8589b194e881b9bdd081c185d5cd95960621b604482015290519081900360640190fd5b6003546001600160a01b031661196e576040805162461bcd60e51b815260206004820152600e60248201526d2aa729a822a1a4a324a2a22fa12960911b604482015290519081900360640190fd5b6003546001600160a01b031633146119be576040805162461bcd60e51b815260206004820152600e60248201526d554e415554484f52495a45445f4360901b604482015290519081900360640190fd5b60015460408051637a94c56560e11b81526001600160a01b03868116600483015260248201869052604482018590529151919092169163f5298aca91606480830192600092919082900301818387803b158015611a1a57600080fd5b505af1158015611a2e573d6000803e3d6000fd5b50505050505050565b6001546001600160a01b031681565b6003546001600160a01b0316611a94576040805162461bcd60e51b815260206004820152600e60248201526d2aa729a822a1a4a324a2a22fa12960911b604482015290519081900360640190fd5b6003546001600160a01b03163314611ae4576040805162461bcd60e51b815260206004820152600e60248201526d554e415554484f52495a45445f4360901b604482015290519081900360640190fd5b80611b27576040805162461bcd60e51b815260206004820152600e60248201526d155394d41150d25192515117d25160921b604482015290519081900360640190fd5b6000818152600960209081526040808320805461ff0019166101001790558051848152918201929092528151600080516020614183833981519152929181900390910190a150565b60086020526000908152604090205481565b600f5481565b6002546000906001600160a01b0316611bd8576040805162461bcd60e51b815260206004820152600e60248201526d2aa729a822a1a4a324a2a22fa12960911b604482015290519081900360640190fd5b6002546001600160a01b03163314611c29576040805162461bcd60e51b815260206004820152600f60248201526e2aa720aaaa2427a924ad22a22fa12960891b604482015290519081900360640190fd5b85871115611c76576040805162461bcd60e51b8152602060048201526015602482015274494e56414c49445f56414c49444954595f46524f4d60581b604482015290519081900360640190fd5b4261012c01861015611cc5576040805162461bcd60e51b8152602060048201526013602482015272494e56414c49445f56414c49444954595f544f60681b604482015290519081900360640190fd5b6001600160a01b0388166000908152600560209081526040918290208054600181019091558251808301919091528083018a905260608082018a9052835180830390910181526080909101909252815191012060075415611d9857600081815260046020526040902060080154600780548392908110611d4157fe5b90600052602060002001541415611d98576040805162461bcd60e51b815260206004820152601660248201527550524f4d4953455f414c52454144595f45584953545360501b604482015290519081900360640190fd5b604051806101200160405280828152602001600560008c6001600160a01b03166001600160a01b031681526020019081526020016000205481526020018a6001600160a01b0316815260200189815260200188815260200187815260200186815260200185815260200160078054905081525060046000838152602001908152602001600020600082015181600001556020820151816001015560408201518160020160006101000a8154816001600160a01b0302191690836001600160a01b03160217905550606082015181600301556080820151816004015560a0820151816005015560c0820151816006015560e0820151816007015561010082015181600801559050506007819080600181540180825580915050600190039060005260206000200160009091909190915055886001600160a01b0316600560008b6001600160a01b03166001600160a01b0316815260200190815260200160002054827fc05e9e3de4c67624681fddccb848a2f81797e05e1c09faf702ed3c526a6660e08b8b60016007805490500360405180848152602001838152602001828152602001935050505060405180910390a4611f53898285613e3c565b9998505050505050505050565b611f68610f21565b15611fad576040805162461bcd60e51b815260206004820152601060248201526f14185d5cd8589b194e881c185d5cd95960821b604482015290519081900360640190fd5b6002546001600160a01b0316611ffb576040805162461bcd60e51b815260206004820152600e60248201526d2aa729a822a1a4a324a2a22fa12960911b604482015290519081900360640190fd5b6002546001600160a01b0316331461204c576040805162461bcd60e51b815260206004820152600f60248201526e2aa720aaaa2427a924ad22a22fa12960891b604482015290519081900360640190fd5b600154604080516331a9108f60e11b8152600481018590529051849284926001600160a01b0380851693921691636352211e91602480820192602092909190829003018186803b15801561209f57600080fd5b505afa1580156120b3573d6000803e3d6000fd5b505050506040513d60208110156120c957600080fd5b50516001600160a01b031614612117576040805162461bcd60e51b815260206004820152600e60248201526d2aa720aaaa2427a924ad22a22fab60911b604482015290519081900360640190fd5b6000848152600960205260409020546121329060ff16613fd7565b612179576040805162461bcd60e51b8152602060048201526013602482015272494e4150504c494341424c455f53544154555360681b604482015290519081900360640190fd5b61218284612811565b506000848152600960205260409020426001820155546121a69060ff166005613e2b565b600085815260096020908152604091829020805460ff191660ff9490941693909317909255805186815290517f66d163993c35c8d3a90f3fbce008096384de89ec441c60c9b9f79aaad36616ff929181900390910190a150505050565b61220b610f21565b15612250576040805162461bcd60e51b815260206004820152601060248201526f14185d5cd8589b194e881c185d5cd95960821b604482015290519081900360640190fd5b6002546001600160a01b031661229e576040805162461bcd60e51b815260206004820152600e60248201526d2aa729a822a1a4a324a2a22fa12960911b604482015290519081900360640190fd5b6002546001600160a01b031633146122ef576040805162461bcd60e51b815260206004820152600f60248201526e2aa720aaaa2427a924ad22a22fa12960891b604482015290519081900360640190fd5b600154604080516331a9108f60e11b8152600481018590529051849284926001600160a01b0380851693921691636352211e91602480820192602092909190829003018186803b15801561234257600080fd5b505afa158015612356573d6000803e3d6000fd5b505050506040513d602081101561236c57600080fd5b50516001600160a01b0316146123ba576040805162461bcd60e51b815260206004820152600e60248201526d2aa720aaaa2427a924ad22a22fab60911b604482015290519081900360640190fd5b6000848152600960205260409020546123d59060ff16613fd7565b61241a576040805162461bcd60e51b81526020600482015260116024820152701053149150511657d41493d0d154d4d151607a1b604482015290519081900360640190fd5b61242384612811565b5061242c6140a4565b600460006124398761296e565b815260208082019290925260409081016000908120825161012081018452815481526001808301548287015260028301546001600160a01b0316828601526003830154606083015260048301546080830152600583015460a083015260068084015460c0840152600784015460e08401526008909301546101008301528a8452600990955292909120429381019390935591549092506124de9160ff90911690613e2b565b600086815260096020908152604091829020805460ff191660ff9490941693909317909255825181518881526001600160a01b0388169381019390935282820152517f43a88bfc6f85aab9491c25f0ce50c4046d7cb7d4dc209b40914a2574d9855a5c916060908290030190a15050505050565b6001600160801b031981565b60056020526000908152604090205481565b60006007828154811061257f57fe5b90600052602060002001549050919050565b6002546001600160a01b03166125df576040805162461bcd60e51b815260206004820152600e60248201526d2aa729a822a1a4a324a2a22fa12960911b604482015290519081900360640190fd5b6002546001600160a01b03163314612630576040805162461bcd60e51b815260206004820152600f60248201526e2aa720aaaa2427a924ad22a22fa12960891b604482015290519081900360640190fd5b610b4e613fe5565b6000908152600860209081526040808320548352600490915290206006015490565b6002546001600160a01b03166126a8576040805162461bcd60e51b815260206004820152600e60248201526d2aa729a822a1a4a324a2a22fa12960911b604482015290519081900360640190fd5b6002546001600160a01b031633146126f9576040805162461bcd60e51b815260206004820152600f60248201526e2aa720aaaa2427a924ad22a22fa12960891b604482015290519081900360640190fd5b6000918252600860209081526040808420548452600490915290912060020180546001600160a01b0319166001600160a01b03909216919091179055565b61273f613e38565b6001600160a01b03166127506127ea565b6001600160a01b031614612799576040805162461bcd60e51b81526020600482018190526024820152600080516020614143833981519152604482015290519081900360640190fd5b600e8190556040805182815233602082015281517f08bf60d0e489e33912f3ba0f81f21c6f2ad2499a36dfebfb6cfbfefcc49f3cca929181900390910190a150565b6002546001600160a01b031681565b6000546001600160a01b031690565b600d5481565b600c6020526000908152604090205481565b600061281b6140a4565b600460006128288561296e565b815260208082019290925260409081016000208151610120810183528154815260018201549381019390935260028101546001600160a01b03169183019190915260038101546060830181905260048201546080840152600582015460a0840152600682015460c0840152600782015460e08401526008909101546101008301529091504210156128f8576040805162461bcd60e51b8152602060048201526015602482015274494e56414c49445f56414c49444954595f46524f4d60581b604482015290519081900360640190fd5b4281608001511015612947576040805162461bcd60e51b8152602060048201526013602482015272494e56414c49445f56414c49444954595f544f60681b604482015290519081900360640190fd5b50600192915050565b6000908152600660205260409020600101546001600160a01b031690565b6000816129b3576040805162461bcd60e51b815260206004820152600e60248201526d155394d41150d25192515117d25160921b604482015290519081900360640190fd5b60006129be83610a22565b600090815260086020908152604080832054835260049091529020549392505050565b6129e9613e38565b6001600160a01b03166129fa6127ea565b6001600160a01b031614612a43576040805162461bcd60e51b81526020600482018190526024820152600080516020614143833981519152604482015290519081900360640190fd5b6001600160a01b038116612a94576040805162461bcd60e51b8152602060048201526013602482015272554e5350454349464945445f4144445245535360681b604482015290519081900360640190fd5b600280546001600160a01b0319166001600160a01b0383169081179091556040805191825233602083015280517fac81fe7dd460bb5162a4a7d8fb92a13bd2baf450914fc6b1c4cc3180eba55af09281900390910190a150565b612af6613e38565b6001600160a01b0316612b076127ea565b6001600160a01b031614612b50576040805162461bcd60e51b81526020600482018190526024820152600080516020614143833981519152604482015290519081900360640190fd5b6001600160a01b038116612ba1576040805162461bcd60e51b8152602060048201526013602482015272554e5350454349464945445f4144445245535360681b604482015290519081900360640190fd5b600380546001600160a01b0319166001600160a01b0383169081179091556040805191825233602083015280517fcd124a0a6c3182c7bb77b8052823a4bf7d0a4c90016ffc4d53b969f98d3f8b889281900390910190a150565b6004602081905260009182526040909120805460018201546002830154600384015494840154600585015460068601546007870154600890970154959794966001600160a01b03909416959293919290919089565b6002546001600160a01b0316612c9e576040805162461bcd60e51b815260206004820152600e60248201526d2aa729a822a1a4a324a2a22fa12960911b604482015290519081900360640190fd5b6002546001600160a01b03163314612cef576040805162461bcd60e51b815260206004820152600f60248201526e2aa720aaaa2427a924ad22a22fa12960891b604482015290519081900360640190fd5b6040805160608101825260ff94851681526001600160a01b0393841660208083019182529385168284019081526000978852600690945291909520945185549151841661010002610100600160a81b03199190951660ff199092169190911716929092178355905160019092018054929091166001600160a01b0319909216919091179055565b80612db9576040805162461bcd60e51b815260206004820152600e60248201526d155394d41150d25192515117d25160921b604482015290519081900360640190fd5b612dc16140a4565b60046000612dce8461296e565b815260208082019290925260409081016000208151610120810183528154815260018201549381019390935260028101546001600160a01b03169183019190915260038101546060830152600481015460808301819052600582015460a0840152600682015460c0840152600782015460e084015260089091015461010083015290915042118015612e765750600082815260096020526040902054612e769060ff16613fd7565b15612ef757600082815260096020526040902054612e989060ff166004613e2b565b600083815260096020908152604091829020805460ff191660ff94909416939093179092558051848152339281019290925280517f0fbb6c447a631ca170fad3c540d76f932db4c444d82bc160f7e3eebc6a5f67409281900390910190a15b5050565b600090815260086020908152604080832054835260049091529020600581015460068201546007909201549092565b600160ff1b81565b60015460408051627eeac760e11b81526001600160a01b038481166004830152602482018690529151600093929092169162fdd58e91604480820192602092909190829003018186803b158015612f8857600080fd5b505afa158015612f9c573d6000803e3d6000fd5b505050506040513d6020811015612fb257600080fd5b50519392505050565b6006602052600090815260409020805460019091015460ff8216916001600160a01b036101009091048116911683565b60009081526006602052604090205461010090046001600160a01b031690565b6003546001600160a01b0316613059576040805162461bcd60e51b815260206004820152600e60248201526d2aa729a822a1a4a324a2a22fa12960911b604482015290519081900360640190fd5b6003546001600160a01b031633146130a9576040805162461bcd60e51b815260206004820152600e60248201526d554e415554484f52495a45445f4360901b604482015290519081900360640190fd5b806130ec576040805162461bcd60e51b815260206004820152600e60248201526d155394d41150d25192515117d25160921b604482015290519081900360640190fd5b600081815260096020908152604091829020805462ff000019166201000017905581518381526001918101919091528151600080516020614183833981519152929181900390910190a150565b60096020526000908152604090208054600182015460029092015460ff8083169361010084048216936201000090049091169185565b613177613e38565b6001600160a01b03166131886127ea565b6001600160a01b0316146131d1576040805162461bcd60e51b81526020600482018190526024820152600080516020614143833981519152604482015290519081900360640190fd5b600f8190556040805182815233602082015281517fff783d200775c8efda1ff912a95c6b9561e641cc8695e015340f06a5b3024f12929181900390910190a150565b61321b613e38565b6001600160a01b031661322c6127ea565b6001600160a01b031614613275576040805162461bcd60e51b81526020600482018190526024820152600080516020614143833981519152604482015290519081900360640190fd5b6001600160a01b0381166132ba5760405162461bcd60e51b81526004018080602001828103825260268152602001806140fd6026913960400191505060405180910390fd5b600080546040516001600160a01b038085169392169160008051602061416383398151915291a3600080546001600160a01b0319166001600160a01b0392909216919091179055565b600e5481565b613311610f21565b15613356576040805162461bcd60e51b815260206004820152601060248201526f14185d5cd8589b194e881c185d5cd95960821b604482015290519081900360640190fd5b600061336183610a22565b9050816001600160a01b031661337682610a48565b6001600160a01b0316146133c4576040805162461bcd60e51b815260206004820152601060248201526f2aa720aaaa2427a924ad22a22fa1a7a360811b604482015290519081900360640190fd5b60008381526009602052604090205460ff166133e1816002613dc7565b15613429576040805162461bcd60e51b81526020600482015260136024820152721053149150511657d0d05390d1531190555315606a1b604482015290519081900360640190fd5b613434816001613dc7565b1561347a576040805162461bcd60e51b81526020600482015260116024820152701053149150511657d19253905312569151607a1b604482015290519081900360640190fd5b6134826140a4565b6004600061348f8761296e565b815260208082019290925260409081016000208151610120810183528154815260018201549381019390935260028101546001600160a01b0316918301919091526003810154606083015260048101546080830152600581015460a083015260068082015460c0840152600782015460e084015260089091015461010083015290915061351d908390613dc7565b8061352e575061352e826005613dc7565b156136215761353e826003613dc7565b6135be57600f54600e5460008781526009602052604090206001015401014211156135a4576040805162461bcd60e51b815260206004820152601160248201527010d3d19411549253d117d1561412549151607a1b604482015290519081900360640190fd5b60008581526009602052604090204260019091015561361c565b600f546000868152600960205260409020600201540142111561361c576040805162461bcd60e51b815260206004820152601160248201527010d3d19411549253d117d1561412549151607a1b604482015290519081900360640190fd5b613713565b61362c826004613dc7565b1561369a5761363c826003613dc7565b6135be57600f54600e5482608001510101421115613695576040805162461bcd60e51b815260206004820152601160248201527010d3d19411549253d117d1561412549151607a1b604482015290519081900360640190fd5b61361c565b6136a382613fd7565b156117ec57600f54600e54826080015101014211156136fd576040805162461bcd60e51b815260206004820152601160248201527010d3d19411549253d117d1561412549151607a1b604482015290519081900360640190fd5b6000858152600960205260409020426001909101555b61371e826002613e2b565b600086815260096020908152604091829020805460ff191660ff9490941693909317909255805187815290517f125d1de9ad96c695c95a8de033058d2c00835a1e0cbf24b7fa3de72f603c8709929181900390910190a15050505050565b600154604080516331a9108f60e11b81526004810184905290516000926001600160a01b031691636352211e916024808301926020929190829003018186803b1580156137c857600080fd5b505afa1580156137dc573d6000803e3d6000fd5b505050506040513d60208110156137f257600080fd5b505192915050565b60009081526008602090815260408083205483526004909152902060058101546007909101549091565b61382c610f21565b613874576040805162461bcd60e51b815260206004820152601460248201527314185d5cd8589b194e881b9bdd081c185d5cd95960621b604482015290519081900360640190fd5b6000805460ff60a01b191690557f5db9ee0a495bf2e6ff9c91a7834c1ba4fdd244a5e8aa4e537bd38aeae4b073aa6138aa613e38565b604080516001600160a01b039092168252519081900360200190a1565b8261390a576040805162461bcd60e51b815260206004820152600e60248201526d155394d41150d25192515117d25160921b604482015290519081900360640190fd5b61391c816001600160a01b031661406e565b156139e957604080516301ffc9a760e01b8152630a85bd0160e11b600482015290516001600160a01b038316916301ffc9a7916024808301926020929190829003018186803b15801561396e57600080fd5b505afa158015613982573d6000803e3d6000fd5b505050506040513d602081101561399857600080fd5b50516139e9576040805162461bcd60e51b815260206004820152601b60248201527a155394d5541413d495115117d15490cdcc8c57d49150d152559151602a1b604482015290519081900360640190fd5b6001600160a01b038116613a3a576040805162461bcd60e51b8152602060048201526013602482015272554e5350454349464945445f4144445245535360681b604482015290519081900360640190fd5b60015460408051627eeac760e11b81526001600160a01b038581166004830152602482018790529151600093929092169162fdd58e91604480820192602092909190829003018186803b158015613a9057600080fd5b505afa158015613aa4573d6000803e3d6000fd5b505050506040513d6020811015613aba57600080fd5b505111613afc576040805162461bcd60e51b815260206004820152600b60248201526a4f464645525f454d50545960a81b604482015290519081900360640190fd5b600083815260086020908152604080832054808452600492839052922001544211156111ce576040805162461bcd60e51b815260206004820152600d60248201526c13d191915497d1561412549151609a1b604482015290519081900360640190fd5b6000613b73836001600160a01b031661406e565b15613c695760408051630a85bd0160e11b8082526001600160a01b0387811660048401523360248401526044830186905260806064840152600060848401819052935191939087169263150b7a029260c48083019360209383900390910190829087803b158015613be357600080fd5b505af1158015613bf7573d6000803e3d6000fd5b505050506040513d6020811015613c0d57600080fd5b50516001600160e01b03191614613c69576040805162461bcd60e51b815260206004820152601b60248201527a155394d5541413d495115117d15490cdcc8c57d49150d152559151602a1b604482015290519081900360640190fd5b6001805460408051637a94c56560e11b81526001600160a01b0388811660048301526024820187905260448201949094529051929091169163f5298aca9160648082019260009290919082900301818387803b158015613cc857600080fd5b505af1158015613cdc573d6000803e3d6000fd5b5050506000838152600c602090815260408083208054600101908190558617808452600990925290912054909150613d189060ff166007613e2b565b6000828152600960209081526040808320805460ff191660ff959095169490941762ffff00191690935560015483516340c10f1960e01b81526001600160a01b03898116600483015260248201879052945194909116936340c10f1993604480840194938390030190829087803b158015613d9257600080fd5b505af1158015613da6573d6000803e3d6000fd5b505050506040513d6020811015613dbc57600080fd5b509095945050505050565b60ff91821691161c60019081161490565b6000613df0613de960006007613e2b565b6006613e2b565b60ff168260ff16149050919050565b6000613df0613e1060006007613e2b565b6005613e2b565b6000613df0613e2860006007613e2b565b60045b600160ff919091161b1790565b3390565b600082613e86576040805162461bcd60e51b8152602060048201526013602482015272554e5350454349464945445f50524f4d49534560681b604482015290519081900360640190fd5b6000838152600460205260409020600201546001600160a01b03858116911614613ee9576040805162461bcd60e51b815260206004820152600f60248201526e554e415554484f52495a45445f434f60881b604482015290519081900360640190fd5b60008211613f31576040805162461bcd60e51b815260206004820152601060248201526f494e56414c49445f5155414e5449545960801b604482015290519081900360640190fd5b6000613f3d6001614074565b600081815260086020526040808220879055600154815163731133e960e01b81526001600160a01b038a8116600483015260248201869052604482018990526080606483015260848201859052925194955091169263731133e99260c48084019391929182900301818387803b158015613fb657600080fd5b505af1158015613fca573d6000803e3d6000fd5b5092979650505050505050565b6000613df060006007613e2b565b613fed610f21565b15614032576040805162461bcd60e51b815260206004820152601060248201526f14185d5cd8589b194e881c185d5cd95960821b604482015290519081900360640190fd5b6000805460ff60a01b1916600160a01b1790557f62e78cea01bee320cd4e420270b5ea74000d11b0c9f74754ebdbfc544b05a2586138aa613e38565b3b151590565b600d8054600101905560008115614099576080600d54901b600160ff1b179050610a2e565b5050600d5460801b90565b604051806101200160405280600080191681526020016000815260200160006001600160a01b03168152602001600081526020016000815260200160008152602001600081526020016000815260200160008152509056fe4f776e61626c653a206e6577206f776e657220697320746865207a65726f2061646472657373434f4d504c41494e504552494f445f45585049524544000000000000000000004f776e61626c653a2063616c6c6572206973206e6f7420746865206f776e65728be0079c531659141344cd1fd0a4f28419497f9722a3daafe3b4186f6b6457e0f570ce8ad3bc67469a0b8e53a32bba1edd0105fc668c1278225660d2291cc554a2646970667358221220c3eeb8a0d632401051ab582e5a5d223072f9785ac4c14e68e8472d4dccafa32064736f6c63430007010033",
  "immutableReferences": {},
  "source": "// SPDX-License-Identifier: LGPL-3.0-or-later\r\n\r\npragma solidity 0.7.1;\r\n\r\nimport \"@openzeppelin/contracts/utils/Address.sol\";\r\nimport \"@openzeppelin/contracts/access/Ownable.sol\";\r\nimport \"@openzeppelin/contracts/utils/Pausable.sol\";\r\nimport \"@openzeppelin/contracts/math/SafeMath.sol\";\r\nimport \"./interfaces/IERC1155.sol\";\r\nimport \"./interfaces/IERC165.sol\";\r\nimport \"./interfaces/IERC721.sol\";\r\nimport \"./interfaces/IERC1155ERC721.sol\";\r\nimport \"./interfaces/IERC721TokenReceiver.sol\";\r\nimport \"./interfaces/IVoucherKernel.sol\";\r\nimport \"./UsingHelpers.sol\";\r\n\r\n//preparing for ERC-1066, ERC-1444, EIP-838\r\n\r\n/**\r\n * @title VoucherKernel contract is controlling the core business logic\r\n * @dev Notes:\r\n *  - Since this is a reference app, it is not yet optimized.\r\n *      In the next phase, the bulk raw data will be packed into a single bytes32 field and/or pushed off-chain.\r\n *  - The usage of block.timestamp is honored since vouchers are defined currently with day-precision.\r\n *      See: https://ethereum.stackexchange.com/questions/5924/how-do-ethereum-mining-nodes-maintain-a-time-consistent-with-the-network/5931#5931\r\n */\r\n// solhint-disable-next-line\r\ncontract VoucherKernel is IVoucherKernel, Ownable, Pausable, UsingHelpers {\r\n    using Address for address;\r\n    using SafeMath for uint256;\r\n\r\n    //AssetRegistry assetRegistry;\r\n    address public tokensContract;\r\n\r\n    //promise for an asset could be reusable, but simplified here for brevity\r\n    struct Promise {\r\n        bytes32 promiseId;\r\n        uint256 nonce; //the asset that is offered\r\n        address seller; //the seller who created the promise\r\n        //we simplify the value for the demoapp, otherwise voucher details would be packed in one bytes32 field value\r\n        uint256 validFrom;\r\n        uint256 validTo;\r\n        uint256 price;\r\n        uint256 depositSe;\r\n        uint256 depositBu;\r\n        uint256 idx;\r\n    }\r\n\r\n    struct VoucherPaymentMethod {\r\n        uint8 paymentMethod;\r\n        address addressTokenPrice;\r\n        address addressTokenDeposits;\r\n    }\r\n\r\n    address public bosonRouterAddress; //address of the Boson Router contract\r\n    address public cashierAddress; //address of the Cashier contract\r\n\r\n    mapping(bytes32 => Promise) public promises; //promises to deliver goods or services\r\n    mapping(address => uint256) public tokenNonces; //mapping between seller address and its own nonces. Every time seller creates supply ID it gets incremented. Used to avoid duplicate ID's\r\n    mapping(uint256 => VoucherPaymentMethod) public paymentDetails; // tokenSupplyId to VoucherPaymentMethod\r\n\r\n    bytes32[] public promiseKeys;\r\n\r\n    mapping(uint256 => bytes32) public ordersPromise; //mapping between an order (supply a.k.a. VoucherSet token) and a promise\r\n\r\n    mapping(uint256 => VoucherStatus) public vouchersStatus; //recording the vouchers evolution\r\n\r\n    //standard reqs\r\n    mapping(uint256 => mapping(address => uint256)) private balances; //balance of token ids of an account\r\n    mapping(address => mapping(address => bool)) private operatorApprovals; //approval of accounts of an operator\r\n\r\n    //ID reqs\r\n    mapping(uint256 => uint256) public typeCounters; //counter for ID of a particular type of NFT\r\n    uint256 public constant MASK_TYPE = uint256(uint128(~0)) << 128; //the type mask in the upper 128 bits\r\n    //1111111111111111111111111111111111111111111111111111111111111111111111111111111111111111111111111111111111111111111111111111111100000000000000000000000000000000000000000000000000000000000000000000000000000000000000000000000000000000000000000000000000000000\r\n\r\n    uint256 public constant MASK_NF_INDEX = uint128(~0); //the non-fungible index mask in the lower 128\r\n    //0000000000000000000000000000000000000000000000000000000000000000000000000000000000000000000000000000000000000000000000000000000011111111111111111111111111111111111111111111111111111111111111111111111111111111111111111111111111111111111111111111111111111111\r\n\r\n    uint256 public constant TYPE_NF_BIT = 1 << 255; //the first bit represents an NFT type\r\n    //1000000000000000000000000000000000000000000000000000000000000000000000000000000000000000000000000000000000000000000000000000000000000000000000000000000000000000000000000000000000000000000000000000000000000000000000000000000000000000000000000000000000000000\r\n\r\n    uint256 public typeId; //base token type ... 127-bits cover 1.701411835*10^38 types (not differentiating between FTs and NFTs)\r\n    /* Token IDs:\r\n    Fungibles: 0, followed by 127-bit FT type ID, in the upper 128 bits, followed by 0 in lower 128-bits\r\n    <0><uint127: base token id><uint128: 0>\r\n    \r\n    Non-fungible VoucherSets (supply tokens): 1, followed by 127-bit NFT type ID, in the upper 128 bits, followed by 0 in lower 128-bits\r\n    <1><uint127: base token id><uint128: 0    \r\n    \r\n    Non-fungible vouchers: 1, followed by 127-bit NFT type ID, in the upper 128 bits, followed by a 1-based index of an NFT token ID.\r\n    <1><uint127: base token id><uint128: index of non-fungible>\r\n    */\r\n\r\n    uint256 public complainPeriod;\r\n    uint256 public cancelFaultPeriod;\r\n\r\n    event LogPromiseCreated(\r\n        bytes32 indexed _promiseId,\r\n        uint256 indexed _nonce,\r\n        address indexed _seller,\r\n        uint256 _validFrom,\r\n        uint256 _validTo,\r\n        uint256 _idx\r\n    );\r\n\r\n    event LogVoucherDelivered(\r\n        uint256 indexed _tokenIdSupply,\r\n        uint256 _tokenIdVoucher,\r\n        address _issuer,\r\n        address _holder,\r\n        bytes32 _promiseId,\r\n        uint256 _correlationId\r\n    );\r\n\r\n    event LogVoucherRedeemed(\r\n        uint256 _tokenIdVoucher,\r\n        address _holder,\r\n        bytes32 _promiseId\r\n    );\r\n\r\n    event LogVoucherRefunded(uint256 _tokenIdVoucher);\r\n\r\n    event LogVoucherComplain(uint256 _tokenIdVoucher);\r\n\r\n    event LogVoucherFaultCancel(uint256 _tokenIdVoucher);\r\n\r\n    event LogExpirationTriggered(uint256 _tokenIdVoucher, address _triggeredBy);\r\n\r\n    event LogFinalizeVoucher(uint256 _tokenIdVoucher, address _triggeredBy);\r\n\r\n    event LogBosonRouterSet(address _newBosonRouter, address _triggeredBy);\r\n\r\n    event LogCashierSet(address _newCashier, address _triggeredBy);\r\n\r\n    event LogComplainPeriodChanged(\r\n        uint256 _newComplainPeriod,\r\n        address _triggeredBy\r\n    );\r\n\r\n    event LogCancelFaultPeriodChanged(\r\n        uint256 _newCancelFaultPeriod,\r\n        address _triggeredBy\r\n    );\r\n\r\n    event LogVoucherSetFaultCancel(uint256 _tokenIdSupply, address _issuer);\r\n\r\n    event LogFundsReleased(\r\n        uint256 _tokenIdVoucher,\r\n        uint8 _type //0 .. payment, 1 .. deposits\r\n    );\r\n\r\n    modifier onlyFromRouter() {\r\n        require(bosonRouterAddress != address(0), \"UNSPECIFIED_BR\"); //hex\"20\" FISSION.code(FISSION.Category.Find, FISSION.Status.NotFound_Unequal_OutOfRange)\r\n        require(msg.sender == bosonRouterAddress, \"UNAUTHORIZED_BR\"); //hex\"10\" FISSION.code(FISSION.Category.Permission, FISSION.Status.Disallowed_Stop)\r\n        _;\r\n    }\r\n\r\n    modifier onlyFromCashier() {\r\n        require(cashierAddress != address(0), \"UNSPECIFIED_BR\"); //hex\"20\" FISSION.code(FISSION.Category.Find, FISSION.Status.NotFound_Unequal_OutOfRange)\r\n        require(msg.sender == cashierAddress, \"UNAUTHORIZED_C\"); //hex\"10\" FISSION.code(FISSION.Category.Permission, FISSION.Status.Disallowed_Stop)\r\n        _;\r\n    }\r\n\r\n    modifier onlyVoucherOwner(uint256 _tokenIdVoucher, address _sender) {\r\n        //check authorization\r\n        require(\r\n            IERC721(tokensContract).ownerOf(_tokenIdVoucher) == _sender,\r\n            \"UNAUTHORIZED_V\"\r\n        ); //hex\"10\" FISSION.code(FISSION.Category.Permission, FISSION.Status.Disallowed_Stop)\r\n        _;\r\n    }\r\n\r\n    constructor(address _tokensContract) {\r\n        tokensContract = _tokensContract;\r\n\r\n        complainPeriod = 7 * 1 days;\r\n        cancelFaultPeriod = 7 * 1 days;\r\n    }\r\n\r\n    /**\r\n     * @notice Pause the process of interaction with voucherID's (ERC-721), in case of emergency.\r\n     * Only BR contract is in control of this function.\r\n     */\r\n    function pause() external override onlyFromRouter {\r\n        _pause();\r\n    }\r\n\r\n    /**\r\n     * @notice Unpause the process of interaction with voucherID's (ERC-721).\r\n     * Only BR contract is in control of this function.\r\n     */\r\n    function unpause() external override onlyFromRouter {\r\n        _unpause();\r\n    }\r\n\r\n    /**\r\n     * @notice Creating a new promise for goods or services.\r\n     * Can be reused, e.g. for making different batches of these (in the future).\r\n     * @param _seller      seller of the promise\r\n     * @param _validFrom   Start of valid period\r\n     * @param _validTo     End of valid period\r\n     * @param _price       Price (payment amount)\r\n     * @param _depositSe   Seller's deposit\r\n     * @param _depositBu   Buyer's deposit\r\n     */\r\n    function createTokenSupplyID(\r\n        address _seller,\r\n        uint256 _validFrom,\r\n        uint256 _validTo,\r\n        uint256 _price,\r\n        uint256 _depositSe,\r\n        uint256 _depositBu,\r\n        uint256 _quantity\r\n    ) external override onlyFromRouter returns (uint256) {\r\n        require(_validFrom <= _validTo, \"INVALID_VALIDITY_FROM\"); //hex\"26\" FISSION.code(FISSION.Category.Find, FISSION.Status.Above_Range_Overflow)\r\n        // solhint-disable-next-line not-rely-on-time\r\n        require(_validTo >= block.timestamp + 5 minutes, \"INVALID_VALIDITY_TO\"); //\"Minimum order validity is set to prevent any potential attack from flash-loans or similar.\" //hex\"24\" FISSION.code(FISSION.Category.Find, FISSION.Status.BelowRange_Underflow)\r\n\r\n        bytes32 key;\r\n        key = keccak256(\r\n            abi.encodePacked(tokenNonces[_seller]++, _validFrom, _validTo)\r\n        );\r\n\r\n        if (promiseKeys.length > 0) {\r\n            require(\r\n                promiseKeys[promises[key].idx] != key,\r\n                \"PROMISE_ALREADY_EXISTS\"\r\n            );\r\n        }\r\n\r\n        promises[key] = Promise({\r\n            promiseId: key,\r\n            nonce: tokenNonces[_seller],\r\n            seller: _seller,\r\n            validFrom: _validFrom,\r\n            validTo: _validTo,\r\n            price: _price,\r\n            depositSe: _depositSe,\r\n            depositBu: _depositBu,\r\n            idx: promiseKeys.length\r\n        });\r\n\r\n        promiseKeys.push(key);\r\n\r\n        emit LogPromiseCreated(\r\n            key,\r\n            tokenNonces[_seller],\r\n            _seller,\r\n            _validFrom,\r\n            _validTo,\r\n            promiseKeys.length - 1\r\n        );\r\n\r\n        return createOrder(_seller, key, _quantity);\r\n    }\r\n\r\n    /**\r\n     * @notice Creates a Payment method struct recording the details on how the seller requires to receive Price and Deposits for a certain Voucher Set.\r\n     * @param _tokenIdSupply     _tokenIdSupply of the voucher set this is related to\r\n     * @param _paymentMethod  might be ETHETH, ETHTKN, TKNETH or TKNTKN\r\n     * @param _tokenPrice   token address which will hold the funds for the price of the voucher\r\n     * @param _tokenDeposits   token address which will hold the funds for the deposits of the voucher\r\n     */\r\n    function createPaymentMethod(\r\n        uint256 _tokenIdSupply,\r\n        uint8 _paymentMethod,\r\n        address _tokenPrice,\r\n        address _tokenDeposits\r\n    ) external override onlyFromRouter {\r\n        paymentDetails[_tokenIdSupply] = VoucherPaymentMethod({\r\n            paymentMethod: _paymentMethod,\r\n            addressTokenPrice: _tokenPrice,\r\n            addressTokenDeposits: _tokenDeposits\r\n        });\r\n    }\r\n\r\n    /**\r\n     * @notice Create an order for offering a certain quantity of an asset\r\n     * This creates a listing in a marketplace, technically as an ERC-1155 non-fungible token with supply.\r\n     * @param _seller     seller of the promise\r\n     * @param _promiseId  ID of a promise (simplified into asset for demo)\r\n     * @param _quantity   Quantity of assets on offer\r\n     */\r\n    function createOrder(\r\n        address _seller,\r\n        bytes32 _promiseId,\r\n        uint256 _quantity\r\n    ) private returns (uint256) {\r\n        require(_promiseId != bytes32(0), \"UNSPECIFIED_PROMISE\"); //hex\"20\" FISSION.code(FISSION.Category.Find, FISSION.Status.NotFound_Unequal_OutOfRange)\r\n        require(promises[_promiseId].seller == _seller, \"UNAUTHORIZED_CO\"); //hex\"10\" FISSION.code(FISSION.Category.Permission, FISSION.Status.Disallowed_Stop)\r\n        require(_quantity > 0, \"INVALID_QUANTITY\"); //hex\"24\" FISSION.code(FISSION.Category.Find, FISSION.Status.BelowRange_Underflow)\r\n\r\n        uint256 tokenIdSupply = generateTokenType(true); //create & assign a new non-fungible type\r\n\r\n        ordersPromise[tokenIdSupply] = _promiseId;\r\n\r\n        IERC1155ERC721(tokensContract).mint(\r\n            _seller,\r\n            tokenIdSupply,\r\n            _quantity,\r\n            \"\"\r\n        );\r\n\r\n        return tokenIdSupply;\r\n    }\r\n\r\n    /**\r\n     * @notice Fill Voucher Order, iff funds paid, then extract & mint NFT to the voucher holder\r\n     * @param _tokenIdSupply   ID of the supply token (ERC-1155)\r\n     * @param _issuer          Address of the token's issuer\r\n     * @param _holder          Address of the recipient of the voucher (ERC-721)\r\n     * @param _correlationId           ID of the current interaction with the smart contract for a specific user\r\n     */\r\n    function fillOrder(\r\n        uint256 _tokenIdSupply,\r\n        address _issuer,\r\n        address _holder,\r\n        uint256 _correlationId\r\n    ) external override onlyFromRouter {\r\n        //checks\r\n        checkOrderFillable(_tokenIdSupply, _issuer, _holder);\r\n\r\n        //close order\r\n        uint256 voucherTokenId = extract721(_issuer, _holder, _tokenIdSupply);\r\n\r\n        emit LogVoucherDelivered(\r\n            _tokenIdSupply,\r\n            voucherTokenId,\r\n            _issuer,\r\n            _holder,\r\n            getPromiseIdFromVoucherId(voucherTokenId),\r\n            _correlationId\r\n        );\r\n    }\r\n\r\n    /**\r\n     * @notice Check order is fillable\r\n     * @dev Will throw if checks don't pass\r\n     * @param _tokenIdSupply  ID of the supply token\r\n     * @param _issuer  Address of the token's issuer\r\n     * @param _holder  Address of the recipient of the voucher (ERC-721)\r\n     */\r\n    function checkOrderFillable(\r\n        uint256 _tokenIdSupply,\r\n        address _issuer,\r\n        address _holder\r\n    ) internal view {\r\n        require(_tokenIdSupply != 0, \"UNSPECIFIED_ID\"); //hex\"20\" FISSION.code(FISSION.Category.Find, FISSION.Status.NotFound_Unequal_OutOfRange)\r\n\r\n        if (_holder.isContract()) {\r\n            require(\r\n                IERC165(_holder).supportsInterface(0x150b7a02),\r\n                \"UNSUPPORTED_ERC721_RECEIVED\"\r\n            ); //hex\"31\"\r\n            //bytes4(keccak256(\"onERC721Received(address,address,uint256,bytes)\"))\r\n        }\r\n\r\n        require(_holder != address(0), \"UNSPECIFIED_ADDRESS\"); //hex\"20\" FISSION.code(FISSION.Category.Find, FISSION.Status.NotFound_Unequal_OutOfRange)\r\n        require(\r\n            IERC1155(tokensContract).balanceOf(_issuer, _tokenIdSupply) > 0,\r\n            \"OFFER_EMPTY\"\r\n        ); //hex\"40\" FISSION.code(FISSION.Category.Availability, FISSION.Status.Unavailable)\r\n\r\n        bytes32 promiseKey = ordersPromise[_tokenIdSupply];\r\n\r\n        require(\r\n            promises[promiseKey].validTo >= block.timestamp,\r\n            \"OFFER_EXPIRED\"\r\n        );\r\n    }\r\n\r\n    /**\r\n     * @notice Extract a standard non-fungible token ERC-721 from a supply stored in ERC-1155\r\n     * @dev Token ID is derived following the same principles for both ERC-1155 and ERC-721\r\n     * @param _issuer          The address of the token issuer\r\n     * @param _to              The address of the token holder\r\n     * @param _tokenIdSupply   ID of the token type\r\n     * @return                 ID of the voucher token\r\n     */\r\n    function extract721(\r\n        address _issuer,\r\n        address _to,\r\n        uint256 _tokenIdSupply\r\n    ) internal returns (uint256) {\r\n        if (_to.isContract()) {\r\n            require(\r\n                ERC721TokenReceiver(_to).onERC721Received(\r\n                    _issuer,\r\n                    msg.sender,\r\n                    _tokenIdSupply,\r\n                    \"\"\r\n                ) == ERC721TokenReceiver(_to).onERC721Received.selector,\r\n                \"UNSUPPORTED_ERC721_RECEIVED\"\r\n            ); //hex\"10\" FISSION.code(FISSION.Category.Permission, FISSION.Status.Disallowed_Stop)\r\n            //bytes4(keccak256(\"onERC721Received(address,address,uint256,bytes)\"))\r\n        }\r\n\r\n        IERC1155ERC721(tokensContract).burn(_issuer, _tokenIdSupply, 1); // This is hardcoded as 1 on purpose\r\n\r\n        //calculate tokenId\r\n        uint256 voucherTokenId =\r\n            _tokenIdSupply | ++typeCounters[_tokenIdSupply];\r\n\r\n        //set status\r\n        vouchersStatus[voucherTokenId].status = setChange(\r\n            vouchersStatus[voucherTokenId].status,\r\n            IDX_COMMIT\r\n        );\r\n        vouchersStatus[voucherTokenId].isPaymentReleased = false;\r\n        vouchersStatus[voucherTokenId].isDepositsReleased = false;\r\n\r\n        //mint voucher NFT as ERC-721\r\n        IERC1155ERC721(tokensContract).mint(_to, voucherTokenId);\r\n\r\n        return voucherTokenId;\r\n    }\r\n\r\n    /**\r\n     * @notice Extract a standard non-fungible tokens ERC-721 from a supply stored in ERC-1155\r\n     * @dev Token ID is derived following the same principles for both ERC-1155 and ERC-721\r\n     * @param _issuer          The address of the token issuer\r\n     * @param _tokenIdSupply   ID of the token type\r\n     * @param _qty   qty that should be burned\r\n     */\r\n    function burnSupplyOnPause(\r\n        address _issuer,\r\n        uint256 _tokenIdSupply,\r\n        uint256 _qty\r\n    ) external override whenPaused onlyFromCashier {\r\n        IERC1155ERC721(tokensContract).burn(_issuer, _tokenIdSupply, _qty);\r\n    }\r\n\r\n    /**\r\n     * @notice Creating a new token type, serving as the base for tokenID generation for NFTs, and a de facto ID for FTs.\r\n     * @param _isNonFungible   Flag for generating NFT or FT\r\n     * @return _tokenType   Returns a newly generated token type\r\n     */\r\n    function generateTokenType(bool _isNonFungible)\r\n        internal\r\n        returns (uint256 _tokenType)\r\n    {\r\n        typeId++;\r\n\r\n        if (_isNonFungible) {\r\n            _tokenType = TYPE_NF_BIT | (typeId << 128); //upper bit is 1, followed by sequence, leaving lower 128-bits as 0\r\n        } else {\r\n            _tokenType = typeId << 128; //upper bit is not set, followed by sequence, leaving lower 128-bits as 0\r\n        }\r\n\r\n        return _tokenType;\r\n    }\r\n\r\n    /* solhint-disable */\r\n\r\n    /**\r\n     * @notice Redemption of the vouchers promise\r\n     * @param _tokenIdVoucher   ID of the voucher\r\n     * @param _msgSender   account called the fn from the BR contract\r\n     */\r\n    function redeem(uint256 _tokenIdVoucher, address _msgSender)\r\n        external\r\n        override\r\n        whenNotPaused\r\n        onlyFromRouter\r\n        onlyVoucherOwner(_tokenIdVoucher, _msgSender)\r\n    {\r\n        //check status\r\n        require(\r\n            isStateCommitted(vouchersStatus[_tokenIdVoucher].status),\r\n            \"ALREADY_PROCESSED\"\r\n        ); //hex\"48\" FISSION.code(FISSION.Category.Availability, FISSION.Status.AlreadyDone)\r\n\r\n        //check validity period\r\n        isInValidityPeriod(_tokenIdVoucher);\r\n        Promise memory tPromise =\r\n            promises[getPromiseIdFromVoucherId(_tokenIdVoucher)];\r\n\r\n        vouchersStatus[_tokenIdVoucher].complainPeriodStart = block.timestamp;\r\n        vouchersStatus[_tokenIdVoucher].status = setChange(\r\n            vouchersStatus[_tokenIdVoucher].status,\r\n            IDX_REDEEM\r\n        );\r\n\r\n        emit LogVoucherRedeemed(\r\n            _tokenIdVoucher,\r\n            _msgSender,\r\n            tPromise.promiseId\r\n        );\r\n    }\r\n\r\n    // // // // // // // //\r\n    // UNHAPPY PATH\r\n    // // // // // // // //\r\n\r\n    /**\r\n     * @notice Refunding a voucher\r\n     * @param _tokenIdVoucher   ID of the voucher\r\n     * @param _msgSender   account called the fn from the BR contract\r\n     */\r\n    function refund(uint256 _tokenIdVoucher, address _msgSender)\r\n        external\r\n        override\r\n        whenNotPaused\r\n        onlyFromRouter\r\n        onlyVoucherOwner(_tokenIdVoucher, _msgSender)\r\n    {\r\n        require(\r\n            isStateCommitted(vouchersStatus[_tokenIdVoucher].status),\r\n            \"INAPPLICABLE_STATUS\"\r\n        ); //hex\"18\" FISSION.code(FISSION.Category.Permission, FISSION.Status.NotApplicableToCurrentState)\r\n\r\n        //check validity period\r\n        isInValidityPeriod(_tokenIdVoucher);\r\n\r\n        vouchersStatus[_tokenIdVoucher].complainPeriodStart = block.timestamp;\r\n        vouchersStatus[_tokenIdVoucher].status = setChange(\r\n            vouchersStatus[_tokenIdVoucher].status,\r\n            IDX_REFUND\r\n        );\r\n\r\n        emit LogVoucherRefunded(_tokenIdVoucher);\r\n    }\r\n\r\n    /**\r\n     * @notice Issue a complain for a voucher\r\n     * @param _tokenIdVoucher   ID of the voucher\r\n     * @param _msgSender   account called the fn from the BR contract\r\n     */\r\n    function complain(uint256 _tokenIdVoucher, address _msgSender)\r\n        external\r\n        override\r\n        whenNotPaused\r\n        onlyFromRouter\r\n        onlyVoucherOwner(_tokenIdVoucher, _msgSender)\r\n    {\r\n        require(\r\n            !isStatus(vouchersStatus[_tokenIdVoucher].status, IDX_COMPLAIN),\r\n            \"ALREADY_COMPLAINED\"\r\n        ); //hex\"48\" FISSION.code(FISSION.Category.Availability, FISSION.Status.AlreadyDone)\r\n        require(\r\n            !isStatus(vouchersStatus[_tokenIdVoucher].status, IDX_FINAL),\r\n            \"ALREADY_FINALIZED\"\r\n        ); //hex\"48\" FISSION.code(FISSION.Category.Availability, FISSION.Status.AlreadyDone)\r\n\r\n        //check if still in the complain period\r\n        Promise memory tPromise =\r\n            promises[getPromiseIdFromVoucherId(_tokenIdVoucher)];\r\n\r\n        //if redeemed or refunded\r\n        if (\r\n            isStateRedemptionSigned(vouchersStatus[_tokenIdVoucher].status) ||\r\n            isStateRefunded(vouchersStatus[_tokenIdVoucher].status)\r\n        ) {\r\n            if (\r\n                !isStatus(\r\n                    vouchersStatus[_tokenIdVoucher].status,\r\n                    IDX_CANCEL_FAULT\r\n                )\r\n            ) {\r\n                require(\r\n                    block.timestamp <=\r\n                        vouchersStatus[_tokenIdVoucher].complainPeriodStart +\r\n                            complainPeriod +\r\n                            cancelFaultPeriod,\r\n                    \"COMPLAINPERIOD_EXPIRED\"\r\n                ); //hex\"46\" FISSION.code(FISSION.Category.Availability, FISSION.Status.Expired)\r\n            } else {\r\n                require(\r\n                    block.timestamp <=\r\n                        vouchersStatus[_tokenIdVoucher].complainPeriodStart +\r\n                            complainPeriod,\r\n                    \"COMPLAINPERIOD_EXPIRED\"\r\n                ); //hex\"46\" FISSION.code(FISSION.Category.Availability, FISSION.Status.Expired)\r\n            }\r\n\r\n            vouchersStatus[_tokenIdVoucher].cancelFaultPeriodStart = block\r\n                .timestamp;\r\n            vouchersStatus[_tokenIdVoucher].status = setChange(\r\n                vouchersStatus[_tokenIdVoucher].status,\r\n                IDX_COMPLAIN\r\n            );\r\n\r\n            emit LogVoucherComplain(_tokenIdVoucher);\r\n\r\n            //if expired\r\n        } else if (isStateExpired(vouchersStatus[_tokenIdVoucher].status)) {\r\n            if (\r\n                !isStatus(\r\n                    vouchersStatus[_tokenIdVoucher].status,\r\n                    IDX_CANCEL_FAULT\r\n                )\r\n            ) {\r\n                require(\r\n                    block.timestamp <=\r\n                        tPromise.validTo + complainPeriod + cancelFaultPeriod,\r\n                    \"COMPLAINPERIOD_EXPIRED\"\r\n                ); //hex\"46\" FISSION.code(FISSION.Category.Availability, FISSION.Status.Expired)\r\n            } else {\r\n                require(\r\n                    block.timestamp <= tPromise.validTo + complainPeriod,\r\n                    \"COMPLAINPERIOD_EXPIRED\"\r\n                ); //hex\"46\" FISSION.code(FISSION.Category.Availability, FISSION.Status.Expired)\r\n            }\r\n\r\n            vouchersStatus[_tokenIdVoucher].cancelFaultPeriodStart = block\r\n                .timestamp;\r\n            vouchersStatus[_tokenIdVoucher].status = setChange(\r\n                vouchersStatus[_tokenIdVoucher].status,\r\n                IDX_COMPLAIN\r\n            );\r\n\r\n            emit LogVoucherComplain(_tokenIdVoucher);\r\n\r\n            //if cancelOrFault\r\n        } else if (\r\n            isStatus(vouchersStatus[_tokenIdVoucher].status, IDX_CANCEL_FAULT)\r\n        ) {\r\n            require(\r\n                block.timestamp <=\r\n                    vouchersStatus[_tokenIdVoucher].complainPeriodStart +\r\n                        complainPeriod,\r\n                \"COMPLAINPERIOD_EXPIRED\"\r\n            ); //hex\"46\" FISSION.code(FISSION.Category.Availability, FISSION.Status.Expired));\r\n\r\n            vouchersStatus[_tokenIdVoucher].status = setChange(\r\n                vouchersStatus[_tokenIdVoucher].status,\r\n                IDX_COMPLAIN\r\n            );\r\n\r\n            emit LogVoucherComplain(_tokenIdVoucher);\r\n        } else {\r\n            revert(\"INAPPLICABLE_STATUS\"); //hex\"18\" FISSION.code(FISSION.Category.Permission, FISSION.Status.NotApplicableToCurrentState)\r\n        }\r\n    }\r\n\r\n    /**\r\n     * @notice Cancel/Fault transaction by the Seller, admitting to a fault or backing out of the deal\r\n     * @param _tokenIdVoucher   ID of the voucher\r\n     */\r\n    function cancelOrFault(uint256 _tokenIdVoucher, address _msgSender)\r\n        external\r\n        override\r\n        whenNotPaused\r\n    {\r\n        uint256 tokenIdSupply = getIdSupplyFromVoucher(_tokenIdVoucher);\r\n        require(\r\n            getSupplyHolder(tokenIdSupply) == _msgSender,\r\n            \"UNAUTHORIZED_COF\"\r\n        ); //hex\"10\" FISSION.code(FISSION.Category.Permission, FISSION.Status.Disallowed_Stop)\r\n\r\n        uint8 tStatus = vouchersStatus[_tokenIdVoucher].status;\r\n\r\n        require(!isStatus(tStatus, IDX_CANCEL_FAULT), \"ALREADY_CANCELFAULT\"); //hex\"48\" FISSION.code(FISSION.Category.Availability, FISSION.Status.AlreadyDone)\r\n        require(!isStatus(tStatus, IDX_FINAL), \"ALREADY_FINALIZED\"); //hex\"48\" FISSION.code(FISSION.Category.Availability, FISSION.Status.AlreadyDone)\r\n\r\n        Promise memory tPromise =\r\n            promises[getPromiseIdFromVoucherId(_tokenIdVoucher)];\r\n\r\n        if (isStatus(tStatus, IDX_REDEEM) || isStatus(tStatus, IDX_REFUND)) {\r\n            //if redeemed or refunded\r\n            if (!isStatus(tStatus, IDX_COMPLAIN)) {\r\n                require(\r\n                    block.timestamp <=\r\n                        vouchersStatus[_tokenIdVoucher].complainPeriodStart +\r\n                            complainPeriod +\r\n                            cancelFaultPeriod,\r\n                    \"COFPERIOD_EXPIRED\"\r\n                ); //hex\"46\" FISSION.code(FISSION.Category.Availability, FISSION.Status.Expired)\r\n                vouchersStatus[_tokenIdVoucher].complainPeriodStart = block\r\n                    .timestamp; //resetting the complain period\r\n            } else {\r\n                require(\r\n                    block.timestamp <=\r\n                        vouchersStatus[_tokenIdVoucher].cancelFaultPeriodStart +\r\n                            cancelFaultPeriod,\r\n                    \"COFPERIOD_EXPIRED\"\r\n                ); //hex\"46\" FISSION.code(FISSION.Category.Availability, FISSION.Status.Expired)\r\n            }\r\n        } else if (isStatus(tStatus, IDX_EXPIRE)) {\r\n            //if expired\r\n            if (!isStatus(tStatus, IDX_COMPLAIN)) {\r\n                require(\r\n                    block.timestamp <=\r\n                        tPromise.validTo + complainPeriod + cancelFaultPeriod,\r\n                    \"COFPERIOD_EXPIRED\"\r\n                ); //hex\"46\" FISSION.code(FISSION.Category.Availability, FISSION.Status.Expired)\r\n            } else {\r\n                require(\r\n                    block.timestamp <=\r\n                        vouchersStatus[_tokenIdVoucher].cancelFaultPeriodStart +\r\n                            cancelFaultPeriod,\r\n                    \"COFPERIOD_EXPIRED\"\r\n                ); //hex\"46\" FISSION.code(FISSION.Category.Availability, FISSION.Status.Expired)\r\n            }\r\n        } else if (isStateCommitted(tStatus)) {\r\n            //if committed only\r\n            require(\r\n                block.timestamp <=\r\n                    tPromise.validTo + complainPeriod + cancelFaultPeriod,\r\n                \"COFPERIOD_EXPIRED\"\r\n            ); //hex\"46\" FISSION.code(FISSION.Category.Availability, FISSION.Status.Expired)\r\n            vouchersStatus[_tokenIdVoucher].complainPeriodStart = block.timestamp; //complain period starts\r\n        } else {\r\n            revert(\"INAPPLICABLE_STATUS\"); //hex\"18\" FISSION.code(FISSION.Category.Permission, FISSION.Status.NotApplicableToCurrentState)\r\n        }\r\n\r\n        vouchersStatus[_tokenIdVoucher].status = setChange(\r\n            tStatus,\r\n            IDX_CANCEL_FAULT\r\n        );\r\n\r\n        emit LogVoucherFaultCancel(_tokenIdVoucher);\r\n    }\r\n\r\n    /**\r\n     * @notice Cancel/Fault transaction by the Seller, cancelling the remaining uncommitted voucher set so that seller prevents buyers from committing to vouchers for items no longer in exchange.\r\n     * @param _tokenIdSupply   ID of the voucher set\r\n     * @param _issuer   owner of the voucher\r\n     */\r\n    function cancelOrFaultVoucherSet(uint256 _tokenIdSupply, address _issuer)\r\n        external\r\n        override\r\n        onlyFromRouter\r\n        whenNotPaused\r\n        returns (uint256)\r\n    {\r\n        require(getSupplyHolder(_tokenIdSupply) == _issuer, \"UNAUTHORIZED_COF\");\r\n\r\n        uint256 remQty = getRemQtyForSupply(_tokenIdSupply, _issuer);\r\n\r\n        require(remQty > 0, \"OFFER_EMPTY\");\r\n\r\n        IERC1155ERC721(tokensContract).burn(_issuer, _tokenIdSupply, remQty);\r\n\r\n        emit LogVoucherSetFaultCancel(_tokenIdSupply, _issuer);\r\n\r\n        return remQty;\r\n    }\r\n\r\n    // // // // // // // //\r\n    // BACK-END PROCESS\r\n    // // // // // // // //\r\n\r\n    /**\r\n     * @notice Mark voucher token that the payment was released\r\n     * @param _tokenIdVoucher   ID of the voucher token\r\n     */\r\n    function setPaymentReleased(uint256 _tokenIdVoucher)\r\n        external\r\n        override\r\n        onlyFromCashier\r\n    {\r\n        require(_tokenIdVoucher != 0, \"UNSPECIFIED_ID\"); //hex\"20\" FISSION.code(FISSION.Category.Find, FISSION.Status.NotFound_Unequal_OutOfRange)\r\n        vouchersStatus[_tokenIdVoucher].isPaymentReleased = true;\r\n\r\n        emit LogFundsReleased(_tokenIdVoucher, 0);\r\n    }\r\n\r\n    /**\r\n     * @notice Mark voucher token that the deposits were released\r\n     * @param _tokenIdVoucher   ID of the voucher token\r\n     */\r\n    function setDepositsReleased(uint256 _tokenIdVoucher)\r\n        external\r\n        override\r\n        onlyFromCashier\r\n    {\r\n        require(_tokenIdVoucher != 0, \"UNSPECIFIED_ID\"); //hex\"20\" FISSION.code(FISSION.Category.Find, FISSION.Status.NotFound_Unequal_OutOfRange)\r\n        vouchersStatus[_tokenIdVoucher].isDepositsReleased = true;\r\n\r\n        emit LogFundsReleased(_tokenIdVoucher, 1);\r\n    }\r\n\r\n    /**\r\n     * @notice Mark voucher token as expired\r\n     * @param _tokenIdVoucher   ID of the voucher token\r\n     */\r\n    function triggerExpiration(uint256 _tokenIdVoucher) external override {\r\n        require(_tokenIdVoucher != 0, \"UNSPECIFIED_ID\"); //hex\"20\" FISSION.code(FISSION.Category.Find, FISSION.Status.NotFound_Unequal_OutOfRange)\r\n\r\n        Promise memory tPromise =\r\n            promises[getPromiseIdFromVoucherId(_tokenIdVoucher)];\r\n\r\n        if (\r\n            tPromise.validTo < block.timestamp &&\r\n            isStateCommitted(vouchersStatus[_tokenIdVoucher].status)\r\n        ) {\r\n            vouchersStatus[_tokenIdVoucher].status = setChange(\r\n                vouchersStatus[_tokenIdVoucher].status,\r\n                IDX_EXPIRE\r\n            );\r\n\r\n            emit LogExpirationTriggered(_tokenIdVoucher, msg.sender);\r\n        }\r\n    }\r\n\r\n    /**\r\n     * @notice Mark voucher token to the final status\r\n     * @param _tokenIdVoucher   ID of the voucher token\r\n     */\r\n    function triggerFinalizeVoucher(uint256 _tokenIdVoucher) external override {\r\n        require(_tokenIdVoucher != 0, \"UNSPECIFIED_ID\"); //hex\"20\" FISSION.code(FISSION.Category.Find, FISSION.Status.NotFound_Unequal_OutOfRange)\r\n\r\n        uint8 tStatus = vouchersStatus[_tokenIdVoucher].status;\r\n\r\n        require(!isStatus(tStatus, IDX_FINAL), \"ALREADY_FINALIZED\"); //hex\"48\" FISSION.code(FISSION.Category.Availability, FISSION.Status.AlreadyDone)\r\n\r\n        bool mark;\r\n        Promise memory tPromise =\r\n            promises[getPromiseIdFromVoucherId(_tokenIdVoucher)];\r\n\r\n        if (isStatus(tStatus, IDX_COMPLAIN)) {\r\n            if (isStatus(tStatus, IDX_CANCEL_FAULT)) {\r\n                //if COMPLAIN && COF: then final\r\n                mark = true;\r\n            } else if (\r\n                block.timestamp >=\r\n                vouchersStatus[_tokenIdVoucher].cancelFaultPeriodStart +\r\n                    cancelFaultPeriod\r\n            ) {\r\n                //if COMPLAIN: then final after cof period\r\n                mark = true;\r\n            }\r\n        } else if (\r\n            isStatus(tStatus, IDX_CANCEL_FAULT) &&\r\n            block.timestamp >=\r\n            vouchersStatus[_tokenIdVoucher].complainPeriodStart + complainPeriod\r\n        ) {\r\n            //if COF: then final after complain period\r\n            mark = true;\r\n        } else if (\r\n            isStateRedemptionSigned(tStatus) || isStateRefunded(tStatus)\r\n        ) {\r\n            //if RDM/RFND NON_COMPLAIN: then final after complainPeriodStart + complainPeriod\r\n            if (\r\n                block.timestamp >=\r\n                vouchersStatus[_tokenIdVoucher].complainPeriodStart +\r\n                    complainPeriod\r\n            ) {\r\n                mark = true;\r\n            }\r\n        } else if (isStateExpired(tStatus)) {\r\n            //if EXP NON_COMPLAIN: then final after validTo + complainPeriod\r\n            if (block.timestamp >= tPromise.validTo + complainPeriod) {\r\n                mark = true;\r\n            }\r\n        }\r\n\r\n        if (mark) {\r\n            vouchersStatus[_tokenIdVoucher].status = setChange(\r\n                tStatus,\r\n                IDX_FINAL\r\n            );\r\n            emit LogFinalizeVoucher(_tokenIdVoucher, msg.sender);\r\n        }\r\n    }\r\n\r\n    /* solhint-enable */\r\n\r\n    // // // // // // // //\r\n    // UTILS\r\n    // // // // // // // //\r\n\r\n    /**\r\n     * @notice Set the address of the new holder of a _tokenIdSupply on transfer\r\n     * @param _tokenIdSupply   _tokenIdSupply which will be transferred\r\n     * @param _newSeller   new holder of the supply\r\n     */\r\n    function setSupplyHolderOnTransfer(\r\n        uint256 _tokenIdSupply,\r\n        address _newSeller\r\n    ) external override onlyFromRouter {\r\n        bytes32 promiseKey = ordersPromise[_tokenIdSupply];\r\n        promises[promiseKey].seller = _newSeller;\r\n    }\r\n\r\n    /**\r\n     * @notice Set the address of the Boson Router contract\r\n     * @param _bosonRouterAddress   The address of the BR contract\r\n     */\r\n    function setBosonRouterAddress(address _bosonRouterAddress)\r\n        external\r\n        onlyOwner\r\n    {\r\n        require(_bosonRouterAddress != address(0), \"UNSPECIFIED_ADDRESS\"); //hex\"20\" FISSION.code(FISSION.Category.Find, FISSION.Status.NotFound_Unequal_OutOfRange)\r\n\r\n        bosonRouterAddress = _bosonRouterAddress;\r\n\r\n        emit LogBosonRouterSet(_bosonRouterAddress, msg.sender);\r\n    }\r\n\r\n    /**\r\n     * @notice Set the address of the Cashier contract\r\n     * @param _cashierAddress   The address of the BR contract\r\n     */\r\n    function setCashierAddress(address _cashierAddress)\r\n        external\r\n        override\r\n        onlyOwner\r\n    {\r\n        require(_cashierAddress != address(0), \"UNSPECIFIED_ADDRESS\"); //hex\"20\" FISSION.code(FISSION.Category.Find, FISSION.Status.NotFound_Unequal_OutOfRange)\r\n\r\n        cashierAddress = _cashierAddress;\r\n\r\n        emit LogCashierSet(_cashierAddress, msg.sender);\r\n    }\r\n\r\n    /**\r\n     * @notice Set the general complain period, should be used sparingly as it has significant consequences. Here done simply for demo purposes.\r\n     * @param _complainPeriod   the new value for complain period (in number of seconds)\r\n     */\r\n    function setComplainPeriod(uint256 _complainPeriod)\r\n        external\r\n        override\r\n        onlyOwner\r\n    {\r\n        complainPeriod = _complainPeriod;\r\n\r\n        emit LogComplainPeriodChanged(_complainPeriod, msg.sender);\r\n    }\r\n\r\n    /**\r\n     * @notice Set the general cancelOrFault period, should be used sparingly as it has significant consequences. Here done simply for demo purposes.\r\n     * @param _cancelFaultPeriod   the new value for cancelOrFault period (in number of seconds)\r\n     */\r\n    function setCancelFaultPeriod(uint256 _cancelFaultPeriod)\r\n        external\r\n        override\r\n        onlyOwner\r\n    {\r\n        cancelFaultPeriod = _cancelFaultPeriod;\r\n\r\n        emit LogCancelFaultPeriodChanged(_cancelFaultPeriod, msg.sender);\r\n    }\r\n\r\n    // // // // // // // //\r\n    // GETTERS\r\n    // // // // // // // //\r\n\r\n    /**\r\n     * @notice Get the promise ID at specific index\r\n     * @param _idx  Index in the array of promise keys\r\n     * @return      Promise ID\r\n     */\r\n    function getPromiseKey(uint256 _idx)\r\n        public\r\n        view\r\n        override\r\n        returns (bytes32)\r\n    {\r\n        return promiseKeys[_idx];\r\n    }\r\n\r\n    /**\r\n     * @notice Get the supply token ID from a voucher token\r\n     * @param _tokenIdVoucher   ID of the voucher token\r\n     * @return                  ID of the supply token\r\n     */\r\n    function getIdSupplyFromVoucher(uint256 _tokenIdVoucher)\r\n        public\r\n        pure\r\n        override\r\n        returns (uint256)\r\n    {\r\n        return _tokenIdVoucher & MASK_TYPE;\r\n    }\r\n\r\n    /**\r\n     * @notice Get the promise ID from a voucher token\r\n     * @param _tokenIdVoucher   ID of the voucher token\r\n     * @return                  ID of the promise\r\n     */\r\n    function getPromiseIdFromVoucherId(uint256 _tokenIdVoucher)\r\n        public\r\n        view\r\n        override\r\n        returns (bytes32)\r\n    {\r\n        require(_tokenIdVoucher != 0, \"UNSPECIFIED_ID\"); //hex\"20\" FISSION.code(FISSION.Category.Find, FISSION.Status.NotFound_Unequal_OutOfRange)\r\n\r\n        uint256 tokenIdSupply = getIdSupplyFromVoucher(_tokenIdVoucher);\r\n        return promises[ordersPromise[tokenIdSupply]].promiseId;\r\n    }\r\n\r\n    /**\r\n     * @notice Get the remaining quantity left in supply of tokens (e.g ERC-721 left in ERC-1155) of an account\r\n     * @param _tokenSupplyId  Token supply ID\r\n     * @param _owner    holder of the Token Supply\r\n     * @return          remaining quantity\r\n     */\r\n    function getRemQtyForSupply(uint256 _tokenSupplyId, address _owner)\r\n        public\r\n        view\r\n        override\r\n        returns (uint256)\r\n    {\r\n        return IERC1155(tokensContract).balanceOf(_owner, _tokenSupplyId);\r\n    }\r\n\r\n    /**\r\n     * @notice Get all necessary funds for a supply token\r\n     * @param _tokenIdSupply   ID of the supply token\r\n     * @return                  returns a tuple (Payment amount, Seller's deposit, Buyer's deposit)\r\n     */\r\n    function getOrderCosts(uint256 _tokenIdSupply)\r\n        public\r\n        view\r\n        override\r\n        returns (\r\n            uint256,\r\n            uint256,\r\n            uint256\r\n        )\r\n    {\r\n        bytes32 promiseKey = ordersPromise[_tokenIdSupply];\r\n        return (\r\n            promises[promiseKey].price,\r\n            promises[promiseKey].depositSe,\r\n            promises[promiseKey].depositBu\r\n        );\r\n    }\r\n\r\n    /**\r\n     * @notice Get Buyer costs required to make an order for a supply token\r\n     * @param _tokenIdSupply   ID of the supply token\r\n     * @return                  returns a tuple (Payment amount, Buyer's deposit)\r\n     */\r\n    function getBuyerOrderCosts(uint256 _tokenIdSupply)\r\n        public\r\n        view\r\n        override\r\n        returns (uint256, uint256)\r\n    {\r\n        bytes32 promiseKey = ordersPromise[_tokenIdSupply];\r\n        return (promises[promiseKey].price, promises[promiseKey].depositBu);\r\n    }\r\n\r\n    /**\r\n     * @notice Get Seller deposit\r\n     * @param _tokenIdSupply   ID of the supply token\r\n     * @return                  returns sellers deposit\r\n     */\r\n    function getSellerDeposit(uint256 _tokenIdSupply)\r\n        public\r\n        view\r\n        override\r\n        returns (uint256)\r\n    {\r\n        bytes32 promiseKey = ordersPromise[_tokenIdSupply];\r\n        return promises[promiseKey].depositSe;\r\n    }\r\n\r\n    /**\r\n     * @notice Get the current status of a voucher\r\n     * @param _tokenIdVoucher   ID of the voucher token\r\n     * @return                  Status of the voucher (via enum)\r\n     */\r\n    function getVoucherStatus(uint256 _tokenIdVoucher)\r\n        public\r\n        view\r\n        override\r\n        returns (\r\n            uint8,\r\n            bool,\r\n            bool\r\n        )\r\n    {\r\n        return (\r\n            vouchersStatus[_tokenIdVoucher].status,\r\n            vouchersStatus[_tokenIdVoucher].isPaymentReleased,\r\n            vouchersStatus[_tokenIdVoucher].isDepositsReleased\r\n        );\r\n    }\r\n\r\n    /**\r\n     * @notice Get the holder of a voucher\r\n     * @param _tokenIdVoucher   ID of the voucher token\r\n     * @return                  Address of the holder\r\n     */\r\n    function getVoucherHolder(uint256 _tokenIdVoucher)\r\n        public\r\n        view\r\n        override\r\n        returns (address)\r\n    {\r\n        return IERC721(tokensContract).ownerOf(_tokenIdVoucher);\r\n    }\r\n\r\n    /**\r\n     * @notice Get the holder of a supply\r\n     * @param _tokenIdSupply        ID of a promise which is mapped to the corresponding Promise\r\n     * @return                  Address of the holder\r\n     */\r\n    function getSupplyHolder(uint256 _tokenIdSupply)\r\n        public\r\n        view\r\n        override\r\n        returns (address)\r\n    {\r\n        bytes32 promiseKey = ordersPromise[_tokenIdSupply];\r\n        return promises[promiseKey].seller;\r\n    }\r\n\r\n    /**\r\n     * @notice Get the address of the token where the price for the supply is held\r\n     * @param _tokenIdSupply   ID of the voucher supply token\r\n     * @return                  Address of the token\r\n     */\r\n    function getVoucherPriceToken(uint256 _tokenIdSupply)\r\n        public\r\n        view\r\n        override\r\n        returns (address)\r\n    {\r\n        return paymentDetails[_tokenIdSupply].addressTokenPrice;\r\n    }\r\n\r\n    /**\r\n     * @notice Get the address of the token where the deposits for the supply are held\r\n     * @param _tokenIdSupply   ID of the voucher supply token\r\n     * @return                  Address of the token\r\n     */\r\n    function getVoucherDepositToken(uint256 _tokenIdSupply)\r\n        public\r\n        view\r\n        override\r\n        returns (address)\r\n    {\r\n        return paymentDetails[_tokenIdSupply].addressTokenDeposits;\r\n    }\r\n\r\n    /**\r\n     * @notice Get the payment method for a particular _tokenIdSupply\r\n     * @param _tokenIdSupply   ID of the voucher supply token\r\n     * @return                  payment method\r\n     */\r\n    function getVoucherPaymentMethod(uint256 _tokenIdSupply)\r\n        public\r\n        view\r\n        override\r\n        returns (uint8)\r\n    {\r\n        return paymentDetails[_tokenIdSupply].paymentMethod;\r\n    }\r\n\r\n    /**\r\n     * @notice Checks whether a voucher is in valid period for redemption (between start date and end date)\r\n     * @param _tokenIdVoucher ID of the voucher token\r\n     */\r\n    function isInValidityPeriod(uint256 _tokenIdVoucher)\r\n        public\r\n        view\r\n        override\r\n        returns (bool)\r\n    {\r\n        //check validity period\r\n        Promise memory tPromise =\r\n            promises[getPromiseIdFromVoucherId(_tokenIdVoucher)];\r\n        require(tPromise.validFrom <= block.timestamp, \"INVALID_VALIDITY_FROM\"); //hex\"26\" FISSION.code(FISSION.Category.Find, FISSION.Status.Above_Range_Overflow)\r\n        require(tPromise.validTo >= block.timestamp, \"INVALID_VALIDITY_TO\"); //hex\"24\" FISSION.code(FISSION.Category.Find, FISSION.Status.BelowRange_Underflow)\r\n\r\n        return true;\r\n    }\r\n\r\n    /**\r\n     * @notice Checks whether a voucher is in valid state to be transferred. If either payments or deposits are released, voucher could not be transferred\r\n     * @param _tokenIdVoucher ID of the voucher token\r\n     */\r\n    function isVoucherTransferable(uint256 _tokenIdVoucher) public override view returns (bool) {\r\n        return !(\r\n            vouchersStatus[_tokenIdVoucher].isPaymentReleased || \r\n            vouchersStatus[_tokenIdVoucher].isDepositsReleased\r\n        );\r\n    }\r\n}\r\n",
  "sourcePath": "E:/Ludo/Documents/Developpement/BOSON/contracts/contracts/VoucherKernel.sol",
  "compiler": {
    "name": "solc",
    "version": "0.7.1+commit.f4a555be.Emscripten.clang"
  },
  "schemaVersion": "3.2.5",
  "updatedAt": "2021-03-20T16:53:09.192Z",
  "networkType": "ethereum",
  "devdoc": {
    "details": "Notes:  - Since this is a reference app, it is not yet optimized.      In the next phase, the bulk raw data will be packed into a single bytes32 field and/or pushed off-chain.  - The usage of block.timestamp is honored since vouchers are defined currently with day-precision.      See: https://ethereum.stackexchange.com/questions/5924/how-do-ethereum-mining-nodes-maintain-a-time-consistent-with-the-network/5931#5931",
    "kind": "dev",
    "methods": {
      "burnSupplyOnPause(address,uint256,uint256)": {
        "details": "Token ID is derived following the same principles for both ERC-1155 and ERC-721",
        "params": {
          "_issuer": "The address of the token issuer",
          "_qty": "qty that should be burned",
          "_tokenIdSupply": "ID of the token type"
        }
      },
      "cancelOrFault(uint256,address)": {
        "params": {
          "_tokenIdVoucher": "ID of the voucher"
        }
      },
      "cancelOrFaultVoucherSet(uint256,address)": {
        "params": {
          "_issuer": "owner of the voucher",
          "_tokenIdSupply": "ID of the voucher set"
        }
      },
      "complain(uint256,address)": {
        "params": {
          "_msgSender": "account called the fn from the BR contract",
          "_tokenIdVoucher": "ID of the voucher"
        }
      },
      "createPaymentMethod(uint256,uint8,address,address)": {
        "params": {
          "_paymentMethod": "might be ETHETH, ETHTKN, TKNETH or TKNTKN",
          "_tokenDeposits": "token address which will hold the funds for the deposits of the voucher",
          "_tokenIdSupply": "_tokenIdSupply of the voucher set this is related to",
          "_tokenPrice": "token address which will hold the funds for the price of the voucher"
        }
      },
      "createTokenSupplyID(address,uint256,uint256,uint256,uint256,uint256,uint256)": {
        "params": {
          "_depositBu": "Buyer's deposit",
          "_depositSe": "Seller's deposit",
          "_price": "Price (payment amount)",
          "_seller": "seller of the promise",
          "_validFrom": "Start of valid period",
          "_validTo": "End of valid period"
        }
      },
      "fillOrder(uint256,address,address,uint256)": {
        "params": {
          "_correlationId": "ID of the current interaction with the smart contract for a specific user",
          "_holder": "Address of the recipient of the voucher (ERC-721)",
          "_issuer": "Address of the token's issuer",
          "_tokenIdSupply": "ID of the supply token (ERC-1155)"
        }
      },
      "getBuyerOrderCosts(uint256)": {
        "params": {
          "_tokenIdSupply": "ID of the supply token"
        },
        "returns": {
          "_0": "returns a tuple (Payment amount, Buyer's deposit)"
        }
      },
      "getIdSupplyFromVoucher(uint256)": {
        "params": {
          "_tokenIdVoucher": "ID of the voucher token"
        },
        "returns": {
          "_0": "ID of the supply token"
        }
      },
      "getOrderCosts(uint256)": {
        "params": {
          "_tokenIdSupply": "ID of the supply token"
        },
        "returns": {
          "_0": "returns a tuple (Payment amount, Seller's deposit, Buyer's deposit)"
        }
      },
      "getPromiseIdFromVoucherId(uint256)": {
        "params": {
          "_tokenIdVoucher": "ID of the voucher token"
        },
        "returns": {
          "_0": "ID of the promise"
        }
      },
      "getPromiseKey(uint256)": {
        "params": {
          "_idx": "Index in the array of promise keys"
        },
        "returns": {
          "_0": "Promise ID"
        }
      },
      "getRemQtyForSupply(uint256,address)": {
        "params": {
          "_owner": "holder of the Token Supply",
          "_tokenSupplyId": "Token supply ID"
        },
        "returns": {
          "_0": "remaining quantity"
        }
      },
      "getSellerDeposit(uint256)": {
        "params": {
          "_tokenIdSupply": "ID of the supply token"
        },
        "returns": {
          "_0": "returns sellers deposit"
        }
      },
      "getSupplyHolder(uint256)": {
        "params": {
          "_tokenIdSupply": "ID of a promise which is mapped to the corresponding Promise"
        },
        "returns": {
          "_0": "Address of the holder"
        }
      },
      "getVoucherDepositToken(uint256)": {
        "params": {
          "_tokenIdSupply": "ID of the voucher supply token"
        },
        "returns": {
          "_0": "Address of the token"
        }
      },
      "getVoucherHolder(uint256)": {
        "params": {
          "_tokenIdVoucher": "ID of the voucher token"
        },
        "returns": {
          "_0": "Address of the holder"
        }
      },
      "getVoucherPaymentMethod(uint256)": {
        "params": {
          "_tokenIdSupply": "ID of the voucher supply token"
        },
        "returns": {
          "_0": "payment method"
        }
      },
      "getVoucherPriceToken(uint256)": {
        "params": {
          "_tokenIdSupply": "ID of the voucher supply token"
        },
        "returns": {
          "_0": "Address of the token"
        }
      },
      "getVoucherStatus(uint256)": {
        "params": {
          "_tokenIdVoucher": "ID of the voucher token"
        },
        "returns": {
          "_0": "Status of the voucher (via enum)"
        }
      },
      "isInValidityPeriod(uint256)": {
        "params": {
          "_tokenIdVoucher": "ID of the voucher token"
        }
      },
      "isVoucherTransferable(uint256)": {
        "params": {
          "_tokenIdVoucher": "ID of the voucher token"
        }
      },
      "owner()": {
        "details": "Returns the address of the current owner."
      },
      "paused()": {
        "details": "Returns true if the contract is paused, and false otherwise."
      },
      "redeem(uint256,address)": {
        "params": {
          "_msgSender": "account called the fn from the BR contract",
          "_tokenIdVoucher": "ID of the voucher"
        }
      },
      "refund(uint256,address)": {
        "params": {
          "_msgSender": "account called the fn from the BR contract",
          "_tokenIdVoucher": "ID of the voucher"
        }
      },
      "renounceOwnership()": {
        "details": "Leaves the contract without owner. It will not be possible to call `onlyOwner` functions anymore. Can only be called by the current owner. NOTE: Renouncing ownership will leave the contract without an owner, thereby removing any functionality that is only available to the owner."
      },
      "setBosonRouterAddress(address)": {
        "params": {
          "_bosonRouterAddress": "The address of the BR contract"
        }
      },
      "setCancelFaultPeriod(uint256)": {
        "params": {
          "_cancelFaultPeriod": "the new value for cancelOrFault period (in number of seconds)"
        }
      },
      "setCashierAddress(address)": {
        "params": {
          "_cashierAddress": "The address of the BR contract"
        }
      },
      "setComplainPeriod(uint256)": {
        "params": {
          "_complainPeriod": "the new value for complain period (in number of seconds)"
        }
      },
      "setDepositsReleased(uint256)": {
        "params": {
          "_tokenIdVoucher": "ID of the voucher token"
        }
      },
      "setPaymentReleased(uint256)": {
        "params": {
          "_tokenIdVoucher": "ID of the voucher token"
        }
      },
      "setSupplyHolderOnTransfer(uint256,address)": {
        "params": {
          "_newSeller": "new holder of the supply",
          "_tokenIdSupply": "_tokenIdSupply which will be transferred"
        }
      },
      "transferOwnership(address)": {
        "details": "Transfers ownership of the contract to a new account (`newOwner`). Can only be called by the current owner."
      },
      "triggerExpiration(uint256)": {
        "params": {
          "_tokenIdVoucher": "ID of the voucher token"
        }
      },
      "triggerFinalizeVoucher(uint256)": {
        "params": {
          "_tokenIdVoucher": "ID of the voucher token"
        }
      }
    },
    "title": "VoucherKernel contract is controlling the core business logic",
    "version": 1
  },
  "userdoc": {
    "kind": "user",
    "methods": {
      "burnSupplyOnPause(address,uint256,uint256)": {
        "notice": "Extract a standard non-fungible tokens ERC-721 from a supply stored in ERC-1155"
      },
      "cancelOrFault(uint256,address)": {
        "notice": "Cancel/Fault transaction by the Seller, admitting to a fault or backing out of the deal"
      },
      "cancelOrFaultVoucherSet(uint256,address)": {
        "notice": "Cancel/Fault transaction by the Seller, cancelling the remaining uncommitted voucher set so that seller prevents buyers from committing to vouchers for items no longer in exchange."
      },
      "complain(uint256,address)": {
        "notice": "Issue a complain for a voucher"
      },
      "createPaymentMethod(uint256,uint8,address,address)": {
        "notice": "Creates a Payment method struct recording the details on how the seller requires to receive Price and Deposits for a certain Voucher Set."
      },
      "createTokenSupplyID(address,uint256,uint256,uint256,uint256,uint256,uint256)": {
        "notice": "Creating a new promise for goods or services. Can be reused, e.g. for making different batches of these (in the future)."
      },
      "fillOrder(uint256,address,address,uint256)": {
        "notice": "Fill Voucher Order, iff funds paid, then extract & mint NFT to the voucher holder"
      },
      "getBuyerOrderCosts(uint256)": {
        "notice": "Get Buyer costs required to make an order for a supply token"
      },
      "getIdSupplyFromVoucher(uint256)": {
        "notice": "Get the supply token ID from a voucher token"
      },
      "getOrderCosts(uint256)": {
        "notice": "Get all necessary funds for a supply token"
      },
      "getPromiseIdFromVoucherId(uint256)": {
        "notice": "Get the promise ID from a voucher token"
      },
      "getPromiseKey(uint256)": {
        "notice": "Get the promise ID at specific index"
      },
      "getRemQtyForSupply(uint256,address)": {
        "notice": "Get the remaining quantity left in supply of tokens (e.g ERC-721 left in ERC-1155) of an account"
      },
      "getSellerDeposit(uint256)": {
        "notice": "Get Seller deposit"
      },
      "getSupplyHolder(uint256)": {
        "notice": "Get the holder of a supply"
      },
      "getVoucherDepositToken(uint256)": {
        "notice": "Get the address of the token where the deposits for the supply are held"
      },
      "getVoucherHolder(uint256)": {
        "notice": "Get the holder of a voucher"
      },
      "getVoucherPaymentMethod(uint256)": {
        "notice": "Get the payment method for a particular _tokenIdSupply"
      },
      "getVoucherPriceToken(uint256)": {
        "notice": "Get the address of the token where the price for the supply is held"
      },
      "getVoucherStatus(uint256)": {
        "notice": "Get the current status of a voucher"
      },
      "isInValidityPeriod(uint256)": {
        "notice": "Checks whether a voucher is in valid period for redemption (between start date and end date)"
      },
      "isVoucherTransferable(uint256)": {
        "notice": "Checks whether a voucher is in valid state to be transferred. If either payments or deposits are released, voucher could not be transferred"
      },
      "pause()": {
        "notice": "Pause the process of interaction with voucherID's (ERC-721), in case of emergency. Only BR contract is in control of this function."
      },
      "redeem(uint256,address)": {
        "notice": "Redemption of the vouchers promise"
      },
      "refund(uint256,address)": {
        "notice": "Refunding a voucher"
      },
      "setBosonRouterAddress(address)": {
        "notice": "Set the address of the Boson Router contract"
      },
      "setCancelFaultPeriod(uint256)": {
        "notice": "Set the general cancelOrFault period, should be used sparingly as it has significant consequences. Here done simply for demo purposes."
      },
      "setCashierAddress(address)": {
        "notice": "Set the address of the Cashier contract"
      },
      "setComplainPeriod(uint256)": {
        "notice": "Set the general complain period, should be used sparingly as it has significant consequences. Here done simply for demo purposes."
      },
      "setDepositsReleased(uint256)": {
        "notice": "Mark voucher token that the deposits were released"
      },
      "setPaymentReleased(uint256)": {
        "notice": "Mark voucher token that the payment was released"
      },
      "setSupplyHolderOnTransfer(uint256,address)": {
        "notice": "Set the address of the new holder of a _tokenIdSupply on transfer"
      },
      "triggerExpiration(uint256)": {
        "notice": "Mark voucher token as expired"
      },
      "triggerFinalizeVoucher(uint256)": {
        "notice": "Mark voucher token to the final status"
      },
      "unpause()": {
        "notice": "Unpause the process of interaction with voucherID's (ERC-721). Only BR contract is in control of this function."
      }
    },
    "version": 1
  }
}